{
	".deps/token.sol": {
		"LivingTheDream": {
			"abi": [
				{
					"inputs": [
						{
							"internalType": "address payable",
							"name": "_treasuryAddress",
							"type": "address"
						},
						{
							"internalType": "address",
							"name": "newOwner",
							"type": "address"
						}
					],
					"stateMutability": "nonpayable",
					"type": "constructor"
				},
				{
					"inputs": [
						{
							"internalType": "address",
							"name": "spender",
							"type": "address"
						},
						{
							"internalType": "uint256",
							"name": "allowance",
							"type": "uint256"
						},
						{
							"internalType": "uint256",
							"name": "needed",
							"type": "uint256"
						}
					],
					"name": "ERC20InsufficientAllowance",
					"type": "error"
				},
				{
					"inputs": [
						{
							"internalType": "address",
							"name": "sender",
							"type": "address"
						},
						{
							"internalType": "uint256",
							"name": "balance",
							"type": "uint256"
						},
						{
							"internalType": "uint256",
							"name": "needed",
							"type": "uint256"
						}
					],
					"name": "ERC20InsufficientBalance",
					"type": "error"
				},
				{
					"inputs": [
						{
							"internalType": "address",
							"name": "approver",
							"type": "address"
						}
					],
					"name": "ERC20InvalidApprover",
					"type": "error"
				},
				{
					"inputs": [
						{
							"internalType": "address",
							"name": "receiver",
							"type": "address"
						}
					],
					"name": "ERC20InvalidReceiver",
					"type": "error"
				},
				{
					"inputs": [
						{
							"internalType": "address",
							"name": "sender",
							"type": "address"
						}
					],
					"name": "ERC20InvalidSender",
					"type": "error"
				},
				{
					"inputs": [
						{
							"internalType": "address",
							"name": "spender",
							"type": "address"
						}
					],
					"name": "ERC20InvalidSpender",
					"type": "error"
				},
				{
					"inputs": [],
					"name": "EnforcedPause",
					"type": "error"
				},
				{
					"inputs": [],
					"name": "ExpectedPause",
					"type": "error"
				},
				{
					"inputs": [
						{
							"internalType": "address",
							"name": "owner",
							"type": "address"
						}
					],
					"name": "OwnableInvalidOwner",
					"type": "error"
				},
				{
					"inputs": [
						{
							"internalType": "address",
							"name": "account",
							"type": "address"
						}
					],
					"name": "OwnableUnauthorizedAccount",
					"type": "error"
				},
				{
					"anonymous": false,
					"inputs": [
						{
							"indexed": true,
							"internalType": "address",
							"name": "owner",
							"type": "address"
						},
						{
							"indexed": true,
							"internalType": "address",
							"name": "spender",
							"type": "address"
						},
						{
							"indexed": false,
							"internalType": "uint256",
							"name": "value",
							"type": "uint256"
						}
					],
					"name": "Approval",
					"type": "event"
				},
				{
					"anonymous": false,
					"inputs": [
						{
							"indexed": true,
							"internalType": "address",
							"name": "previousOwner",
							"type": "address"
						},
						{
							"indexed": true,
							"internalType": "address",
							"name": "newOwner",
							"type": "address"
						}
					],
					"name": "OwnershipTransferred",
					"type": "event"
				},
				{
					"anonymous": false,
					"inputs": [
						{
							"indexed": false,
							"internalType": "address",
							"name": "account",
							"type": "address"
						}
					],
					"name": "Paused",
					"type": "event"
				},
				{
					"anonymous": false,
					"inputs": [
						{
							"indexed": false,
							"internalType": "uint256",
							"name": "buyTax",
							"type": "uint256"
						},
						{
							"indexed": false,
							"internalType": "uint256",
							"name": "sellTax",
							"type": "uint256"
						}
					],
					"name": "TaxesChanged",
					"type": "event"
				},
				{
					"anonymous": false,
					"inputs": [
						{
							"indexed": true,
							"internalType": "address",
							"name": "from",
							"type": "address"
						},
						{
							"indexed": true,
							"internalType": "address",
							"name": "to",
							"type": "address"
						},
						{
							"indexed": false,
							"internalType": "uint256",
							"name": "value",
							"type": "uint256"
						}
					],
					"name": "Transfer",
					"type": "event"
				},
				{
					"anonymous": false,
					"inputs": [
						{
							"indexed": false,
							"internalType": "address",
							"name": "account",
							"type": "address"
						}
					],
					"name": "Unpaused",
					"type": "event"
				},
				{
					"inputs": [],
					"name": "AIRDROP_WALLET_AMOUNT",
					"outputs": [
						{
							"internalType": "uint256",
							"name": "",
							"type": "uint256"
						}
					],
					"stateMutability": "view",
					"type": "function"
				},
				{
					"inputs": [],
					"name": "INITIAL_SUPPLY",
					"outputs": [
						{
							"internalType": "uint256",
							"name": "",
							"type": "uint256"
						}
					],
					"stateMutability": "view",
					"type": "function"
				},
				{
					"inputs": [],
					"name": "MARKETING_WALLET_AMOUNT",
					"outputs": [
						{
							"internalType": "uint256",
							"name": "",
							"type": "uint256"
						}
					],
					"stateMutability": "view",
					"type": "function"
				},
				{
					"inputs": [],
					"name": "MAX_SUPPLY",
					"outputs": [
						{
							"internalType": "uint256",
							"name": "",
							"type": "uint256"
						}
					],
					"stateMutability": "view",
					"type": "function"
				},
				{
					"inputs": [
						{
							"internalType": "address",
							"name": "account",
							"type": "address"
						}
					],
					"name": "addToBlacklist",
					"outputs": [],
					"stateMutability": "nonpayable",
					"type": "function"
				},
				{
					"inputs": [
						{
							"internalType": "address",
							"name": "account",
							"type": "address"
						}
					],
					"name": "addToWhitelist",
					"outputs": [],
					"stateMutability": "nonpayable",
					"type": "function"
				},
				{
					"inputs": [
						{
							"internalType": "uint256",
							"name": "newBuyTax",
							"type": "uint256"
						},
						{
							"internalType": "uint256",
							"name": "newSellTax",
							"type": "uint256"
						}
					],
					"name": "adjustTaxes",
					"outputs": [],
					"stateMutability": "nonpayable",
					"type": "function"
				},
				{
					"inputs": [
						{
							"internalType": "address",
							"name": "owner",
							"type": "address"
						},
						{
							"internalType": "address",
							"name": "spender",
							"type": "address"
						}
					],
					"name": "allowance",
					"outputs": [
						{
							"internalType": "uint256",
							"name": "",
							"type": "uint256"
						}
					],
					"stateMutability": "view",
					"type": "function"
				},
				{
					"inputs": [
						{
							"internalType": "address",
							"name": "spender",
							"type": "address"
						},
						{
							"internalType": "uint256",
							"name": "value",
							"type": "uint256"
						}
					],
					"name": "approve",
					"outputs": [
						{
							"internalType": "bool",
							"name": "",
							"type": "bool"
						}
					],
					"stateMutability": "nonpayable",
					"type": "function"
				},
				{
					"inputs": [
						{
							"internalType": "address",
							"name": "dexAddress",
							"type": "address"
						},
						{
							"internalType": "uint256",
							"name": "amount",
							"type": "uint256"
						}
					],
					"name": "approveForDEX",
					"outputs": [],
					"stateMutability": "nonpayable",
					"type": "function"
				},
				{
					"inputs": [
						{
							"internalType": "address",
							"name": "account",
							"type": "address"
						}
					],
					"name": "balanceOf",
					"outputs": [
						{
							"internalType": "uint256",
							"name": "",
							"type": "uint256"
						}
					],
					"stateMutability": "view",
					"type": "function"
				},
				{
					"inputs": [
						{
							"internalType": "uint256",
							"name": "value",
							"type": "uint256"
						}
					],
					"name": "burn",
					"outputs": [],
					"stateMutability": "nonpayable",
					"type": "function"
				},
				{
					"inputs": [
						{
							"internalType": "address",
							"name": "account",
							"type": "address"
						},
						{
							"internalType": "uint256",
							"name": "amount",
							"type": "uint256"
						}
					],
					"name": "burn",
					"outputs": [],
					"stateMutability": "nonpayable",
					"type": "function"
				},
				{
					"inputs": [
						{
							"internalType": "address",
							"name": "account",
							"type": "address"
						},
						{
							"internalType": "uint256",
							"name": "value",
							"type": "uint256"
						}
					],
					"name": "burnFrom",
					"outputs": [],
					"stateMutability": "nonpayable",
					"type": "function"
				},
				{
					"inputs": [],
					"name": "currentTaxes",
					"outputs": [
						{
							"internalType": "uint256",
							"name": "buyTax",
							"type": "uint256"
						},
						{
							"internalType": "uint256",
							"name": "sellTax",
							"type": "uint256"
						}
					],
					"stateMutability": "view",
					"type": "function"
				},
				{
					"inputs": [],
					"name": "decimals",
					"outputs": [
						{
							"internalType": "uint8",
							"name": "",
							"type": "uint8"
						}
					],
					"stateMutability": "view",
					"type": "function"
				},
				{
					"inputs": [
						{
							"internalType": "address",
							"name": "account",
							"type": "address"
						}
					],
					"name": "excludeFromTax",
					"outputs": [],
					"stateMutability": "nonpayable",
					"type": "function"
				},
				{
					"inputs": [
						{
							"internalType": "address",
							"name": "account",
							"type": "address"
						}
					],
					"name": "includeInTax",
					"outputs": [],
					"stateMutability": "nonpayable",
					"type": "function"
				},
				{
					"inputs": [
						{
							"internalType": "address",
							"name": "",
							"type": "address"
						}
					],
					"name": "isBlacklisted",
					"outputs": [
						{
							"internalType": "bool",
							"name": "",
							"type": "bool"
						}
					],
					"stateMutability": "view",
					"type": "function"
				},
				{
					"inputs": [
						{
							"internalType": "address",
							"name": "",
							"type": "address"
						}
					],
					"name": "isExcludedFromTax",
					"outputs": [
						{
							"internalType": "bool",
							"name": "",
							"type": "bool"
						}
					],
					"stateMutability": "view",
					"type": "function"
				},
				{
					"inputs": [
						{
							"internalType": "address",
							"name": "",
							"type": "address"
						}
					],
					"name": "isWhitelisted",
					"outputs": [
						{
							"internalType": "bool",
							"name": "",
							"type": "bool"
						}
					],
					"stateMutability": "view",
					"type": "function"
				},
				{
					"inputs": [
						{
							"internalType": "address",
							"name": "user",
							"type": "address"
						},
						{
							"internalType": "uint256",
							"name": "amount",
							"type": "uint256"
						}
					],
					"name": "mint",
					"outputs": [],
					"stateMutability": "nonpayable",
					"type": "function"
				},
				{
					"inputs": [],
					"name": "name",
					"outputs": [
						{
							"internalType": "string",
							"name": "",
							"type": "string"
						}
					],
					"stateMutability": "view",
					"type": "function"
				},
				{
					"inputs": [],
					"name": "owner",
					"outputs": [
						{
							"internalType": "address",
							"name": "",
							"type": "address"
						}
					],
					"stateMutability": "view",
					"type": "function"
				},
				{
					"inputs": [],
					"name": "pause",
					"outputs": [],
					"stateMutability": "nonpayable",
					"type": "function"
				},
				{
					"inputs": [],
					"name": "paused",
					"outputs": [
						{
							"internalType": "bool",
							"name": "",
							"type": "bool"
						}
					],
					"stateMutability": "view",
					"type": "function"
				},
				{
					"inputs": [
						{
							"internalType": "address",
							"name": "account",
							"type": "address"
						}
					],
					"name": "removeFromBlacklist",
					"outputs": [],
					"stateMutability": "nonpayable",
					"type": "function"
				},
				{
					"inputs": [
						{
							"internalType": "address",
							"name": "account",
							"type": "address"
						}
					],
					"name": "removeFromWhitelist",
					"outputs": [],
					"stateMutability": "nonpayable",
					"type": "function"
				},
				{
					"inputs": [],
					"name": "renounceOwnership",
					"outputs": [],
					"stateMutability": "nonpayable",
					"type": "function"
				},
				{
					"inputs": [
						{
							"internalType": "address payable",
							"name": "newTreasuryAddress",
							"type": "address"
						}
					],
					"name": "setTreasuryAddress",
					"outputs": [],
					"stateMutability": "nonpayable",
					"type": "function"
				},
				{
					"inputs": [],
					"name": "symbol",
					"outputs": [
						{
							"internalType": "string",
							"name": "",
							"type": "string"
						}
					],
					"stateMutability": "view",
					"type": "function"
				},
				{
					"inputs": [],
					"name": "totalSupply",
					"outputs": [
						{
							"internalType": "uint256",
							"name": "",
							"type": "uint256"
						}
					],
					"stateMutability": "view",
					"type": "function"
				},
				{
					"inputs": [
						{
							"internalType": "address",
							"name": "to",
							"type": "address"
						},
						{
							"internalType": "uint256",
							"name": "value",
							"type": "uint256"
						}
					],
					"name": "transfer",
					"outputs": [
						{
							"internalType": "bool",
							"name": "",
							"type": "bool"
						}
					],
					"stateMutability": "nonpayable",
					"type": "function"
				},
				{
					"inputs": [
						{
							"internalType": "address",
							"name": "from",
							"type": "address"
						},
						{
							"internalType": "address",
							"name": "to",
							"type": "address"
						},
						{
							"internalType": "uint256",
							"name": "value",
							"type": "uint256"
						}
					],
					"name": "transferFrom",
					"outputs": [
						{
							"internalType": "bool",
							"name": "",
							"type": "bool"
						}
					],
					"stateMutability": "nonpayable",
					"type": "function"
				},
				{
					"inputs": [
						{
							"internalType": "address",
							"name": "newOwner",
							"type": "address"
						}
					],
					"name": "transferOwnership",
					"outputs": [],
					"stateMutability": "nonpayable",
					"type": "function"
				},
				{
					"inputs": [],
					"name": "treasuryAddress",
					"outputs": [
						{
							"internalType": "address payable",
							"name": "",
							"type": "address"
						}
					],
					"stateMutability": "view",
					"type": "function"
				},
				{
					"inputs": [],
					"name": "unpause",
					"outputs": [],
					"stateMutability": "nonpayable",
					"type": "function"
				}
			],
			"devdoc": {
				"errors": {
					"ERC20InsufficientAllowance(address,uint256,uint256)": [
						{
							"details": "Indicates a failure with the `spender`’s `allowance`. Used in transfers.",
							"params": {
								"allowance": "Amount of tokens a `spender` is allowed to operate with.",
								"needed": "Minimum amount required to perform a transfer.",
								"spender": "Address that may be allowed to operate on tokens without being their owner."
							}
						}
					],
					"ERC20InsufficientBalance(address,uint256,uint256)": [
						{
							"details": "Indicates an error related to the current `balance` of a `sender`. Used in transfers.",
							"params": {
								"balance": "Current balance for the interacting account.",
								"needed": "Minimum amount required to perform a transfer.",
								"sender": "Address whose tokens are being transferred."
							}
						}
					],
					"ERC20InvalidApprover(address)": [
						{
							"details": "Indicates a failure with the `approver` of a token to be approved. Used in approvals.",
							"params": {
								"approver": "Address initiating an approval operation."
							}
						}
					],
					"ERC20InvalidReceiver(address)": [
						{
							"details": "Indicates a failure with the token `receiver`. Used in transfers.",
							"params": {
								"receiver": "Address to which tokens are being transferred."
							}
						}
					],
					"ERC20InvalidSender(address)": [
						{
							"details": "Indicates a failure with the token `sender`. Used in transfers.",
							"params": {
								"sender": "Address whose tokens are being transferred."
							}
						}
					],
					"ERC20InvalidSpender(address)": [
						{
							"details": "Indicates a failure with the `spender` to be approved. Used in approvals.",
							"params": {
								"spender": "Address that may be allowed to operate on tokens without being their owner."
							}
						}
					],
					"EnforcedPause()": [
						{
							"details": "The operation failed because the contract is paused."
						}
					],
					"ExpectedPause()": [
						{
							"details": "The operation failed because the contract is not paused."
						}
					],
					"OwnableInvalidOwner(address)": [
						{
							"details": "The owner is not a valid owner account. (eg. `address(0)`)"
						}
					],
					"OwnableUnauthorizedAccount(address)": [
						{
							"details": "The caller account is not authorized to perform an operation."
						}
					]
				},
				"events": {
					"Approval(address,address,uint256)": {
						"details": "Emitted when the allowance of a `spender` for an `owner` is set by a call to {approve}. `value` is the new allowance."
					},
					"Paused(address)": {
						"details": "Emitted when the pause is triggered by `account`."
					},
					"Transfer(address,address,uint256)": {
						"details": "Emitted when `value` tokens are moved from one account (`from`) to another (`to`). Note that `value` may be zero."
					},
					"Unpaused(address)": {
						"details": "Emitted when the pause is lifted by `account`."
					}
				},
				"kind": "dev",
				"methods": {
					"allowance(address,address)": {
						"details": "See {IERC20-allowance}."
					},
					"approve(address,uint256)": {
						"details": "See {IERC20-approve}. NOTE: If `value` is the maximum `uint256`, the allowance is not updated on `transferFrom`. This is semantically equivalent to an infinite approval. Requirements: - `spender` cannot be the zero address."
					},
					"balanceOf(address)": {
						"details": "See {IERC20-balanceOf}."
					},
					"burn(uint256)": {
						"details": "Destroys a `value` amount of tokens from the caller. See {ERC20-_burn}."
					},
					"burnFrom(address,uint256)": {
						"details": "Destroys a `value` amount of tokens from `account`, deducting from the caller's allowance. See {ERC20-_burn} and {ERC20-allowance}. Requirements: - the caller must have allowance for ``accounts``'s tokens of at least `value`."
					},
					"decimals()": {
						"details": "Returns the number of decimals used to get its user representation. For example, if `decimals` equals `2`, a balance of `505` tokens should be displayed to a user as `5.05` (`505 / 10 ** 2`). Tokens usually opt for a value of 18, imitating the relationship between Ether and Wei. This is the default value returned by this function, unless it's overridden. NOTE: This information is only used for _display_ purposes: it in no way affects any of the arithmetic of the contract, including {IERC20-balanceOf} and {IERC20-transfer}."
					},
					"name()": {
						"details": "Returns the name of the token."
					},
					"owner()": {
						"details": "Returns the address of the current owner."
					},
					"paused()": {
						"details": "Returns true if the contract is paused, and false otherwise."
					},
					"renounceOwnership()": {
						"details": "Leaves the contract without owner. It will not be possible to call `onlyOwner` functions. Can only be called by the current owner. NOTE: Renouncing ownership will leave the contract without an owner, thereby disabling any functionality that is only available to the owner."
					},
					"symbol()": {
						"details": "Returns the symbol of the token, usually a shorter version of the name."
					},
					"totalSupply()": {
						"details": "See {IERC20-totalSupply}."
					},
					"transfer(address,uint256)": {
						"details": "See {IERC20-transfer}. Requirements: - `to` cannot be the zero address. - the caller must have a balance of at least `value`."
					},
					"transferFrom(address,address,uint256)": {
						"details": "See {IERC20-transferFrom}. Emits an {Approval} event indicating the updated allowance. This is not required by the EIP. See the note at the beginning of {ERC20}. NOTE: Does not update the allowance if the current allowance is the maximum `uint256`. Requirements: - `from` and `to` cannot be the zero address. - `from` must have a balance of at least `value`. - the caller must have allowance for ``from``'s tokens of at least `value`."
					},
					"transferOwnership(address)": {
						"details": "Transfers ownership of the contract to a new account (`newOwner`). Can only be called by the current owner."
					}
				},
				"version": 1
			},
			"evm": {
				"assembly": "    /* \".deps/token.sol\":370:4732  contract LivingTheDream is ERC20, ERC20Burnable, Ownable, ReentrancyGuard, Pausable {... */\n  mstore(0x40, 0x80)\n    /* \".deps/token.sol\":1140:1815  constructor(address payable _treasuryAddress, address newOwner) ERC20(\"Living The Dream\", \"LTD\") Ownable(msg.sender) {... */\n  callvalue\n  dup1\n  iszero\n  tag_1\n  jumpi\n  0x00\n  dup1\n  revert\ntag_1:\n  pop\n  mload(0x40)\n  sub(codesize, bytecodeSize)\n  dup1\n  bytecodeSize\n  dup4\n  codecopy\n  dup2\n  dup2\n  add\n  0x40\n  mstore\n  dup2\n  add\n  swap1\n  tag_2\n  swap2\n  swap1\n  tag_3\n  jump\t// in\ntag_2:\n    /* \".deps/token.sol\":1245:1255  msg.sender */\n  caller\n    /* \"@openzeppelin/contracts/token/ERC20/ERC20.sol\":1896:2009  constructor(string memory name_, string memory symbol_) {... */\n  mload(0x40)\n  dup1\n  0x40\n  add\n  0x40\n  mstore\n  dup1\n  0x10\n  dup2\n  mstore\n  0x20\n  add\n  0x4c6976696e672054686520447265616d00000000000000000000000000000000\n  dup2\n  mstore\n  pop\n  mload(0x40)\n  dup1\n  0x40\n  add\n  0x40\n  mstore\n  dup1\n  0x03\n  dup2\n  mstore\n  0x20\n  add\n  0x4c54440000000000000000000000000000000000000000000000000000000000\n  dup2\n  mstore\n  pop\n    /* \"@openzeppelin/contracts/token/ERC20/ERC20.sol\":1970:1975  name_ */\n  dup2\n    /* \"@openzeppelin/contracts/token/ERC20/ERC20.sol\":1962:1967  _name */\n  0x03\n    /* \"@openzeppelin/contracts/token/ERC20/ERC20.sol\":1962:1975  _name = name_ */\n  swap1\n  dup2\n  tag_10\n  swap2\n  swap1\n  tag_11\n  jump\t// in\ntag_10:\n  pop\n    /* \"@openzeppelin/contracts/token/ERC20/ERC20.sol\":1995:2002  symbol_ */\n  dup1\n    /* \"@openzeppelin/contracts/token/ERC20/ERC20.sol\":1985:1992  _symbol */\n  0x04\n    /* \"@openzeppelin/contracts/token/ERC20/ERC20.sol\":1985:2002  _symbol = symbol_ */\n  swap1\n  dup2\n  tag_12\n  swap2\n  swap1\n  tag_11\n  jump\t// in\ntag_12:\n  pop\n    /* \"@openzeppelin/contracts/token/ERC20/ERC20.sol\":1896:2009  constructor(string memory name_, string memory symbol_) {... */\n  pop\n  pop\n    /* \"@openzeppelin/contracts/access/Ownable.sol\":1297:1298  0 */\n  0x00\n    /* \"@openzeppelin/contracts/access/Ownable.sol\":1273:1299  initialOwner == address(0) */\n  0xffffffffffffffffffffffffffffffffffffffff\n  and\n    /* \"@openzeppelin/contracts/access/Ownable.sol\":1273:1285  initialOwner */\n  dup2\n    /* \"@openzeppelin/contracts/access/Ownable.sol\":1273:1299  initialOwner == address(0) */\n  0xffffffffffffffffffffffffffffffffffffffff\n  and\n  sub\n    /* \"@openzeppelin/contracts/access/Ownable.sol\":1269:1364  if (initialOwner == address(0)) {... */\n  tag_14\n  jumpi\n    /* \"@openzeppelin/contracts/access/Ownable.sol\":1350:1351  0 */\n  0x00\n    /* \"@openzeppelin/contracts/access/Ownable.sol\":1322:1353  OwnableInvalidOwner(address(0)) */\n  mload(0x40)\n  0x1e4fbdf700000000000000000000000000000000000000000000000000000000\n  dup2\n  mstore\n  0x04\n  add\n  tag_15\n  swap2\n  swap1\n  tag_16\n  jump\t// in\ntag_15:\n  mload(0x40)\n  dup1\n  swap2\n  sub\n  swap1\n  revert\n    /* \"@openzeppelin/contracts/access/Ownable.sol\":1269:1364  if (initialOwner == address(0)) {... */\ntag_14:\n    /* \"@openzeppelin/contracts/access/Ownable.sol\":1373:1405  _transferOwnership(initialOwner) */\n  tag_17\n    /* \"@openzeppelin/contracts/access/Ownable.sol\":1392:1404  initialOwner */\n  dup2\n    /* \"@openzeppelin/contracts/access/Ownable.sol\":1373:1391  _transferOwnership */\n  shl(0x20, tag_18)\n    /* \"@openzeppelin/contracts/access/Ownable.sol\":1373:1405  _transferOwnership(initialOwner) */\n  0x20\n  shr\n  jump\t// in\ntag_17:\n    /* \"@openzeppelin/contracts/access/Ownable.sol\":1225:1412  constructor(address initialOwner) {... */\n  pop\n    /* \"@openzeppelin/contracts/security/ReentrancyGuard.sol\":1716:1717  1 */\n  0x01\n    /* \"@openzeppelin/contracts/security/ReentrancyGuard.sol\":1821:1828  _status */\n  0x06\n    /* \"@openzeppelin/contracts/security/ReentrancyGuard.sol\":1821:1843  _status = _NOT_ENTERED */\n  dup2\n  swap1\n  sstore\n  pop\n    /* \"@openzeppelin/contracts/utils/Pausable.sol\":1241:1246  false */\n  0x00\n    /* \"@openzeppelin/contracts/utils/Pausable.sol\":1231:1238  _paused */\n  0x07\n  0x00\n    /* \"@openzeppelin/contracts/utils/Pausable.sol\":1231:1246  _paused = false */\n  0x0100\n  exp\n  dup2\n  sload\n  dup2\n  0xff\n  mul\n  not\n  and\n  swap1\n  dup4\n  iszero\n  iszero\n  mul\n  or\n  swap1\n  sstore\n  pop\n    /* \".deps/token.sol\":1278:1311  _mint(msg.sender, INITIAL_SUPPLY) */\n  tag_22\n    /* \".deps/token.sol\":1284:1294  msg.sender */\n  caller\n    /* \".deps/token.sol\":568:588  33333333333 * 10**18 */\n  0x6bb4afe4ca85cb07a8340000\n    /* \".deps/token.sol\":1278:1283  _mint */\n  shl(0x20, tag_23)\n    /* \".deps/token.sol\":1278:1311  _mint(msg.sender, INITIAL_SUPPLY) */\n  0x20\n  shr\n  jump\t// in\ntag_22:\n    /* \".deps/token.sol\":1322:1396  _mint(0x3E55eFc604A3E021069AA4852AB5A97798301Fd5, MARKETING_WALLET_AMOUNT) */\n  tag_24\n    /* \".deps/token.sol\":1328:1370  0x3E55eFc604A3E021069AA4852AB5A97798301Fd5 */\n  0x3e55efc604a3e021069aa4852ab5a97798301fd5\n    /* \".deps/token.sol\":645:664  5533333333 * 10**18 */\n  0x11e110e90947de0410340000\n    /* \".deps/token.sol\":1322:1327  _mint */\n  shl(0x20, tag_23)\n    /* \".deps/token.sol\":1322:1396  _mint(0x3E55eFc604A3E021069AA4852AB5A97798301Fd5, MARKETING_WALLET_AMOUNT) */\n  0x20\n  shr\n  jump\t// in\ntag_24:\n    /* \".deps/token.sol\":1459:1531  _mint(0x54412E0892c534c89A076252e3824F1f7f549c52, AIRDROP_WALLET_AMOUNT) */\n  tag_25\n    /* \".deps/token.sol\":1465:1507  0x54412E0892c534c89A076252e3824F1f7f549c52 */\n  0x54412e0892c534c89a076252e3824f1f7f549c52\n    /* \".deps/token.sol\":719:739  27777777777 * 10**18 */\n  0x59c13d3ea1d47881e3240000\n    /* \".deps/token.sol\":1459:1464  _mint */\n  shl(0x20, tag_23)\n    /* \".deps/token.sol\":1459:1531  _mint(0x54412E0892c534c89A076252e3824F1f7f549c52, AIRDROP_WALLET_AMOUNT) */\n  0x20\n  shr\n  jump\t// in\ntag_25:\n    /* \".deps/token.sol\":1557:1569  Taxes(7, 10) */\n  mload(0x40)\n  dup1\n  0x40\n  add\n  0x40\n  mstore\n  dup1\n    /* \".deps/token.sol\":1563:1564  7 */\n  0x07\n    /* \".deps/token.sol\":1557:1569  Taxes(7, 10) */\n  dup2\n  mstore\n  0x20\n  add\n    /* \".deps/token.sol\":1566:1568  10 */\n  0x0a\n    /* \".deps/token.sol\":1557:1569  Taxes(7, 10) */\n  dup2\n  mstore\n  pop\n    /* \".deps/token.sol\":1542:1554  currentTaxes */\n  0x0b\n    /* \".deps/token.sol\":1542:1569  currentTaxes = Taxes(7, 10) */\n  0x00\n  dup3\n  add\n  mload\n  dup2\n  0x00\n  add\n  sstore\n  0x20\n  dup3\n  add\n  mload\n  dup2\n  0x01\n  add\n  sstore\n  swap1\n  pop\n  pop\n    /* \".deps/token.sol\":1598:1614  _treasuryAddress */\n  dup2\n    /* \".deps/token.sol\":1580:1595  treasuryAddress */\n  0x0d\n  0x00\n    /* \".deps/token.sol\":1580:1614  treasuryAddress = _treasuryAddress */\n  0x0100\n  exp\n  dup2\n  sload\n  dup2\n  0xffffffffffffffffffffffffffffffffffffffff\n  mul\n  not\n  and\n  swap1\n  dup4\n  0xffffffffffffffffffffffffffffffffffffffff\n  and\n  mul\n  or\n  swap1\n  sstore\n  pop\n    /* \".deps/token.sol\":1625:1656  _mint(newOwner, INITIAL_SUPPLY) */\n  tag_26\n    /* \".deps/token.sol\":1631:1639  newOwner */\n  dup2\n    /* \".deps/token.sol\":568:588  33333333333 * 10**18 */\n  0x6bb4afe4ca85cb07a8340000\n    /* \".deps/token.sol\":1625:1630  _mint */\n  shl(0x20, tag_23)\n    /* \".deps/token.sol\":1625:1656  _mint(newOwner, INITIAL_SUPPLY) */\n  0x20\n  shr\n  jump\t// in\ntag_26:\n    /* \".deps/token.sol\":1721:1748  transferOwnership(newOwner) */\n  tag_27\n    /* \".deps/token.sol\":1739:1747  newOwner */\n  dup2\n    /* \".deps/token.sol\":1721:1738  transferOwnership */\n  shl(0x20, tag_28)\n    /* \".deps/token.sol\":1721:1748  transferOwnership(newOwner) */\n  0x20\n  shr\n  jump\t// in\ntag_27:\n    /* \".deps/token.sol\":1140:1815  constructor(address payable _treasuryAddress, address newOwner) ERC20(\"Living The Dream\", \"LTD\") Ownable(msg.sender) {... */\n  pop\n  pop\n    /* \".deps/token.sol\":370:4732  contract LivingTheDream is ERC20, ERC20Burnable, Ownable, ReentrancyGuard, Pausable {... */\n  jump(tag_29)\n    /* \"@openzeppelin/contracts/access/Ownable.sol\":2912:3099  function _transferOwnership(address newOwner) internal virtual {... */\ntag_18:\n    /* \"@openzeppelin/contracts/access/Ownable.sol\":2985:3001  address oldOwner */\n  0x00\n    /* \"@openzeppelin/contracts/access/Ownable.sol\":3004:3010  _owner */\n  0x05\n  0x00\n  swap1\n  sload\n  swap1\n  0x0100\n  exp\n  swap1\n  div\n  0xffffffffffffffffffffffffffffffffffffffff\n  and\n    /* \"@openzeppelin/contracts/access/Ownable.sol\":2985:3010  address oldOwner = _owner */\n  swap1\n  pop\n    /* \"@openzeppelin/contracts/access/Ownable.sol\":3029:3037  newOwner */\n  dup2\n    /* \"@openzeppelin/contracts/access/Ownable.sol\":3020:3026  _owner */\n  0x05\n  0x00\n    /* \"@openzeppelin/contracts/access/Ownable.sol\":3020:3037  _owner = newOwner */\n  0x0100\n  exp\n  dup2\n  sload\n  dup2\n  0xffffffffffffffffffffffffffffffffffffffff\n  mul\n  not\n  and\n  swap1\n  dup4\n  0xffffffffffffffffffffffffffffffffffffffff\n  and\n  mul\n  or\n  swap1\n  sstore\n  pop\n    /* \"@openzeppelin/contracts/access/Ownable.sol\":3083:3091  newOwner */\n  dup2\n    /* \"@openzeppelin/contracts/access/Ownable.sol\":3052:3092  OwnershipTransferred(oldOwner, newOwner) */\n  0xffffffffffffffffffffffffffffffffffffffff\n  and\n    /* \"@openzeppelin/contracts/access/Ownable.sol\":3073:3081  oldOwner */\n  dup2\n    /* \"@openzeppelin/contracts/access/Ownable.sol\":3052:3092  OwnershipTransferred(oldOwner, newOwner) */\n  0xffffffffffffffffffffffffffffffffffffffff\n  and\n  0x8be0079c531659141344cd1fd0a4f28419497f9722a3daafe3b4186f6b6457e0\n  mload(0x40)\n  mload(0x40)\n  dup1\n  swap2\n  sub\n  swap1\n  log3\n    /* \"@openzeppelin/contracts/access/Ownable.sol\":2975:3099  {... */\n  pop\n    /* \"@openzeppelin/contracts/access/Ownable.sol\":2912:3099  function _transferOwnership(address newOwner) internal virtual {... */\n  pop\n  jump\t// out\n    /* \"@openzeppelin/contracts/token/ERC20/ERC20.sol\":7721:7929  function _mint(address account, uint256 value) internal {... */\ntag_23:\n    /* \"@openzeppelin/contracts/token/ERC20/ERC20.sol\":7810:7811  0 */\n  0x00\n    /* \"@openzeppelin/contracts/token/ERC20/ERC20.sol\":7791:7812  account == address(0) */\n  0xffffffffffffffffffffffffffffffffffffffff\n  and\n    /* \"@openzeppelin/contracts/token/ERC20/ERC20.sol\":7791:7798  account */\n  dup3\n    /* \"@openzeppelin/contracts/token/ERC20/ERC20.sol\":7791:7812  account == address(0) */\n  0xffffffffffffffffffffffffffffffffffffffff\n  and\n  sub\n    /* \"@openzeppelin/contracts/token/ERC20/ERC20.sol\":7787:7878  if (account == address(0)) {... */\n  tag_32\n  jumpi\n    /* \"@openzeppelin/contracts/token/ERC20/ERC20.sol\":7864:7865  0 */\n  0x00\n    /* \"@openzeppelin/contracts/token/ERC20/ERC20.sol\":7835:7867  ERC20InvalidReceiver(address(0)) */\n  mload(0x40)\n  0xec442f0500000000000000000000000000000000000000000000000000000000\n  dup2\n  mstore\n  0x04\n  add\n  tag_33\n  swap2\n  swap1\n  tag_16\n  jump\t// in\ntag_33:\n  mload(0x40)\n  dup1\n  swap2\n  sub\n  swap1\n  revert\n    /* \"@openzeppelin/contracts/token/ERC20/ERC20.sol\":7787:7878  if (account == address(0)) {... */\ntag_32:\n    /* \"@openzeppelin/contracts/token/ERC20/ERC20.sol\":7887:7922  _update(address(0), account, value) */\n  tag_34\n    /* \"@openzeppelin/contracts/token/ERC20/ERC20.sol\":7903:7904  0 */\n  0x00\n    /* \"@openzeppelin/contracts/token/ERC20/ERC20.sol\":7907:7914  account */\n  dup4\n    /* \"@openzeppelin/contracts/token/ERC20/ERC20.sol\":7916:7921  value */\n  dup4\n    /* \"@openzeppelin/contracts/token/ERC20/ERC20.sol\":7887:7894  _update */\n  shl(0x20, tag_35)\n    /* \"@openzeppelin/contracts/token/ERC20/ERC20.sol\":7887:7922  _update(address(0), account, value) */\n  0x20\n  shr\n  jump\t// in\ntag_34:\n    /* \"@openzeppelin/contracts/token/ERC20/ERC20.sol\":7721:7929  function _mint(address account, uint256 value) internal {... */\n  pop\n  pop\n  jump\t// out\n    /* \"@openzeppelin/contracts/access/Ownable.sol\":2543:2758  function transferOwnership(address newOwner) public virtual onlyOwner {... */\ntag_28:\n    /* \"@openzeppelin/contracts/access/Ownable.sol\":1531:1544  _checkOwner() */\n  tag_37\n    /* \"@openzeppelin/contracts/access/Ownable.sol\":1531:1542  _checkOwner */\n  shl(0x20, tag_38)\n    /* \"@openzeppelin/contracts/access/Ownable.sol\":1531:1544  _checkOwner() */\n  0x20\n  shr\n  jump\t// in\ntag_37:\n    /* \"@openzeppelin/contracts/access/Ownable.sol\":2647:2648  0 */\n  0x00\n    /* \"@openzeppelin/contracts/access/Ownable.sol\":2627:2649  newOwner == address(0) */\n  0xffffffffffffffffffffffffffffffffffffffff\n  and\n    /* \"@openzeppelin/contracts/access/Ownable.sol\":2627:2635  newOwner */\n  dup2\n    /* \"@openzeppelin/contracts/access/Ownable.sol\":2627:2649  newOwner == address(0) */\n  0xffffffffffffffffffffffffffffffffffffffff\n  and\n  sub\n    /* \"@openzeppelin/contracts/access/Ownable.sol\":2623:2714  if (newOwner == address(0)) {... */\n  tag_40\n  jumpi\n    /* \"@openzeppelin/contracts/access/Ownable.sol\":2700:2701  0 */\n  0x00\n    /* \"@openzeppelin/contracts/access/Ownable.sol\":2672:2703  OwnableInvalidOwner(address(0)) */\n  mload(0x40)\n  0x1e4fbdf700000000000000000000000000000000000000000000000000000000\n  dup2\n  mstore\n  0x04\n  add\n  tag_41\n  swap2\n  swap1\n  tag_16\n  jump\t// in\ntag_41:\n  mload(0x40)\n  dup1\n  swap2\n  sub\n  swap1\n  revert\n    /* \"@openzeppelin/contracts/access/Ownable.sol\":2623:2714  if (newOwner == address(0)) {... */\ntag_40:\n    /* \"@openzeppelin/contracts/access/Ownable.sol\":2723:2751  _transferOwnership(newOwner) */\n  tag_42\n    /* \"@openzeppelin/contracts/access/Ownable.sol\":2742:2750  newOwner */\n  dup2\n    /* \"@openzeppelin/contracts/access/Ownable.sol\":2723:2741  _transferOwnership */\n  shl(0x20, tag_18)\n    /* \"@openzeppelin/contracts/access/Ownable.sol\":2723:2751  _transferOwnership(newOwner) */\n  0x20\n  shr\n  jump\t// in\ntag_42:\n    /* \"@openzeppelin/contracts/access/Ownable.sol\":2543:2758  function transferOwnership(address newOwner) public virtual onlyOwner {... */\n  pop\n  jump\t// out\n    /* \"@openzeppelin/contracts/token/ERC20/ERC20.sol\":6271:7378  function _update(address from, address to, uint256 value) internal virtual {... */\ntag_35:\n    /* \"@openzeppelin/contracts/token/ERC20/ERC20.sol\":6376:6377  0 */\n  0x00\n    /* \"@openzeppelin/contracts/token/ERC20/ERC20.sol\":6360:6378  from == address(0) */\n  0xffffffffffffffffffffffffffffffffffffffff\n  and\n    /* \"@openzeppelin/contracts/token/ERC20/ERC20.sol\":6360:6364  from */\n  dup4\n    /* \"@openzeppelin/contracts/token/ERC20/ERC20.sol\":6360:6378  from == address(0) */\n  0xffffffffffffffffffffffffffffffffffffffff\n  and\n  sub\n    /* \"@openzeppelin/contracts/token/ERC20/ERC20.sol\":6356:6896  if (from == address(0)) {... */\n  tag_44\n  jumpi\n    /* \"@openzeppelin/contracts/token/ERC20/ERC20.sol\":6512:6517  value */\n  dup1\n    /* \"@openzeppelin/contracts/token/ERC20/ERC20.sol\":6496:6508  _totalSupply */\n  0x02\n  0x00\n    /* \"@openzeppelin/contracts/token/ERC20/ERC20.sol\":6496:6517  _totalSupply += value */\n  dup3\n  dup3\n  sload\n  tag_45\n  swap2\n  swap1\n  tag_46\n  jump\t// in\ntag_45:\n  swap3\n  pop\n  pop\n  dup2\n  swap1\n  sstore\n  pop\n    /* \"@openzeppelin/contracts/token/ERC20/ERC20.sol\":6356:6896  if (from == address(0)) {... */\n  jump(tag_47)\ntag_44:\n    /* \"@openzeppelin/contracts/token/ERC20/ERC20.sol\":6548:6567  uint256 fromBalance */\n  0x00\n    /* \"@openzeppelin/contracts/token/ERC20/ERC20.sol\":6570:6579  _balances */\n  dup1\n    /* \"@openzeppelin/contracts/token/ERC20/ERC20.sol\":6570:6585  _balances[from] */\n  0x00\n    /* \"@openzeppelin/contracts/token/ERC20/ERC20.sol\":6580:6584  from */\n  dup6\n    /* \"@openzeppelin/contracts/token/ERC20/ERC20.sol\":6570:6585  _balances[from] */\n  0xffffffffffffffffffffffffffffffffffffffff\n  and\n  0xffffffffffffffffffffffffffffffffffffffff\n  and\n  dup2\n  mstore\n  0x20\n  add\n  swap1\n  dup2\n  mstore\n  0x20\n  add\n  0x00\n  keccak256\n  sload\n    /* \"@openzeppelin/contracts/token/ERC20/ERC20.sol\":6548:6585  uint256 fromBalance = _balances[from] */\n  swap1\n  pop\n    /* \"@openzeppelin/contracts/token/ERC20/ERC20.sol\":6617:6622  value */\n  dup2\n    /* \"@openzeppelin/contracts/token/ERC20/ERC20.sol\":6603:6614  fromBalance */\n  dup2\n    /* \"@openzeppelin/contracts/token/ERC20/ERC20.sol\":6603:6622  fromBalance < value */\n  lt\n    /* \"@openzeppelin/contracts/token/ERC20/ERC20.sol\":6599:6714  if (fromBalance < value) {... */\n  iszero\n  tag_48\n  jumpi\n    /* \"@openzeppelin/contracts/token/ERC20/ERC20.sol\":6674:6678  from */\n  dup4\n    /* \"@openzeppelin/contracts/token/ERC20/ERC20.sol\":6680:6691  fromBalance */\n  dup2\n    /* \"@openzeppelin/contracts/token/ERC20/ERC20.sol\":6693:6698  value */\n  dup4\n    /* \"@openzeppelin/contracts/token/ERC20/ERC20.sol\":6649:6699  ERC20InsufficientBalance(from, fromBalance, value) */\n  mload(0x40)\n  0xe450d38c00000000000000000000000000000000000000000000000000000000\n  dup2\n  mstore\n  0x04\n  add\n  tag_49\n  swap4\n  swap3\n  swap2\n  swap1\n  tag_50\n  jump\t// in\ntag_49:\n  mload(0x40)\n  dup1\n  swap2\n  sub\n  swap1\n  revert\n    /* \"@openzeppelin/contracts/token/ERC20/ERC20.sol\":6599:6714  if (fromBalance < value) {... */\ntag_48:\n    /* \"@openzeppelin/contracts/token/ERC20/ERC20.sol\":6866:6871  value */\n  dup2\n    /* \"@openzeppelin/contracts/token/ERC20/ERC20.sol\":6852:6863  fromBalance */\n  dup2\n    /* \"@openzeppelin/contracts/token/ERC20/ERC20.sol\":6852:6871  fromBalance - value */\n  sub\n    /* \"@openzeppelin/contracts/token/ERC20/ERC20.sol\":6834:6843  _balances */\n  0x00\n    /* \"@openzeppelin/contracts/token/ERC20/ERC20.sol\":6834:6849  _balances[from] */\n  dup1\n    /* \"@openzeppelin/contracts/token/ERC20/ERC20.sol\":6844:6848  from */\n  dup7\n    /* \"@openzeppelin/contracts/token/ERC20/ERC20.sol\":6834:6849  _balances[from] */\n  0xffffffffffffffffffffffffffffffffffffffff\n  and\n  0xffffffffffffffffffffffffffffffffffffffff\n  and\n  dup2\n  mstore\n  0x20\n  add\n  swap1\n  dup2\n  mstore\n  0x20\n  add\n  0x00\n  keccak256\n    /* \"@openzeppelin/contracts/token/ERC20/ERC20.sol\":6834:6871  _balances[from] = fromBalance - value */\n  dup2\n  swap1\n  sstore\n  pop\n    /* \"@openzeppelin/contracts/token/ERC20/ERC20.sol\":6534:6896  {... */\n  pop\n    /* \"@openzeppelin/contracts/token/ERC20/ERC20.sol\":6356:6896  if (from == address(0)) {... */\ntag_47:\n    /* \"@openzeppelin/contracts/token/ERC20/ERC20.sol\":6924:6925  0 */\n  0x00\n    /* \"@openzeppelin/contracts/token/ERC20/ERC20.sol\":6910:6926  to == address(0) */\n  0xffffffffffffffffffffffffffffffffffffffff\n  and\n    /* \"@openzeppelin/contracts/token/ERC20/ERC20.sol\":6910:6912  to */\n  dup3\n    /* \"@openzeppelin/contracts/token/ERC20/ERC20.sol\":6910:6926  to == address(0) */\n  0xffffffffffffffffffffffffffffffffffffffff\n  and\n  sub\n    /* \"@openzeppelin/contracts/token/ERC20/ERC20.sol\":6906:7331  if (to == address(0)) {... */\n  tag_51\n  jumpi\n    /* \"@openzeppelin/contracts/token/ERC20/ERC20.sol\":7089:7094  value */\n  dup1\n    /* \"@openzeppelin/contracts/token/ERC20/ERC20.sol\":7073:7085  _totalSupply */\n  0x02\n  0x00\n    /* \"@openzeppelin/contracts/token/ERC20/ERC20.sol\":7073:7094  _totalSupply -= value */\n  dup3\n  dup3\n  sload\n  sub\n  swap3\n  pop\n  pop\n  dup2\n  swap1\n  sstore\n  pop\n    /* \"@openzeppelin/contracts/token/ERC20/ERC20.sol\":6906:7331  if (to == address(0)) {... */\n  jump(tag_52)\ntag_51:\n    /* \"@openzeppelin/contracts/token/ERC20/ERC20.sol\":7301:7306  value */\n  dup1\n    /* \"@openzeppelin/contracts/token/ERC20/ERC20.sol\":7284:7293  _balances */\n  0x00\n    /* \"@openzeppelin/contracts/token/ERC20/ERC20.sol\":7284:7297  _balances[to] */\n  dup1\n    /* \"@openzeppelin/contracts/token/ERC20/ERC20.sol\":7294:7296  to */\n  dup5\n    /* \"@openzeppelin/contracts/token/ERC20/ERC20.sol\":7284:7297  _balances[to] */\n  0xffffffffffffffffffffffffffffffffffffffff\n  and\n  0xffffffffffffffffffffffffffffffffffffffff\n  and\n  dup2\n  mstore\n  0x20\n  add\n  swap1\n  dup2\n  mstore\n  0x20\n  add\n  0x00\n  keccak256\n  0x00\n    /* \"@openzeppelin/contracts/token/ERC20/ERC20.sol\":7284:7306  _balances[to] += value */\n  dup3\n  dup3\n  sload\n  add\n  swap3\n  pop\n  pop\n  dup2\n  swap1\n  sstore\n  pop\n    /* \"@openzeppelin/contracts/token/ERC20/ERC20.sol\":6906:7331  if (to == address(0)) {... */\ntag_52:\n    /* \"@openzeppelin/contracts/token/ERC20/ERC20.sol\":7361:7363  to */\n  dup2\n    /* \"@openzeppelin/contracts/token/ERC20/ERC20.sol\":7346:7371  Transfer(from, to, value) */\n  0xffffffffffffffffffffffffffffffffffffffff\n  and\n    /* \"@openzeppelin/contracts/token/ERC20/ERC20.sol\":7355:7359  from */\n  dup4\n    /* \"@openzeppelin/contracts/token/ERC20/ERC20.sol\":7346:7371  Transfer(from, to, value) */\n  0xffffffffffffffffffffffffffffffffffffffff\n  and\n  0xddf252ad1be2c89b69c2b068fc378daa952ba7f163c4a11628f55a4df523b3ef\n    /* \"@openzeppelin/contracts/token/ERC20/ERC20.sol\":7365:7370  value */\n  dup4\n    /* \"@openzeppelin/contracts/token/ERC20/ERC20.sol\":7346:7371  Transfer(from, to, value) */\n  mload(0x40)\n  tag_53\n  swap2\n  swap1\n  tag_54\n  jump\t// in\ntag_53:\n  mload(0x40)\n  dup1\n  swap2\n  sub\n  swap1\n  log3\n    /* \"@openzeppelin/contracts/token/ERC20/ERC20.sol\":6271:7378  function _update(address from, address to, uint256 value) internal virtual {... */\n  pop\n  pop\n  pop\n  jump\t// out\n    /* \"@openzeppelin/contracts/access/Ownable.sol\":1796:1958  function _checkOwner() internal view virtual {... */\ntag_38:\n    /* \"@openzeppelin/contracts/access/Ownable.sol\":1866:1878  _msgSender() */\n  tag_56\n    /* \"@openzeppelin/contracts/access/Ownable.sol\":1866:1876  _msgSender */\n  shl(0x20, tag_57)\n    /* \"@openzeppelin/contracts/access/Ownable.sol\":1866:1878  _msgSender() */\n  0x20\n  shr\n  jump\t// in\ntag_56:\n    /* \"@openzeppelin/contracts/access/Ownable.sol\":1855:1878  owner() != _msgSender() */\n  0xffffffffffffffffffffffffffffffffffffffff\n  and\n    /* \"@openzeppelin/contracts/access/Ownable.sol\":1855:1862  owner() */\n  tag_58\n    /* \"@openzeppelin/contracts/access/Ownable.sol\":1855:1860  owner */\n  shl(0x20, tag_59)\n    /* \"@openzeppelin/contracts/access/Ownable.sol\":1855:1862  owner() */\n  0x20\n  shr\n  jump\t// in\ntag_58:\n    /* \"@openzeppelin/contracts/access/Ownable.sol\":1855:1878  owner() != _msgSender() */\n  0xffffffffffffffffffffffffffffffffffffffff\n  and\n  eq\n    /* \"@openzeppelin/contracts/access/Ownable.sol\":1851:1952  if (owner() != _msgSender()) {... */\n  tag_60\n  jumpi\n    /* \"@openzeppelin/contracts/access/Ownable.sol\":1928:1940  _msgSender() */\n  tag_61\n    /* \"@openzeppelin/contracts/access/Ownable.sol\":1928:1938  _msgSender */\n  shl(0x20, tag_57)\n    /* \"@openzeppelin/contracts/access/Ownable.sol\":1928:1940  _msgSender() */\n  0x20\n  shr\n  jump\t// in\ntag_61:\n    /* \"@openzeppelin/contracts/access/Ownable.sol\":1901:1941  OwnableUnauthorizedAccount(_msgSender()) */\n  mload(0x40)\n  0x118cdaa700000000000000000000000000000000000000000000000000000000\n  dup2\n  mstore\n  0x04\n  add\n  tag_62\n  swap2\n  swap1\n  tag_16\n  jump\t// in\ntag_62:\n  mload(0x40)\n  dup1\n  swap2\n  sub\n  swap1\n  revert\n    /* \"@openzeppelin/contracts/access/Ownable.sol\":1851:1952  if (owner() != _msgSender()) {... */\ntag_60:\n    /* \"@openzeppelin/contracts/access/Ownable.sol\":1796:1958  function _checkOwner() internal view virtual {... */\n  jump\t// out\n    /* \"@openzeppelin/contracts/utils/Context.sol\":656:752  function _msgSender() internal view virtual returns (address) {... */\ntag_57:\n    /* \"@openzeppelin/contracts/utils/Context.sol\":709:716  address */\n  0x00\n    /* \"@openzeppelin/contracts/utils/Context.sol\":735:745  msg.sender */\n  caller\n    /* \"@openzeppelin/contracts/utils/Context.sol\":728:745  return msg.sender */\n  swap1\n  pop\n    /* \"@openzeppelin/contracts/utils/Context.sol\":656:752  function _msgSender() internal view virtual returns (address) {... */\n  swap1\n  jump\t// out\n    /* \"@openzeppelin/contracts/access/Ownable.sol\":1638:1723  function owner() public view virtual returns (address) {... */\ntag_59:\n    /* \"@openzeppelin/contracts/access/Ownable.sol\":1684:1691  address */\n  0x00\n    /* \"@openzeppelin/contracts/access/Ownable.sol\":1710:1716  _owner */\n  0x05\n  0x00\n  swap1\n  sload\n  swap1\n  0x0100\n  exp\n  swap1\n  div\n  0xffffffffffffffffffffffffffffffffffffffff\n  and\n    /* \"@openzeppelin/contracts/access/Ownable.sol\":1703:1716  return _owner */\n  swap1\n  pop\n    /* \"@openzeppelin/contracts/access/Ownable.sol\":1638:1723  function owner() public view virtual returns (address) {... */\n  swap1\n  jump\t// out\n    /* \"#utility.yul\":88:205   */\ntag_66:\n    /* \"#utility.yul\":197:198   */\n  0x00\n    /* \"#utility.yul\":194:195   */\n  dup1\n    /* \"#utility.yul\":187:199   */\n  revert\n    /* \"#utility.yul\":334:460   */\ntag_68:\n    /* \"#utility.yul\":371:378   */\n  0x00\n    /* \"#utility.yul\":411:453   */\n  0xffffffffffffffffffffffffffffffffffffffff\n    /* \"#utility.yul\":404:409   */\n  dup3\n    /* \"#utility.yul\":400:454   */\n  and\n    /* \"#utility.yul\":389:454   */\n  swap1\n  pop\n    /* \"#utility.yul\":334:460   */\n  swap2\n  swap1\n  pop\n  jump\t// out\n    /* \"#utility.yul\":466:570   */\ntag_69:\n    /* \"#utility.yul\":511:518   */\n  0x00\n    /* \"#utility.yul\":540:564   */\n  tag_104\n    /* \"#utility.yul\":558:563   */\n  dup3\n    /* \"#utility.yul\":540:564   */\n  tag_68\n  jump\t// in\ntag_104:\n    /* \"#utility.yul\":529:564   */\n  swap1\n  pop\n    /* \"#utility.yul\":466:570   */\n  swap2\n  swap1\n  pop\n  jump\t// out\n    /* \"#utility.yul\":576:714   */\ntag_70:\n    /* \"#utility.yul\":657:689   */\n  tag_106\n    /* \"#utility.yul\":683:688   */\n  dup2\n    /* \"#utility.yul\":657:689   */\n  tag_69\n  jump\t// in\ntag_106:\n    /* \"#utility.yul\":650:655   */\n  dup2\n    /* \"#utility.yul\":647:690   */\n  eq\n    /* \"#utility.yul\":637:708   */\n  tag_107\n  jumpi\n    /* \"#utility.yul\":704:705   */\n  0x00\n    /* \"#utility.yul\":701:702   */\n  dup1\n    /* \"#utility.yul\":694:706   */\n  revert\n    /* \"#utility.yul\":637:708   */\ntag_107:\n    /* \"#utility.yul\":576:714   */\n  pop\n  jump\t// out\n    /* \"#utility.yul\":720:879   */\ntag_71:\n    /* \"#utility.yul\":785:790   */\n  0x00\n    /* \"#utility.yul\":816:822   */\n  dup2\n    /* \"#utility.yul\":810:823   */\n  mload\n    /* \"#utility.yul\":801:823   */\n  swap1\n  pop\n    /* \"#utility.yul\":832:873   */\n  tag_109\n    /* \"#utility.yul\":867:872   */\n  dup2\n    /* \"#utility.yul\":832:873   */\n  tag_70\n  jump\t// in\ntag_109:\n    /* \"#utility.yul\":720:879   */\n  swap3\n  swap2\n  pop\n  pop\n  jump\t// out\n    /* \"#utility.yul\":885:981   */\ntag_72:\n    /* \"#utility.yul\":922:929   */\n  0x00\n    /* \"#utility.yul\":951:975   */\n  tag_111\n    /* \"#utility.yul\":969:974   */\n  dup3\n    /* \"#utility.yul\":951:975   */\n  tag_68\n  jump\t// in\ntag_111:\n    /* \"#utility.yul\":940:975   */\n  swap1\n  pop\n    /* \"#utility.yul\":885:981   */\n  swap2\n  swap1\n  pop\n  jump\t// out\n    /* \"#utility.yul\":987:1109   */\ntag_73:\n    /* \"#utility.yul\":1060:1084   */\n  tag_113\n    /* \"#utility.yul\":1078:1083   */\n  dup2\n    /* \"#utility.yul\":1060:1084   */\n  tag_72\n  jump\t// in\ntag_113:\n    /* \"#utility.yul\":1053:1058   */\n  dup2\n    /* \"#utility.yul\":1050:1085   */\n  eq\n    /* \"#utility.yul\":1040:1103   */\n  tag_114\n  jumpi\n    /* \"#utility.yul\":1099:1100   */\n  0x00\n    /* \"#utility.yul\":1096:1097   */\n  dup1\n    /* \"#utility.yul\":1089:1101   */\n  revert\n    /* \"#utility.yul\":1040:1103   */\ntag_114:\n    /* \"#utility.yul\":987:1109   */\n  pop\n  jump\t// out\n    /* \"#utility.yul\":1115:1258   */\ntag_74:\n    /* \"#utility.yul\":1172:1177   */\n  0x00\n    /* \"#utility.yul\":1203:1209   */\n  dup2\n    /* \"#utility.yul\":1197:1210   */\n  mload\n    /* \"#utility.yul\":1188:1210   */\n  swap1\n  pop\n    /* \"#utility.yul\":1219:1252   */\n  tag_116\n    /* \"#utility.yul\":1246:1251   */\n  dup2\n    /* \"#utility.yul\":1219:1252   */\n  tag_73\n  jump\t// in\ntag_116:\n    /* \"#utility.yul\":1115:1258   */\n  swap3\n  swap2\n  pop\n  pop\n  jump\t// out\n    /* \"#utility.yul\":1264:1787   */\ntag_3:\n    /* \"#utility.yul\":1351:1357   */\n  0x00\n    /* \"#utility.yul\":1359:1365   */\n  dup1\n    /* \"#utility.yul\":1408:1410   */\n  0x40\n    /* \"#utility.yul\":1396:1405   */\n  dup4\n    /* \"#utility.yul\":1387:1394   */\n  dup6\n    /* \"#utility.yul\":1383:1406   */\n  sub\n    /* \"#utility.yul\":1379:1411   */\n  slt\n    /* \"#utility.yul\":1376:1495   */\n  iszero\n  tag_118\n  jumpi\n    /* \"#utility.yul\":1414:1493   */\n  tag_119\n  tag_66\n  jump\t// in\ntag_119:\n    /* \"#utility.yul\":1376:1495   */\ntag_118:\n    /* \"#utility.yul\":1534:1535   */\n  0x00\n    /* \"#utility.yul\":1559:1631   */\n  tag_120\n    /* \"#utility.yul\":1623:1630   */\n  dup6\n    /* \"#utility.yul\":1614:1620   */\n  dup3\n    /* \"#utility.yul\":1603:1612   */\n  dup7\n    /* \"#utility.yul\":1599:1621   */\n  add\n    /* \"#utility.yul\":1559:1631   */\n  tag_71\n  jump\t// in\ntag_120:\n    /* \"#utility.yul\":1549:1631   */\n  swap3\n  pop\n    /* \"#utility.yul\":1505:1641   */\n  pop\n    /* \"#utility.yul\":1680:1682   */\n  0x20\n    /* \"#utility.yul\":1706:1770   */\n  tag_121\n    /* \"#utility.yul\":1762:1769   */\n  dup6\n    /* \"#utility.yul\":1753:1759   */\n  dup3\n    /* \"#utility.yul\":1742:1751   */\n  dup7\n    /* \"#utility.yul\":1738:1760   */\n  add\n    /* \"#utility.yul\":1706:1770   */\n  tag_74\n  jump\t// in\ntag_121:\n    /* \"#utility.yul\":1696:1770   */\n  swap2\n  pop\n    /* \"#utility.yul\":1651:1780   */\n  pop\n    /* \"#utility.yul\":1264:1787   */\n  swap3\n  pop\n  swap3\n  swap1\n  pop\n  jump\t// out\n    /* \"#utility.yul\":1793:1892   */\ntag_75:\n    /* \"#utility.yul\":1845:1851   */\n  0x00\n    /* \"#utility.yul\":1879:1884   */\n  dup2\n    /* \"#utility.yul\":1873:1885   */\n  mload\n    /* \"#utility.yul\":1863:1885   */\n  swap1\n  pop\n    /* \"#utility.yul\":1793:1892   */\n  swap2\n  swap1\n  pop\n  jump\t// out\n    /* \"#utility.yul\":1898:2078   */\ntag_76:\n    /* \"#utility.yul\":1946:2023   */\n  0x4e487b7100000000000000000000000000000000000000000000000000000000\n    /* \"#utility.yul\":1943:1944   */\n  0x00\n    /* \"#utility.yul\":1936:2024   */\n  mstore\n    /* \"#utility.yul\":2043:2047   */\n  0x41\n    /* \"#utility.yul\":2040:2041   */\n  0x04\n    /* \"#utility.yul\":2033:2048   */\n  mstore\n    /* \"#utility.yul\":2067:2071   */\n  0x24\n    /* \"#utility.yul\":2064:2065   */\n  0x00\n    /* \"#utility.yul\":2057:2072   */\n  revert\n    /* \"#utility.yul\":2084:2264   */\ntag_77:\n    /* \"#utility.yul\":2132:2209   */\n  0x4e487b7100000000000000000000000000000000000000000000000000000000\n    /* \"#utility.yul\":2129:2130   */\n  0x00\n    /* \"#utility.yul\":2122:2210   */\n  mstore\n    /* \"#utility.yul\":2229:2233   */\n  0x22\n    /* \"#utility.yul\":2226:2227   */\n  0x04\n    /* \"#utility.yul\":2219:2234   */\n  mstore\n    /* \"#utility.yul\":2253:2257   */\n  0x24\n    /* \"#utility.yul\":2250:2251   */\n  0x00\n    /* \"#utility.yul\":2243:2258   */\n  revert\n    /* \"#utility.yul\":2270:2590   */\ntag_78:\n    /* \"#utility.yul\":2314:2320   */\n  0x00\n    /* \"#utility.yul\":2351:2352   */\n  0x02\n    /* \"#utility.yul\":2345:2349   */\n  dup3\n    /* \"#utility.yul\":2341:2353   */\n  div\n    /* \"#utility.yul\":2331:2353   */\n  swap1\n  pop\n    /* \"#utility.yul\":2398:2399   */\n  0x01\n    /* \"#utility.yul\":2392:2396   */\n  dup3\n    /* \"#utility.yul\":2388:2400   */\n  and\n    /* \"#utility.yul\":2419:2437   */\n  dup1\n    /* \"#utility.yul\":2409:2490   */\n  tag_126\n  jumpi\n    /* \"#utility.yul\":2475:2479   */\n  0x7f\n    /* \"#utility.yul\":2467:2473   */\n  dup3\n    /* \"#utility.yul\":2463:2480   */\n  and\n    /* \"#utility.yul\":2453:2480   */\n  swap2\n  pop\n    /* \"#utility.yul\":2409:2490   */\ntag_126:\n    /* \"#utility.yul\":2537:2539   */\n  0x20\n    /* \"#utility.yul\":2529:2535   */\n  dup3\n    /* \"#utility.yul\":2526:2540   */\n  lt\n    /* \"#utility.yul\":2506:2524   */\n  dup2\n    /* \"#utility.yul\":2503:2541   */\n  sub\n    /* \"#utility.yul\":2500:2584   */\n  tag_127\n  jumpi\n    /* \"#utility.yul\":2556:2574   */\n  tag_128\n  tag_77\n  jump\t// in\ntag_128:\n    /* \"#utility.yul\":2500:2584   */\ntag_127:\n    /* \"#utility.yul\":2321:2590   */\n  pop\n    /* \"#utility.yul\":2270:2590   */\n  swap2\n  swap1\n  pop\n  jump\t// out\n    /* \"#utility.yul\":2596:2737   */\ntag_79:\n    /* \"#utility.yul\":2645:2649   */\n  0x00\n    /* \"#utility.yul\":2668:2671   */\n  dup2\n    /* \"#utility.yul\":2660:2671   */\n  swap1\n  pop\n    /* \"#utility.yul\":2691:2694   */\n  dup2\n    /* \"#utility.yul\":2688:2689   */\n  0x00\n    /* \"#utility.yul\":2681:2695   */\n  mstore\n    /* \"#utility.yul\":2725:2729   */\n  0x20\n    /* \"#utility.yul\":2722:2723   */\n  0x00\n    /* \"#utility.yul\":2712:2730   */\n  keccak256\n    /* \"#utility.yul\":2704:2730   */\n  swap1\n  pop\n    /* \"#utility.yul\":2596:2737   */\n  swap2\n  swap1\n  pop\n  jump\t// out\n    /* \"#utility.yul\":2743:2836   */\ntag_80:\n    /* \"#utility.yul\":2780:2786   */\n  0x00\n    /* \"#utility.yul\":2827:2829   */\n  0x20\n    /* \"#utility.yul\":2822:2824   */\n  0x1f\n    /* \"#utility.yul\":2815:2820   */\n  dup4\n    /* \"#utility.yul\":2811:2825   */\n  add\n    /* \"#utility.yul\":2807:2830   */\n  div\n    /* \"#utility.yul\":2797:2830   */\n  swap1\n  pop\n    /* \"#utility.yul\":2743:2836   */\n  swap2\n  swap1\n  pop\n  jump\t// out\n    /* \"#utility.yul\":2842:2949   */\ntag_81:\n    /* \"#utility.yul\":2886:2894   */\n  0x00\n    /* \"#utility.yul\":2936:2941   */\n  dup3\n    /* \"#utility.yul\":2930:2934   */\n  dup3\n    /* \"#utility.yul\":2926:2942   */\n  shl\n    /* \"#utility.yul\":2905:2942   */\n  swap1\n  pop\n    /* \"#utility.yul\":2842:2949   */\n  swap3\n  swap2\n  pop\n  pop\n  jump\t// out\n    /* \"#utility.yul\":2955:3348   */\ntag_82:\n    /* \"#utility.yul\":3024:3030   */\n  0x00\n    /* \"#utility.yul\":3074:3075   */\n  0x08\n    /* \"#utility.yul\":3062:3072   */\n  dup4\n    /* \"#utility.yul\":3058:3076   */\n  mul\n    /* \"#utility.yul\":3097:3194   */\n  tag_133\n    /* \"#utility.yul\":3127:3193   */\n  0xffffffffffffffffffffffffffffffffffffffffffffffffffffffffffffffff\n    /* \"#utility.yul\":3116:3125   */\n  dup3\n    /* \"#utility.yul\":3097:3194   */\n  tag_81\n  jump\t// in\ntag_133:\n    /* \"#utility.yul\":3215:3254   */\n  tag_134\n    /* \"#utility.yul\":3245:3253   */\n  dup7\n    /* \"#utility.yul\":3234:3243   */\n  dup4\n    /* \"#utility.yul\":3215:3254   */\n  tag_81\n  jump\t// in\ntag_134:\n    /* \"#utility.yul\":3203:3254   */\n  swap6\n  pop\n    /* \"#utility.yul\":3287:3291   */\n  dup1\n    /* \"#utility.yul\":3283:3292   */\n  not\n    /* \"#utility.yul\":3276:3281   */\n  dup5\n    /* \"#utility.yul\":3272:3293   */\n  and\n    /* \"#utility.yul\":3263:3293   */\n  swap4\n  pop\n    /* \"#utility.yul\":3336:3340   */\n  dup1\n    /* \"#utility.yul\":3326:3334   */\n  dup7\n    /* \"#utility.yul\":3322:3341   */\n  and\n    /* \"#utility.yul\":3315:3320   */\n  dup5\n    /* \"#utility.yul\":3312:3342   */\n  or\n    /* \"#utility.yul\":3302:3342   */\n  swap3\n  pop\n    /* \"#utility.yul\":3031:3348   */\n  pop\n  pop\n    /* \"#utility.yul\":2955:3348   */\n  swap4\n  swap3\n  pop\n  pop\n  pop\n  jump\t// out\n    /* \"#utility.yul\":3354:3431   */\ntag_83:\n    /* \"#utility.yul\":3391:3398   */\n  0x00\n    /* \"#utility.yul\":3420:3425   */\n  dup2\n    /* \"#utility.yul\":3409:3425   */\n  swap1\n  pop\n    /* \"#utility.yul\":3354:3431   */\n  swap2\n  swap1\n  pop\n  jump\t// out\n    /* \"#utility.yul\":3437:3497   */\ntag_84:\n    /* \"#utility.yul\":3465:3468   */\n  0x00\n    /* \"#utility.yul\":3486:3491   */\n  dup2\n    /* \"#utility.yul\":3479:3491   */\n  swap1\n  pop\n    /* \"#utility.yul\":3437:3497   */\n  swap2\n  swap1\n  pop\n  jump\t// out\n    /* \"#utility.yul\":3503:3645   */\ntag_85:\n    /* \"#utility.yul\":3553:3562   */\n  0x00\n    /* \"#utility.yul\":3586:3639   */\n  tag_138\n    /* \"#utility.yul\":3604:3638   */\n  tag_139\n    /* \"#utility.yul\":3613:3637   */\n  tag_140\n    /* \"#utility.yul\":3631:3636   */\n  dup5\n    /* \"#utility.yul\":3613:3637   */\n  tag_83\n  jump\t// in\ntag_140:\n    /* \"#utility.yul\":3604:3638   */\n  tag_84\n  jump\t// in\ntag_139:\n    /* \"#utility.yul\":3586:3639   */\n  tag_83\n  jump\t// in\ntag_138:\n    /* \"#utility.yul\":3573:3639   */\n  swap1\n  pop\n    /* \"#utility.yul\":3503:3645   */\n  swap2\n  swap1\n  pop\n  jump\t// out\n    /* \"#utility.yul\":3651:3726   */\ntag_86:\n    /* \"#utility.yul\":3694:3697   */\n  0x00\n    /* \"#utility.yul\":3715:3720   */\n  dup2\n    /* \"#utility.yul\":3708:3720   */\n  swap1\n  pop\n    /* \"#utility.yul\":3651:3726   */\n  swap2\n  swap1\n  pop\n  jump\t// out\n    /* \"#utility.yul\":3732:4001   */\ntag_87:\n    /* \"#utility.yul\":3842:3881   */\n  tag_143\n    /* \"#utility.yul\":3873:3880   */\n  dup4\n    /* \"#utility.yul\":3842:3881   */\n  tag_85\n  jump\t// in\ntag_143:\n    /* \"#utility.yul\":3903:3994   */\n  tag_144\n    /* \"#utility.yul\":3952:3993   */\n  tag_145\n    /* \"#utility.yul\":3976:3992   */\n  dup3\n    /* \"#utility.yul\":3952:3993   */\n  tag_86\n  jump\t// in\ntag_145:\n    /* \"#utility.yul\":3944:3950   */\n  dup5\n    /* \"#utility.yul\":3937:3941   */\n  dup5\n    /* \"#utility.yul\":3931:3942   */\n  sload\n    /* \"#utility.yul\":3903:3994   */\n  tag_82\n  jump\t// in\ntag_144:\n    /* \"#utility.yul\":3897:3901   */\n  dup3\n    /* \"#utility.yul\":3890:3995   */\n  sstore\n    /* \"#utility.yul\":3808:4001   */\n  pop\n    /* \"#utility.yul\":3732:4001   */\n  pop\n  pop\n  pop\n  jump\t// out\n    /* \"#utility.yul\":4007:4080   */\ntag_88:\n    /* \"#utility.yul\":4052:4055   */\n  0x00\n    /* \"#utility.yul\":4007:4080   */\n  swap1\n  jump\t// out\n    /* \"#utility.yul\":4086:4275   */\ntag_89:\n    /* \"#utility.yul\":4163:4195   */\n  tag_148\n  tag_88\n  jump\t// in\ntag_148:\n    /* \"#utility.yul\":4204:4269   */\n  tag_149\n    /* \"#utility.yul\":4262:4268   */\n  dup2\n    /* \"#utility.yul\":4254:4260   */\n  dup5\n    /* \"#utility.yul\":4248:4252   */\n  dup5\n    /* \"#utility.yul\":4204:4269   */\n  tag_87\n  jump\t// in\ntag_149:\n    /* \"#utility.yul\":4139:4275   */\n  pop\n    /* \"#utility.yul\":4086:4275   */\n  pop\n  pop\n  jump\t// out\n    /* \"#utility.yul\":4281:4467   */\ntag_90:\n    /* \"#utility.yul\":4341:4461   */\ntag_151:\n    /* \"#utility.yul\":4358:4361   */\n  dup2\n    /* \"#utility.yul\":4351:4356   */\n  dup2\n    /* \"#utility.yul\":4348:4362   */\n  lt\n    /* \"#utility.yul\":4341:4461   */\n  iszero\n  tag_153\n  jumpi\n    /* \"#utility.yul\":4412:4451   */\n  tag_154\n    /* \"#utility.yul\":4449:4450   */\n  0x00\n    /* \"#utility.yul\":4442:4447   */\n  dup3\n    /* \"#utility.yul\":4412:4451   */\n  tag_89\n  jump\t// in\ntag_154:\n    /* \"#utility.yul\":4385:4386   */\n  0x01\n    /* \"#utility.yul\":4378:4383   */\n  dup2\n    /* \"#utility.yul\":4374:4387   */\n  add\n    /* \"#utility.yul\":4365:4387   */\n  swap1\n  pop\n    /* \"#utility.yul\":4341:4461   */\n  jump(tag_151)\ntag_153:\n    /* \"#utility.yul\":4281:4467   */\n  pop\n  pop\n  jump\t// out\n    /* \"#utility.yul\":4473:5016   */\ntag_91:\n    /* \"#utility.yul\":4574:4576   */\n  0x1f\n    /* \"#utility.yul\":4569:4572   */\n  dup3\n    /* \"#utility.yul\":4566:4577   */\n  gt\n    /* \"#utility.yul\":4563:5009   */\n  iszero\n  tag_156\n  jumpi\n    /* \"#utility.yul\":4608:4646   */\n  tag_157\n    /* \"#utility.yul\":4640:4645   */\n  dup2\n    /* \"#utility.yul\":4608:4646   */\n  tag_79\n  jump\t// in\ntag_157:\n    /* \"#utility.yul\":4692:4721   */\n  tag_158\n    /* \"#utility.yul\":4710:4720   */\n  dup5\n    /* \"#utility.yul\":4692:4721   */\n  tag_80\n  jump\t// in\ntag_158:\n    /* \"#utility.yul\":4682:4690   */\n  dup2\n    /* \"#utility.yul\":4678:4722   */\n  add\n    /* \"#utility.yul\":4875:4877   */\n  0x20\n    /* \"#utility.yul\":4863:4873   */\n  dup6\n    /* \"#utility.yul\":4860:4878   */\n  lt\n    /* \"#utility.yul\":4857:4906   */\n  iszero\n  tag_159\n  jumpi\n    /* \"#utility.yul\":4896:4904   */\n  dup2\n    /* \"#utility.yul\":4881:4904   */\n  swap1\n  pop\n    /* \"#utility.yul\":4857:4906   */\ntag_159:\n    /* \"#utility.yul\":4919:4999   */\n  tag_160\n    /* \"#utility.yul\":4975:4997   */\n  tag_161\n    /* \"#utility.yul\":4993:4996   */\n  dup6\n    /* \"#utility.yul\":4975:4997   */\n  tag_80\n  jump\t// in\ntag_161:\n    /* \"#utility.yul\":4965:4973   */\n  dup4\n    /* \"#utility.yul\":4961:4998   */\n  add\n    /* \"#utility.yul\":4948:4959   */\n  dup3\n    /* \"#utility.yul\":4919:4999   */\n  tag_90\n  jump\t// in\ntag_160:\n    /* \"#utility.yul\":4578:5009   */\n  pop\n  pop\n    /* \"#utility.yul\":4563:5009   */\ntag_156:\n    /* \"#utility.yul\":4473:5016   */\n  pop\n  pop\n  pop\n  jump\t// out\n    /* \"#utility.yul\":5022:5139   */\ntag_92:\n    /* \"#utility.yul\":5076:5084   */\n  0x00\n    /* \"#utility.yul\":5126:5131   */\n  dup3\n    /* \"#utility.yul\":5120:5124   */\n  dup3\n    /* \"#utility.yul\":5116:5132   */\n  shr\n    /* \"#utility.yul\":5095:5132   */\n  swap1\n  pop\n    /* \"#utility.yul\":5022:5139   */\n  swap3\n  swap2\n  pop\n  pop\n  jump\t// out\n    /* \"#utility.yul\":5145:5314   */\ntag_93:\n    /* \"#utility.yul\":5189:5195   */\n  0x00\n    /* \"#utility.yul\":5222:5273   */\n  tag_164\n    /* \"#utility.yul\":5270:5271   */\n  0x00\n    /* \"#utility.yul\":5266:5272   */\n  not\n    /* \"#utility.yul\":5258:5263   */\n  dup5\n    /* \"#utility.yul\":5255:5256   */\n  0x08\n    /* \"#utility.yul\":5251:5264   */\n  mul\n    /* \"#utility.yul\":5222:5273   */\n  tag_92\n  jump\t// in\ntag_164:\n    /* \"#utility.yul\":5218:5274   */\n  not\n    /* \"#utility.yul\":5303:5307   */\n  dup1\n    /* \"#utility.yul\":5297:5301   */\n  dup4\n    /* \"#utility.yul\":5293:5308   */\n  and\n    /* \"#utility.yul\":5283:5308   */\n  swap2\n  pop\n    /* \"#utility.yul\":5196:5314   */\n  pop\n    /* \"#utility.yul\":5145:5314   */\n  swap3\n  swap2\n  pop\n  pop\n  jump\t// out\n    /* \"#utility.yul\":5319:5614   */\ntag_94:\n    /* \"#utility.yul\":5395:5399   */\n  0x00\n    /* \"#utility.yul\":5541:5570   */\n  tag_166\n    /* \"#utility.yul\":5566:5569   */\n  dup4\n    /* \"#utility.yul\":5560:5564   */\n  dup4\n    /* \"#utility.yul\":5541:5570   */\n  tag_93\n  jump\t// in\ntag_166:\n    /* \"#utility.yul\":5533:5570   */\n  swap2\n  pop\n    /* \"#utility.yul\":5603:5606   */\n  dup3\n    /* \"#utility.yul\":5600:5601   */\n  0x02\n    /* \"#utility.yul\":5596:5607   */\n  mul\n    /* \"#utility.yul\":5590:5594   */\n  dup3\n    /* \"#utility.yul\":5587:5608   */\n  or\n    /* \"#utility.yul\":5579:5608   */\n  swap1\n  pop\n    /* \"#utility.yul\":5319:5614   */\n  swap3\n  swap2\n  pop\n  pop\n  jump\t// out\n    /* \"#utility.yul\":5619:7014   */\ntag_11:\n    /* \"#utility.yul\":5736:5773   */\n  tag_168\n    /* \"#utility.yul\":5769:5772   */\n  dup3\n    /* \"#utility.yul\":5736:5773   */\n  tag_75\n  jump\t// in\ntag_168:\n    /* \"#utility.yul\":5838:5856   */\n  0xffffffffffffffff\n    /* \"#utility.yul\":5830:5836   */\n  dup2\n    /* \"#utility.yul\":5827:5857   */\n  gt\n    /* \"#utility.yul\":5824:5880   */\n  iszero\n  tag_169\n  jumpi\n    /* \"#utility.yul\":5860:5878   */\n  tag_170\n  tag_76\n  jump\t// in\ntag_170:\n    /* \"#utility.yul\":5824:5880   */\ntag_169:\n    /* \"#utility.yul\":5904:5942   */\n  tag_171\n    /* \"#utility.yul\":5936:5940   */\n  dup3\n    /* \"#utility.yul\":5930:5941   */\n  sload\n    /* \"#utility.yul\":5904:5942   */\n  tag_78\n  jump\t// in\ntag_171:\n    /* \"#utility.yul\":5989:6056   */\n  tag_172\n    /* \"#utility.yul\":6049:6055   */\n  dup3\n    /* \"#utility.yul\":6041:6047   */\n  dup3\n    /* \"#utility.yul\":6035:6039   */\n  dup6\n    /* \"#utility.yul\":5989:6056   */\n  tag_91\n  jump\t// in\ntag_172:\n    /* \"#utility.yul\":6083:6084   */\n  0x00\n    /* \"#utility.yul\":6107:6111   */\n  0x20\n    /* \"#utility.yul\":6094:6111   */\n  swap1\n  pop\n    /* \"#utility.yul\":6139:6141   */\n  0x1f\n    /* \"#utility.yul\":6131:6137   */\n  dup4\n    /* \"#utility.yul\":6128:6142   */\n  gt\n    /* \"#utility.yul\":6156:6157   */\n  0x01\n    /* \"#utility.yul\":6151:6769   */\n  dup2\n  eq\n  tag_174\n  jumpi\n    /* \"#utility.yul\":6813:6814   */\n  0x00\n    /* \"#utility.yul\":6830:6836   */\n  dup5\n    /* \"#utility.yul\":6827:6904   */\n  iszero\n  tag_175\n  jumpi\n    /* \"#utility.yul\":6879:6888   */\n  dup3\n    /* \"#utility.yul\":6874:6877   */\n  dup8\n    /* \"#utility.yul\":6870:6889   */\n  add\n    /* \"#utility.yul\":6864:6890   */\n  mload\n    /* \"#utility.yul\":6855:6890   */\n  swap1\n  pop\n    /* \"#utility.yul\":6827:6904   */\ntag_175:\n    /* \"#utility.yul\":6930:6997   */\n  tag_176\n    /* \"#utility.yul\":6990:6996   */\n  dup6\n    /* \"#utility.yul\":6983:6988   */\n  dup3\n    /* \"#utility.yul\":6930:6997   */\n  tag_94\n  jump\t// in\ntag_176:\n    /* \"#utility.yul\":6924:6928   */\n  dup7\n    /* \"#utility.yul\":6917:6998   */\n  sstore\n    /* \"#utility.yul\":6786:7008   */\n  pop\n    /* \"#utility.yul\":6121:7008   */\n  jump(tag_173)\n    /* \"#utility.yul\":6151:6769   */\ntag_174:\n    /* \"#utility.yul\":6203:6207   */\n  0x1f\n    /* \"#utility.yul\":6199:6208   */\n  not\n    /* \"#utility.yul\":6191:6197   */\n  dup5\n    /* \"#utility.yul\":6187:6209   */\n  and\n    /* \"#utility.yul\":6237:6274   */\n  tag_177\n    /* \"#utility.yul\":6269:6273   */\n  dup7\n    /* \"#utility.yul\":6237:6274   */\n  tag_79\n  jump\t// in\ntag_177:\n    /* \"#utility.yul\":6296:6297   */\n  0x00\n    /* \"#utility.yul\":6310:6518   */\ntag_178:\n    /* \"#utility.yul\":6324:6331   */\n  dup3\n    /* \"#utility.yul\":6321:6322   */\n  dup2\n    /* \"#utility.yul\":6318:6332   */\n  lt\n    /* \"#utility.yul\":6310:6518   */\n  iszero\n  tag_180\n  jumpi\n    /* \"#utility.yul\":6403:6412   */\n  dup5\n    /* \"#utility.yul\":6398:6401   */\n  dup10\n    /* \"#utility.yul\":6394:6413   */\n  add\n    /* \"#utility.yul\":6388:6414   */\n  mload\n    /* \"#utility.yul\":6380:6386   */\n  dup3\n    /* \"#utility.yul\":6373:6415   */\n  sstore\n    /* \"#utility.yul\":6454:6455   */\n  0x01\n    /* \"#utility.yul\":6446:6452   */\n  dup3\n    /* \"#utility.yul\":6442:6456   */\n  add\n    /* \"#utility.yul\":6432:6456   */\n  swap2\n  pop\n    /* \"#utility.yul\":6501:6503   */\n  0x20\n    /* \"#utility.yul\":6490:6499   */\n  dup6\n    /* \"#utility.yul\":6486:6504   */\n  add\n    /* \"#utility.yul\":6473:6504   */\n  swap5\n  pop\n    /* \"#utility.yul\":6347:6351   */\n  0x20\n    /* \"#utility.yul\":6344:6345   */\n  dup2\n    /* \"#utility.yul\":6340:6352   */\n  add\n    /* \"#utility.yul\":6335:6352   */\n  swap1\n  pop\n    /* \"#utility.yul\":6310:6518   */\n  jump(tag_178)\ntag_180:\n    /* \"#utility.yul\":6546:6552   */\n  dup7\n    /* \"#utility.yul\":6537:6544   */\n  dup4\n    /* \"#utility.yul\":6534:6553   */\n  lt\n    /* \"#utility.yul\":6531:6710   */\n  iszero\n  tag_181\n  jumpi\n    /* \"#utility.yul\":6604:6613   */\n  dup5\n    /* \"#utility.yul\":6599:6602   */\n  dup10\n    /* \"#utility.yul\":6595:6614   */\n  add\n    /* \"#utility.yul\":6589:6615   */\n  mload\n    /* \"#utility.yul\":6647:6695   */\n  tag_182\n    /* \"#utility.yul\":6689:6693   */\n  0x1f\n    /* \"#utility.yul\":6681:6687   */\n  dup10\n    /* \"#utility.yul\":6677:6694   */\n  and\n    /* \"#utility.yul\":6666:6675   */\n  dup3\n    /* \"#utility.yul\":6647:6695   */\n  tag_93\n  jump\t// in\ntag_182:\n    /* \"#utility.yul\":6639:6645   */\n  dup4\n    /* \"#utility.yul\":6632:6696   */\n  sstore\n    /* \"#utility.yul\":6554:6710   */\n  pop\n    /* \"#utility.yul\":6531:6710   */\ntag_181:\n    /* \"#utility.yul\":6756:6757   */\n  0x01\n    /* \"#utility.yul\":6752:6753   */\n  0x02\n    /* \"#utility.yul\":6744:6750   */\n  dup9\n    /* \"#utility.yul\":6740:6754   */\n  mul\n    /* \"#utility.yul\":6736:6758   */\n  add\n    /* \"#utility.yul\":6730:6734   */\n  dup9\n    /* \"#utility.yul\":6723:6759   */\n  sstore\n    /* \"#utility.yul\":6158:6769   */\n  pop\n  pop\n  pop\n    /* \"#utility.yul\":6121:7008   */\ntag_173:\n  pop\n    /* \"#utility.yul\":5711:7014   */\n  pop\n  pop\n  pop\n    /* \"#utility.yul\":5619:7014   */\n  pop\n  pop\n  jump\t// out\n    /* \"#utility.yul\":7020:7138   */\ntag_95:\n    /* \"#utility.yul\":7107:7131   */\n  tag_184\n    /* \"#utility.yul\":7125:7130   */\n  dup2\n    /* \"#utility.yul\":7107:7131   */\n  tag_72\n  jump\t// in\ntag_184:\n    /* \"#utility.yul\":7102:7105   */\n  dup3\n    /* \"#utility.yul\":7095:7132   */\n  mstore\n    /* \"#utility.yul\":7020:7138   */\n  pop\n  pop\n  jump\t// out\n    /* \"#utility.yul\":7144:7366   */\ntag_16:\n    /* \"#utility.yul\":7237:7241   */\n  0x00\n    /* \"#utility.yul\":7275:7277   */\n  0x20\n    /* \"#utility.yul\":7264:7273   */\n  dup3\n    /* \"#utility.yul\":7260:7278   */\n  add\n    /* \"#utility.yul\":7252:7278   */\n  swap1\n  pop\n    /* \"#utility.yul\":7288:7359   */\n  tag_186\n    /* \"#utility.yul\":7356:7357   */\n  0x00\n    /* \"#utility.yul\":7345:7354   */\n  dup4\n    /* \"#utility.yul\":7341:7358   */\n  add\n    /* \"#utility.yul\":7332:7338   */\n  dup5\n    /* \"#utility.yul\":7288:7359   */\n  tag_95\n  jump\t// in\ntag_186:\n    /* \"#utility.yul\":7144:7366   */\n  swap3\n  swap2\n  pop\n  pop\n  jump\t// out\n    /* \"#utility.yul\":7372:7552   */\ntag_96:\n    /* \"#utility.yul\":7420:7497   */\n  0x4e487b7100000000000000000000000000000000000000000000000000000000\n    /* \"#utility.yul\":7417:7418   */\n  0x00\n    /* \"#utility.yul\":7410:7498   */\n  mstore\n    /* \"#utility.yul\":7517:7521   */\n  0x11\n    /* \"#utility.yul\":7514:7515   */\n  0x04\n    /* \"#utility.yul\":7507:7522   */\n  mstore\n    /* \"#utility.yul\":7541:7545   */\n  0x24\n    /* \"#utility.yul\":7538:7539   */\n  0x00\n    /* \"#utility.yul\":7531:7546   */\n  revert\n    /* \"#utility.yul\":7558:7749   */\ntag_46:\n    /* \"#utility.yul\":7598:7601   */\n  0x00\n    /* \"#utility.yul\":7617:7637   */\n  tag_189\n    /* \"#utility.yul\":7635:7636   */\n  dup3\n    /* \"#utility.yul\":7617:7637   */\n  tag_83\n  jump\t// in\ntag_189:\n    /* \"#utility.yul\":7612:7637   */\n  swap2\n  pop\n    /* \"#utility.yul\":7651:7671   */\n  tag_190\n    /* \"#utility.yul\":7669:7670   */\n  dup4\n    /* \"#utility.yul\":7651:7671   */\n  tag_83\n  jump\t// in\ntag_190:\n    /* \"#utility.yul\":7646:7671   */\n  swap3\n  pop\n    /* \"#utility.yul\":7694:7695   */\n  dup3\n    /* \"#utility.yul\":7691:7692   */\n  dup3\n    /* \"#utility.yul\":7687:7696   */\n  add\n    /* \"#utility.yul\":7680:7696   */\n  swap1\n  pop\n    /* \"#utility.yul\":7715:7718   */\n  dup1\n    /* \"#utility.yul\":7712:7713   */\n  dup3\n    /* \"#utility.yul\":7709:7719   */\n  gt\n    /* \"#utility.yul\":7706:7742   */\n  iszero\n  tag_191\n  jumpi\n    /* \"#utility.yul\":7722:7740   */\n  tag_192\n  tag_96\n  jump\t// in\ntag_192:\n    /* \"#utility.yul\":7706:7742   */\ntag_191:\n    /* \"#utility.yul\":7558:7749   */\n  swap3\n  swap2\n  pop\n  pop\n  jump\t// out\n    /* \"#utility.yul\":7755:7873   */\ntag_97:\n    /* \"#utility.yul\":7842:7866   */\n  tag_194\n    /* \"#utility.yul\":7860:7865   */\n  dup2\n    /* \"#utility.yul\":7842:7866   */\n  tag_83\n  jump\t// in\ntag_194:\n    /* \"#utility.yul\":7837:7840   */\n  dup3\n    /* \"#utility.yul\":7830:7867   */\n  mstore\n    /* \"#utility.yul\":7755:7873   */\n  pop\n  pop\n  jump\t// out\n    /* \"#utility.yul\":7879:8321   */\ntag_50:\n    /* \"#utility.yul\":8028:8032   */\n  0x00\n    /* \"#utility.yul\":8066:8068   */\n  0x60\n    /* \"#utility.yul\":8055:8064   */\n  dup3\n    /* \"#utility.yul\":8051:8069   */\n  add\n    /* \"#utility.yul\":8043:8069   */\n  swap1\n  pop\n    /* \"#utility.yul\":8079:8150   */\n  tag_196\n    /* \"#utility.yul\":8147:8148   */\n  0x00\n    /* \"#utility.yul\":8136:8145   */\n  dup4\n    /* \"#utility.yul\":8132:8149   */\n  add\n    /* \"#utility.yul\":8123:8129   */\n  dup7\n    /* \"#utility.yul\":8079:8150   */\n  tag_95\n  jump\t// in\ntag_196:\n    /* \"#utility.yul\":8160:8232   */\n  tag_197\n    /* \"#utility.yul\":8228:8230   */\n  0x20\n    /* \"#utility.yul\":8217:8226   */\n  dup4\n    /* \"#utility.yul\":8213:8231   */\n  add\n    /* \"#utility.yul\":8204:8210   */\n  dup6\n    /* \"#utility.yul\":8160:8232   */\n  tag_97\n  jump\t// in\ntag_197:\n    /* \"#utility.yul\":8242:8314   */\n  tag_198\n    /* \"#utility.yul\":8310:8312   */\n  0x40\n    /* \"#utility.yul\":8299:8308   */\n  dup4\n    /* \"#utility.yul\":8295:8313   */\n  add\n    /* \"#utility.yul\":8286:8292   */\n  dup5\n    /* \"#utility.yul\":8242:8314   */\n  tag_97\n  jump\t// in\ntag_198:\n    /* \"#utility.yul\":7879:8321   */\n  swap5\n  swap4\n  pop\n  pop\n  pop\n  pop\n  jump\t// out\n    /* \"#utility.yul\":8327:8549   */\ntag_54:\n    /* \"#utility.yul\":8420:8424   */\n  0x00\n    /* \"#utility.yul\":8458:8460   */\n  0x20\n    /* \"#utility.yul\":8447:8456   */\n  dup3\n    /* \"#utility.yul\":8443:8461   */\n  add\n    /* \"#utility.yul\":8435:8461   */\n  swap1\n  pop\n    /* \"#utility.yul\":8471:8542   */\n  tag_200\n    /* \"#utility.yul\":8539:8540   */\n  0x00\n    /* \"#utility.yul\":8528:8537   */\n  dup4\n    /* \"#utility.yul\":8524:8541   */\n  add\n    /* \"#utility.yul\":8515:8521   */\n  dup5\n    /* \"#utility.yul\":8471:8542   */\n  tag_97\n  jump\t// in\ntag_200:\n    /* \"#utility.yul\":8327:8549   */\n  swap3\n  swap2\n  pop\n  pop\n  jump\t// out\n    /* \".deps/token.sol\":370:4732  contract LivingTheDream is ERC20, ERC20Burnable, Ownable, ReentrancyGuard, Pausable {... */\ntag_29:\n  dataSize(sub_0)\n  dup1\n  dataOffset(sub_0)\n  0x00\n  codecopy\n  0x00\n  return\nstop\n\nsub_0: assembly {\n        /* \".deps/token.sol\":370:4732  contract LivingTheDream is ERC20, ERC20Burnable, Ownable, ReentrancyGuard, Pausable {... */\n      mstore(0x40, 0x80)\n      callvalue\n      dup1\n      iszero\n      tag_1\n      jumpi\n      0x00\n      dup1\n      revert\n    tag_1:\n      pop\n      jumpi(tag_2, lt(calldatasize, 0x04))\n      shr(0xe0, calldataload(0x00))\n      dup1\n      0x70a08231\n      gt\n      tag_40\n      jumpi\n      dup1\n      0xa9059cbb\n      gt\n      tag_41\n      jumpi\n      dup1\n      0xe17c4c74\n      gt\n      tag_42\n      jumpi\n      dup1\n      0xe17c4c74\n      eq\n      tag_35\n      jumpi\n      dup1\n      0xe43252d7\n      eq\n      tag_36\n      jumpi\n      dup1\n      0xeb1e7387\n      eq\n      tag_37\n      jumpi\n      dup1\n      0xf2fde38b\n      eq\n      tag_38\n      jumpi\n      dup1\n      0xfe575a87\n      eq\n      tag_39\n      jumpi\n      jump(tag_2)\n    tag_42:\n      dup1\n      0xa9059cbb\n      eq\n      tag_30\n      jumpi\n      dup1\n      0xb3a88c1b\n      eq\n      tag_31\n      jumpi\n      dup1\n      0xc5f956af\n      eq\n      tag_32\n      jumpi\n      dup1\n      0xcb4ca631\n      eq\n      tag_33\n      jumpi\n      dup1\n      0xdd62ed3e\n      eq\n      tag_34\n      jumpi\n      jump(tag_2)\n    tag_41:\n      dup1\n      0x8456cb59\n      gt\n      tag_43\n      jumpi\n      dup1\n      0x8456cb59\n      eq\n      tag_25\n      jumpi\n      dup1\n      0x8ab1d681\n      eq\n      tag_26\n      jumpi\n      dup1\n      0x8da5cb5b\n      eq\n      tag_27\n      jumpi\n      dup1\n      0x95d89b41\n      eq\n      tag_28\n      jumpi\n      dup1\n      0x9dc29fac\n      eq\n      tag_29\n      jumpi\n      jump(tag_2)\n    tag_43:\n      dup1\n      0x70a08231\n      eq\n      tag_21\n      jumpi\n      dup1\n      0x715018a6\n      eq\n      tag_22\n      jumpi\n      dup1\n      0x72a8a933\n      eq\n      tag_23\n      jumpi\n      dup1\n      0x79cc6790\n      eq\n      tag_24\n      jumpi\n      jump(tag_2)\n    tag_40:\n      dup1\n      0x40c10f19\n      gt\n      tag_44\n      jumpi\n      dup1\n      0x5c975abb\n      gt\n      tag_45\n      jumpi\n      dup1\n      0x5c975abb\n      eq\n      tag_16\n      jumpi\n      dup1\n      0x60d1259e\n      eq\n      tag_17\n      jumpi\n      dup1\n      0x6605bfda\n      eq\n      tag_18\n      jumpi\n      dup1\n      0x6c95702b\n      eq\n      tag_19\n      jumpi\n      dup1\n      0x6f0b00ac\n      eq\n      tag_20\n      jumpi\n      jump(tag_2)\n    tag_45:\n      dup1\n      0x40c10f19\n      eq\n      tag_12\n      jumpi\n      dup1\n      0x42966c68\n      eq\n      tag_13\n      jumpi\n      dup1\n      0x44337ea1\n      eq\n      tag_14\n      jumpi\n      dup1\n      0x537df3b6\n      eq\n      tag_15\n      jumpi\n      jump(tag_2)\n    tag_44:\n      dup1\n      0x2ff2e9dc\n      gt\n      tag_46\n      jumpi\n      dup1\n      0x2ff2e9dc\n      eq\n      tag_7\n      jumpi\n      dup1\n      0x313ce567\n      eq\n      tag_8\n      jumpi\n      dup1\n      0x32cb6b0c\n      eq\n      tag_9\n      jumpi\n      dup1\n      0x3af32abf\n      eq\n      tag_10\n      jumpi\n      dup1\n      0x3f4ba83a\n      eq\n      tag_11\n      jumpi\n      jump(tag_2)\n    tag_46:\n      dup1\n      0x06fdde03\n      eq\n      tag_3\n      jumpi\n      dup1\n      0x095ea7b3\n      eq\n      tag_4\n      jumpi\n      dup1\n      0x18160ddd\n      eq\n      tag_5\n      jumpi\n      dup1\n      0x23b872dd\n      eq\n      tag_6\n      jumpi\n    tag_2:\n      0x00\n      dup1\n      revert\n        /* \"@openzeppelin/contracts/token/ERC20/ERC20.sol\":2074:2163  function name() public view virtual returns (string memory) {... */\n    tag_3:\n      tag_47\n      tag_48\n      jump\t// in\n    tag_47:\n      mload(0x40)\n      tag_49\n      swap2\n      swap1\n      tag_50\n      jump\t// in\n    tag_49:\n      mload(0x40)\n      dup1\n      swap2\n      sub\n      swap1\n      return\n        /* \"@openzeppelin/contracts/token/ERC20/ERC20.sol\":4293:4479  function approve(address spender, uint256 value) public virtual returns (bool) {... */\n    tag_4:\n      tag_51\n      0x04\n      dup1\n      calldatasize\n      sub\n      dup2\n      add\n      swap1\n      tag_52\n      swap2\n      swap1\n      tag_53\n      jump\t// in\n    tag_52:\n      tag_54\n      jump\t// in\n    tag_51:\n      mload(0x40)\n      tag_55\n      swap2\n      swap1\n      tag_56\n      jump\t// in\n    tag_55:\n      mload(0x40)\n      dup1\n      swap2\n      sub\n      swap1\n      return\n        /* \"@openzeppelin/contracts/token/ERC20/ERC20.sol\":3144:3241  function totalSupply() public view virtual returns (uint256) {... */\n    tag_5:\n      tag_57\n      tag_58\n      jump\t// in\n    tag_57:\n      mload(0x40)\n      tag_59\n      swap2\n      swap1\n      tag_60\n      jump\t// in\n    tag_59:\n      mload(0x40)\n      dup1\n      swap2\n      sub\n      swap1\n      return\n        /* \"@openzeppelin/contracts/token/ERC20/ERC20.sol\":5039:5283  function transferFrom(address from, address to, uint256 value) public virtual returns (bool) {... */\n    tag_6:\n      tag_61\n      0x04\n      dup1\n      calldatasize\n      sub\n      dup2\n      add\n      swap1\n      tag_62\n      swap2\n      swap1\n      tag_63\n      jump\t// in\n    tag_62:\n      tag_64\n      jump\t// in\n    tag_61:\n      mload(0x40)\n      tag_65\n      swap2\n      swap1\n      tag_56\n      jump\t// in\n    tag_65:\n      mload(0x40)\n      dup1\n      swap2\n      sub\n      swap1\n      return\n        /* \".deps/token.sol\":527:588  uint256 public constant INITIAL_SUPPLY = 33333333333 * 10**18 */\n    tag_7:\n      tag_66\n      tag_67\n      jump\t// in\n    tag_66:\n      mload(0x40)\n      tag_68\n      swap2\n      swap1\n      tag_60\n      jump\t// in\n    tag_68:\n      mload(0x40)\n      dup1\n      swap2\n      sub\n      swap1\n      return\n        /* \"@openzeppelin/contracts/token/ERC20/ERC20.sol\":3002:3084  function decimals() public view virtual returns (uint8) {... */\n    tag_8:\n      tag_69\n      tag_70\n      jump\t// in\n    tag_69:\n      mload(0x40)\n      tag_71\n      swap2\n      swap1\n      tag_72\n      jump\t// in\n    tag_71:\n      mload(0x40)\n      dup1\n      swap2\n      sub\n      swap1\n      return\n        /* \".deps/token.sol\":461:519  uint256 public constant MAX_SUPPLY = 333333333333 * 10**18 */\n    tag_9:\n      tag_73\n      tag_74\n      jump\t// in\n    tag_73:\n      mload(0x40)\n      tag_75\n      swap2\n      swap1\n      tag_60\n      jump\t// in\n    tag_75:\n      mload(0x40)\n      dup1\n      swap2\n      sub\n      swap1\n      return\n        /* \".deps/token.sol\":748:793  mapping(address => bool) public isWhitelisted */\n    tag_10:\n      tag_76\n      0x04\n      dup1\n      calldatasize\n      sub\n      dup2\n      add\n      swap1\n      tag_77\n      swap2\n      swap1\n      tag_78\n      jump\t// in\n    tag_77:\n      tag_79\n      jump\t// in\n    tag_76:\n      mload(0x40)\n      tag_80\n      swap2\n      swap1\n      tag_56\n      jump\t// in\n    tag_80:\n      mload(0x40)\n      dup1\n      swap2\n      sub\n      swap1\n      return\n        /* \".deps/token.sol\":2186:2253  function unpause() external onlyOwner {... */\n    tag_11:\n      tag_81\n      tag_82\n      jump\t// in\n    tag_81:\n      stop\n        /* \".deps/token.sol\":1886:1987  function mint(address user, uint256 amount) external onlyOwner {... */\n    tag_12:\n      tag_83\n      0x04\n      dup1\n      calldatasize\n      sub\n      dup2\n      add\n      swap1\n      tag_84\n      swap2\n      swap1\n      tag_53\n      jump\t// in\n    tag_84:\n      tag_85\n      jump\t// in\n    tag_83:\n      stop\n        /* \"@openzeppelin/contracts/token/ERC20/extensions/ERC20Burnable.sol\":618:705  function burn(uint256 value) public virtual {... */\n    tag_13:\n      tag_86\n      0x04\n      dup1\n      calldatasize\n      sub\n      dup2\n      add\n      swap1\n      tag_87\n      swap2\n      swap1\n      tag_88\n      jump\t// in\n    tag_87:\n      tag_89\n      jump\t// in\n    tag_86:\n      stop\n        /* \".deps/token.sol\":2797:2905  function addToBlacklist(address account) external onlyOwner {... */\n    tag_14:\n      tag_90\n      0x04\n      dup1\n      calldatasize\n      sub\n      dup2\n      add\n      swap1\n      tag_91\n      swap2\n      swap1\n      tag_78\n      jump\t// in\n    tag_91:\n      tag_92\n      jump\t// in\n    tag_90:\n      stop\n        /* \".deps/token.sol\":2913:3027  function removeFromBlacklist(address account) external onlyOwner {... */\n    tag_15:\n      tag_93\n      0x04\n      dup1\n      calldatasize\n      sub\n      dup2\n      add\n      swap1\n      tag_94\n      swap2\n      swap1\n      tag_78\n      jump\t// in\n    tag_94:\n      tag_95\n      jump\t// in\n    tag_93:\n      stop\n        /* \"@openzeppelin/contracts/utils/Pausable.sol\":1850:1934  function paused() public view virtual returns (bool) {... */\n    tag_16:\n      tag_96\n      tag_97\n      jump\t// in\n    tag_96:\n      mload(0x40)\n      tag_98\n      swap2\n      swap1\n      tag_56\n      jump\t// in\n    tag_98:\n      mload(0x40)\n      dup1\n      swap2\n      sub\n      swap1\n      return\n        /* \".deps/token.sol\":3090:3202  function excludeFromTax(address account) external onlyOwner {... */\n    tag_17:\n      tag_99\n      0x04\n      dup1\n      calldatasize\n      sub\n      dup2\n      add\n      swap1\n      tag_100\n      swap2\n      swap1\n      tag_78\n      jump\t// in\n    tag_100:\n      tag_101\n      jump\t// in\n    tag_99:\n      stop\n        /* \".deps/token.sol\":4077:4215  function setTreasuryAddress(address payable newTreasuryAddress) external onlyOwner {... */\n    tag_18:\n      tag_102\n      0x04\n      dup1\n      calldatasize\n      sub\n      dup2\n      add\n      swap1\n      tag_103\n      swap2\n      swap1\n      tag_104\n      jump\t// in\n    tag_103:\n      tag_105\n      jump\t// in\n    tag_102:\n      stop\n        /* \".deps/token.sol\":4589:4729  function approveForDEX(address dexAddress, uint256 amount) external onlyOwner {... */\n    tag_19:\n      tag_106\n      0x04\n      dup1\n      calldatasize\n      sub\n      dup2\n      add\n      swap1\n      tag_107\n      swap2\n      swap1\n      tag_53\n      jump\t// in\n    tag_107:\n      tag_108\n      jump\t// in\n    tag_106:\n      stop\n        /* \".deps/token.sol\":4223:4581  function adjustTaxes(uint256 newBuyTax, uint256 newSellTax) external onlyOwner {... */\n    tag_20:\n      tag_109\n      0x04\n      dup1\n      calldatasize\n      sub\n      dup2\n      add\n      swap1\n      tag_110\n      swap2\n      swap1\n      tag_111\n      jump\t// in\n    tag_110:\n      tag_112\n      jump\t// in\n    tag_109:\n      stop\n        /* \"@openzeppelin/contracts/token/ERC20/ERC20.sol\":3299:3415  function balanceOf(address account) public view virtual returns (uint256) {... */\n    tag_21:\n      tag_113\n      0x04\n      dup1\n      calldatasize\n      sub\n      dup2\n      add\n      swap1\n      tag_114\n      swap2\n      swap1\n      tag_78\n      jump\t// in\n    tag_114:\n      tag_115\n      jump\t// in\n    tag_113:\n      mload(0x40)\n      tag_116\n      swap2\n      swap1\n      tag_60\n      jump\t// in\n    tag_116:\n      mload(0x40)\n      dup1\n      swap2\n      sub\n      swap1\n      return\n        /* \"@openzeppelin/contracts/access/Ownable.sol\":2293:2394  function renounceOwnership() public virtual onlyOwner {... */\n    tag_22:\n      tag_117\n      tag_118\n      jump\t// in\n    tag_117:\n      stop\n        /* \".deps/token.sol\":671:739  uint256 public constant AIRDROP_WALLET_AMOUNT = 27777777777 * 10**18 */\n    tag_23:\n      tag_119\n      tag_120\n      jump\t// in\n    tag_119:\n      mload(0x40)\n      tag_121\n      swap2\n      swap1\n      tag_60\n      jump\t// in\n    tag_121:\n      mload(0x40)\n      dup1\n      swap2\n      sub\n      swap1\n      return\n        /* \"@openzeppelin/contracts/token/ERC20/extensions/ERC20Burnable.sol\":1021:1179  function burnFrom(address account, uint256 value) public virtual {... */\n    tag_24:\n      tag_122\n      0x04\n      dup1\n      calldatasize\n      sub\n      dup2\n      add\n      swap1\n      tag_123\n      swap2\n      swap1\n      tag_53\n      jump\t// in\n    tag_123:\n      tag_124\n      jump\t// in\n    tag_122:\n      stop\n        /* \".deps/token.sol\":2065:2128  function pause() external onlyOwner {... */\n    tag_25:\n      tag_125\n      tag_126\n      jump\t// in\n    tag_125:\n      stop\n        /* \".deps/token.sol\":2675:2789  function removeFromWhitelist(address account) external onlyOwner {... */\n    tag_26:\n      tag_127\n      0x04\n      dup1\n      calldatasize\n      sub\n      dup2\n      add\n      swap1\n      tag_128\n      swap2\n      swap1\n      tag_78\n      jump\t// in\n    tag_128:\n      tag_129\n      jump\t// in\n    tag_127:\n      stop\n        /* \"@openzeppelin/contracts/access/Ownable.sol\":1638:1723  function owner() public view virtual returns (address) {... */\n    tag_27:\n      tag_130\n      tag_131\n      jump\t// in\n    tag_130:\n      mload(0x40)\n      tag_132\n      swap2\n      swap1\n      tag_133\n      jump\t// in\n    tag_132:\n      mload(0x40)\n      dup1\n      swap2\n      sub\n      swap1\n      return\n        /* \"@openzeppelin/contracts/token/ERC20/ERC20.sol\":2276:2369  function symbol() public view virtual returns (string memory) {... */\n    tag_28:\n      tag_134\n      tag_135\n      jump\t// in\n    tag_134:\n      mload(0x40)\n      tag_136\n      swap2\n      swap1\n      tag_50\n      jump\t// in\n    tag_136:\n      mload(0x40)\n      dup1\n      swap2\n      sub\n      swap1\n      return\n        /* \".deps/token.sol\":2313:2504  function burn(address account, uint256 amount) public onlyOwner { // Agregar un argumento para la dirección... */\n    tag_29:\n      tag_137\n      0x04\n      dup1\n      calldatasize\n      sub\n      dup2\n      add\n      swap1\n      tag_138\n      swap2\n      swap1\n      tag_53\n      jump\t// in\n    tag_138:\n      tag_139\n      jump\t// in\n    tag_137:\n      stop\n        /* \"@openzeppelin/contracts/token/ERC20/ERC20.sol\":3610:3788  function transfer(address to, uint256 value) public virtual returns (bool) {... */\n    tag_30:\n      tag_140\n      0x04\n      dup1\n      calldatasize\n      sub\n      dup2\n      add\n      swap1\n      tag_141\n      swap2\n      swap1\n      tag_53\n      jump\t// in\n    tag_141:\n      tag_142\n      jump\t// in\n    tag_140:\n      mload(0x40)\n      tag_143\n      swap2\n      swap1\n      tag_56\n      jump\t// in\n    tag_143:\n      mload(0x40)\n      dup1\n      swap2\n      sub\n      swap1\n      return\n        /* \".deps/token.sol\":595:664  uint256 public constant MARKETING_WALLET_AMOUNT = 5533333333 * 10**18 */\n    tag_31:\n      tag_144\n      tag_145\n      jump\t// in\n    tag_144:\n      mload(0x40)\n      tag_146\n      swap2\n      swap1\n      tag_60\n      jump\t// in\n    tag_146:\n      mload(0x40)\n      dup1\n      swap2\n      sub\n      swap1\n      return\n        /* \".deps/token.sol\":1091:1129  address payable public treasuryAddress */\n    tag_32:\n      tag_147\n      tag_148\n      jump\t// in\n    tag_147:\n      mload(0x40)\n      tag_149\n      swap2\n      swap1\n      tag_150\n      jump\t// in\n    tag_149:\n      mload(0x40)\n      dup1\n      swap2\n      sub\n      swap1\n      return\n        /* \".deps/token.sol\":852:901  mapping(address => bool) public isExcludedFromTax */\n    tag_33:\n      tag_151\n      0x04\n      dup1\n      calldatasize\n      sub\n      dup2\n      add\n      swap1\n      tag_152\n      swap2\n      swap1\n      tag_78\n      jump\t// in\n    tag_152:\n      tag_153\n      jump\t// in\n    tag_151:\n      mload(0x40)\n      tag_154\n      swap2\n      swap1\n      tag_56\n      jump\t// in\n    tag_154:\n      mload(0x40)\n      dup1\n      swap2\n      sub\n      swap1\n      return\n        /* \"@openzeppelin/contracts/token/ERC20/ERC20.sol\":3846:3986  function allowance(address owner, address spender) public view virtual returns (uint256) {... */\n    tag_34:\n      tag_155\n      0x04\n      dup1\n      calldatasize\n      sub\n      dup2\n      add\n      swap1\n      tag_156\n      swap2\n      swap1\n      tag_157\n      jump\t// in\n    tag_156:\n      tag_158\n      jump\t// in\n    tag_155:\n      mload(0x40)\n      tag_159\n      swap2\n      swap1\n      tag_60\n      jump\t// in\n    tag_159:\n      mload(0x40)\n      dup1\n      swap2\n      sub\n      swap1\n      return\n        /* \".deps/token.sol\":3210:3321  function includeInTax(address account) external onlyOwner {... */\n    tag_35:\n      tag_160\n      0x04\n      dup1\n      calldatasize\n      sub\n      dup2\n      add\n      swap1\n      tag_161\n      swap2\n      swap1\n      tag_78\n      jump\t// in\n    tag_161:\n      tag_162\n      jump\t// in\n    tag_160:\n      stop\n        /* \".deps/token.sol\":2559:2667  function addToWhitelist(address account) external onlyOwner {... */\n    tag_36:\n      tag_163\n      0x04\n      dup1\n      calldatasize\n      sub\n      dup2\n      add\n      swap1\n      tag_164\n      swap2\n      swap1\n      tag_78\n      jump\t// in\n    tag_164:\n      tag_165\n      jump\t// in\n    tag_163:\n      stop\n        /* \".deps/token.sol\":991:1016  Taxes public currentTaxes */\n    tag_37:\n      tag_166\n      tag_167\n      jump\t// in\n    tag_166:\n      mload(0x40)\n      tag_168\n      swap3\n      swap2\n      swap1\n      tag_169\n      jump\t// in\n    tag_168:\n      mload(0x40)\n      dup1\n      swap2\n      sub\n      swap1\n      return\n        /* \"@openzeppelin/contracts/access/Ownable.sol\":2543:2758  function transferOwnership(address newOwner) public virtual onlyOwner {... */\n    tag_38:\n      tag_170\n      0x04\n      dup1\n      calldatasize\n      sub\n      dup2\n      add\n      swap1\n      tag_171\n      swap2\n      swap1\n      tag_78\n      jump\t// in\n    tag_171:\n      tag_172\n      jump\t// in\n    tag_170:\n      stop\n        /* \".deps/token.sol\":800:845  mapping(address => bool) public isBlacklisted */\n    tag_39:\n      tag_173\n      0x04\n      dup1\n      calldatasize\n      sub\n      dup2\n      add\n      swap1\n      tag_174\n      swap2\n      swap1\n      tag_78\n      jump\t// in\n    tag_174:\n      tag_175\n      jump\t// in\n    tag_173:\n      mload(0x40)\n      tag_176\n      swap2\n      swap1\n      tag_56\n      jump\t// in\n    tag_176:\n      mload(0x40)\n      dup1\n      swap2\n      sub\n      swap1\n      return\n        /* \"@openzeppelin/contracts/token/ERC20/ERC20.sol\":2074:2163  function name() public view virtual returns (string memory) {... */\n    tag_48:\n        /* \"@openzeppelin/contracts/token/ERC20/ERC20.sol\":2119:2132  string memory */\n      0x60\n        /* \"@openzeppelin/contracts/token/ERC20/ERC20.sol\":2151:2156  _name */\n      0x03\n        /* \"@openzeppelin/contracts/token/ERC20/ERC20.sol\":2144:2156  return _name */\n      dup1\n      sload\n      tag_178\n      swap1\n      tag_179\n      jump\t// in\n    tag_178:\n      dup1\n      0x1f\n      add\n      0x20\n      dup1\n      swap2\n      div\n      mul\n      0x20\n      add\n      mload(0x40)\n      swap1\n      dup2\n      add\n      0x40\n      mstore\n      dup1\n      swap3\n      swap2\n      swap1\n      dup2\n      dup2\n      mstore\n      0x20\n      add\n      dup3\n      dup1\n      sload\n      tag_180\n      swap1\n      tag_179\n      jump\t// in\n    tag_180:\n      dup1\n      iszero\n      tag_181\n      jumpi\n      dup1\n      0x1f\n      lt\n      tag_182\n      jumpi\n      0x0100\n      dup1\n      dup4\n      sload\n      div\n      mul\n      dup4\n      mstore\n      swap2\n      0x20\n      add\n      swap2\n      jump(tag_181)\n    tag_182:\n      dup3\n      add\n      swap2\n      swap1\n      0x00\n      mstore\n      keccak256(0x00, 0x20)\n      swap1\n    tag_183:\n      dup2\n      sload\n      dup2\n      mstore\n      swap1\n      0x01\n      add\n      swap1\n      0x20\n      add\n      dup1\n      dup4\n      gt\n      tag_183\n      jumpi\n      dup3\n      swap1\n      sub\n      0x1f\n      and\n      dup3\n      add\n      swap2\n    tag_181:\n      pop\n      pop\n      pop\n      pop\n      pop\n      swap1\n      pop\n        /* \"@openzeppelin/contracts/token/ERC20/ERC20.sol\":2074:2163  function name() public view virtual returns (string memory) {... */\n      swap1\n      jump\t// out\n        /* \"@openzeppelin/contracts/token/ERC20/ERC20.sol\":4293:4479  function approve(address spender, uint256 value) public virtual returns (bool) {... */\n    tag_54:\n        /* \"@openzeppelin/contracts/token/ERC20/ERC20.sol\":4366:4370  bool */\n      0x00\n        /* \"@openzeppelin/contracts/token/ERC20/ERC20.sol\":4382:4395  address owner */\n      dup1\n        /* \"@openzeppelin/contracts/token/ERC20/ERC20.sol\":4398:4410  _msgSender() */\n      tag_185\n        /* \"@openzeppelin/contracts/token/ERC20/ERC20.sol\":4398:4408  _msgSender */\n      tag_186\n        /* \"@openzeppelin/contracts/token/ERC20/ERC20.sol\":4398:4410  _msgSender() */\n      jump\t// in\n    tag_185:\n        /* \"@openzeppelin/contracts/token/ERC20/ERC20.sol\":4382:4410  address owner = _msgSender() */\n      swap1\n      pop\n        /* \"@openzeppelin/contracts/token/ERC20/ERC20.sol\":4420:4451  _approve(owner, spender, value) */\n      tag_187\n        /* \"@openzeppelin/contracts/token/ERC20/ERC20.sol\":4429:4434  owner */\n      dup2\n        /* \"@openzeppelin/contracts/token/ERC20/ERC20.sol\":4436:4443  spender */\n      dup6\n        /* \"@openzeppelin/contracts/token/ERC20/ERC20.sol\":4445:4450  value */\n      dup6\n        /* \"@openzeppelin/contracts/token/ERC20/ERC20.sol\":4420:4428  _approve */\n      tag_188\n        /* \"@openzeppelin/contracts/token/ERC20/ERC20.sol\":4420:4451  _approve(owner, spender, value) */\n      jump\t// in\n    tag_187:\n        /* \"@openzeppelin/contracts/token/ERC20/ERC20.sol\":4468:4472  true */\n      0x01\n        /* \"@openzeppelin/contracts/token/ERC20/ERC20.sol\":4461:4472  return true */\n      swap2\n      pop\n      pop\n        /* \"@openzeppelin/contracts/token/ERC20/ERC20.sol\":4293:4479  function approve(address spender, uint256 value) public virtual returns (bool) {... */\n      swap3\n      swap2\n      pop\n      pop\n      jump\t// out\n        /* \"@openzeppelin/contracts/token/ERC20/ERC20.sol\":3144:3241  function totalSupply() public view virtual returns (uint256) {... */\n    tag_58:\n        /* \"@openzeppelin/contracts/token/ERC20/ERC20.sol\":3196:3203  uint256 */\n      0x00\n        /* \"@openzeppelin/contracts/token/ERC20/ERC20.sol\":3222:3234  _totalSupply */\n      sload(0x02)\n        /* \"@openzeppelin/contracts/token/ERC20/ERC20.sol\":3215:3234  return _totalSupply */\n      swap1\n      pop\n        /* \"@openzeppelin/contracts/token/ERC20/ERC20.sol\":3144:3241  function totalSupply() public view virtual returns (uint256) {... */\n      swap1\n      jump\t// out\n        /* \"@openzeppelin/contracts/token/ERC20/ERC20.sol\":5039:5283  function transferFrom(address from, address to, uint256 value) public virtual returns (bool) {... */\n    tag_64:\n        /* \"@openzeppelin/contracts/token/ERC20/ERC20.sol\":5126:5130  bool */\n      0x00\n        /* \"@openzeppelin/contracts/token/ERC20/ERC20.sol\":5142:5157  address spender */\n      dup1\n        /* \"@openzeppelin/contracts/token/ERC20/ERC20.sol\":5160:5172  _msgSender() */\n      tag_191\n        /* \"@openzeppelin/contracts/token/ERC20/ERC20.sol\":5160:5170  _msgSender */\n      tag_186\n        /* \"@openzeppelin/contracts/token/ERC20/ERC20.sol\":5160:5172  _msgSender() */\n      jump\t// in\n    tag_191:\n        /* \"@openzeppelin/contracts/token/ERC20/ERC20.sol\":5142:5172  address spender = _msgSender() */\n      swap1\n      pop\n        /* \"@openzeppelin/contracts/token/ERC20/ERC20.sol\":5182:5219  _spendAllowance(from, spender, value) */\n      tag_192\n        /* \"@openzeppelin/contracts/token/ERC20/ERC20.sol\":5198:5202  from */\n      dup6\n        /* \"@openzeppelin/contracts/token/ERC20/ERC20.sol\":5204:5211  spender */\n      dup3\n        /* \"@openzeppelin/contracts/token/ERC20/ERC20.sol\":5213:5218  value */\n      dup6\n        /* \"@openzeppelin/contracts/token/ERC20/ERC20.sol\":5182:5197  _spendAllowance */\n      tag_193\n        /* \"@openzeppelin/contracts/token/ERC20/ERC20.sol\":5182:5219  _spendAllowance(from, spender, value) */\n      jump\t// in\n    tag_192:\n        /* \"@openzeppelin/contracts/token/ERC20/ERC20.sol\":5229:5255  _transfer(from, to, value) */\n      tag_194\n        /* \"@openzeppelin/contracts/token/ERC20/ERC20.sol\":5239:5243  from */\n      dup6\n        /* \"@openzeppelin/contracts/token/ERC20/ERC20.sol\":5245:5247  to */\n      dup6\n        /* \"@openzeppelin/contracts/token/ERC20/ERC20.sol\":5249:5254  value */\n      dup6\n        /* \"@openzeppelin/contracts/token/ERC20/ERC20.sol\":5229:5238  _transfer */\n      tag_195\n        /* \"@openzeppelin/contracts/token/ERC20/ERC20.sol\":5229:5255  _transfer(from, to, value) */\n      jump\t// in\n    tag_194:\n        /* \"@openzeppelin/contracts/token/ERC20/ERC20.sol\":5272:5276  true */\n      0x01\n        /* \"@openzeppelin/contracts/token/ERC20/ERC20.sol\":5265:5276  return true */\n      swap2\n      pop\n      pop\n        /* \"@openzeppelin/contracts/token/ERC20/ERC20.sol\":5039:5283  function transferFrom(address from, address to, uint256 value) public virtual returns (bool) {... */\n      swap4\n      swap3\n      pop\n      pop\n      pop\n      jump\t// out\n        /* \".deps/token.sol\":527:588  uint256 public constant INITIAL_SUPPLY = 33333333333 * 10**18 */\n    tag_67:\n        /* \".deps/token.sol\":568:588  33333333333 * 10**18 */\n      0x6bb4afe4ca85cb07a8340000\n        /* \".deps/token.sol\":527:588  uint256 public constant INITIAL_SUPPLY = 33333333333 * 10**18 */\n      dup2\n      jump\t// out\n        /* \"@openzeppelin/contracts/token/ERC20/ERC20.sol\":3002:3084  function decimals() public view virtual returns (uint8) {... */\n    tag_70:\n        /* \"@openzeppelin/contracts/token/ERC20/ERC20.sol\":3051:3056  uint8 */\n      0x00\n        /* \"@openzeppelin/contracts/token/ERC20/ERC20.sol\":3075:3077  18 */\n      0x12\n        /* \"@openzeppelin/contracts/token/ERC20/ERC20.sol\":3068:3077  return 18 */\n      swap1\n      pop\n        /* \"@openzeppelin/contracts/token/ERC20/ERC20.sol\":3002:3084  function decimals() public view virtual returns (uint8) {... */\n      swap1\n      jump\t// out\n        /* \".deps/token.sol\":461:519  uint256 public constant MAX_SUPPLY = 333333333333 * 10**18 */\n    tag_74:\n        /* \".deps/token.sol\":498:519  333333333333 * 10**18 */\n      0x04350edef012dc126788340000\n        /* \".deps/token.sol\":461:519  uint256 public constant MAX_SUPPLY = 333333333333 * 10**18 */\n      dup2\n      jump\t// out\n        /* \".deps/token.sol\":748:793  mapping(address => bool) public isWhitelisted */\n    tag_79:\n      mstore(0x20, 0x08)\n      dup1\n      0x00\n      mstore\n      keccak256(0x00, 0x40)\n      0x00\n      swap2\n      pop\n      sload\n      swap1\n      0x0100\n      exp\n      swap1\n      div\n      0xff\n      and\n      dup2\n      jump\t// out\n        /* \".deps/token.sol\":2186:2253  function unpause() external onlyOwner {... */\n    tag_82:\n        /* \"@openzeppelin/contracts/access/Ownable.sol\":1531:1544  _checkOwner() */\n      tag_198\n        /* \"@openzeppelin/contracts/access/Ownable.sol\":1531:1542  _checkOwner */\n      tag_199\n        /* \"@openzeppelin/contracts/access/Ownable.sol\":1531:1544  _checkOwner() */\n      jump\t// in\n    tag_198:\n        /* \".deps/token.sol\":2235:2245  _unpause() */\n      tag_201\n        /* \".deps/token.sol\":2235:2243  _unpause */\n      tag_202\n        /* \".deps/token.sol\":2235:2245  _unpause() */\n      jump\t// in\n    tag_201:\n        /* \".deps/token.sol\":2186:2253  function unpause() external onlyOwner {... */\n      jump\t// out\n        /* \".deps/token.sol\":1886:1987  function mint(address user, uint256 amount) external onlyOwner {... */\n    tag_85:\n        /* \"@openzeppelin/contracts/access/Ownable.sol\":1531:1544  _checkOwner() */\n      tag_204\n        /* \"@openzeppelin/contracts/access/Ownable.sol\":1531:1542  _checkOwner */\n      tag_199\n        /* \"@openzeppelin/contracts/access/Ownable.sol\":1531:1544  _checkOwner() */\n      jump\t// in\n    tag_204:\n        /* \".deps/token.sol\":1960:1979  _mint(user, amount) */\n      tag_206\n        /* \".deps/token.sol\":1966:1970  user */\n      dup3\n        /* \".deps/token.sol\":1972:1978  amount */\n      dup3\n        /* \".deps/token.sol\":1960:1965  _mint */\n      tag_207\n        /* \".deps/token.sol\":1960:1979  _mint(user, amount) */\n      jump\t// in\n    tag_206:\n        /* \".deps/token.sol\":1886:1987  function mint(address user, uint256 amount) external onlyOwner {... */\n      pop\n      pop\n      jump\t// out\n        /* \"@openzeppelin/contracts/token/ERC20/extensions/ERC20Burnable.sol\":618:705  function burn(uint256 value) public virtual {... */\n    tag_89:\n        /* \"@openzeppelin/contracts/token/ERC20/extensions/ERC20Burnable.sol\":672:698  _burn(_msgSender(), value) */\n      tag_209\n        /* \"@openzeppelin/contracts/token/ERC20/extensions/ERC20Burnable.sol\":678:690  _msgSender() */\n      tag_210\n        /* \"@openzeppelin/contracts/token/ERC20/extensions/ERC20Burnable.sol\":678:688  _msgSender */\n      tag_186\n        /* \"@openzeppelin/contracts/token/ERC20/extensions/ERC20Burnable.sol\":678:690  _msgSender() */\n      jump\t// in\n    tag_210:\n        /* \"@openzeppelin/contracts/token/ERC20/extensions/ERC20Burnable.sol\":692:697  value */\n      dup3\n        /* \"@openzeppelin/contracts/token/ERC20/extensions/ERC20Burnable.sol\":672:677  _burn */\n      tag_211\n        /* \"@openzeppelin/contracts/token/ERC20/extensions/ERC20Burnable.sol\":672:698  _burn(_msgSender(), value) */\n      jump\t// in\n    tag_209:\n        /* \"@openzeppelin/contracts/token/ERC20/extensions/ERC20Burnable.sol\":618:705  function burn(uint256 value) public virtual {... */\n      pop\n      jump\t// out\n        /* \".deps/token.sol\":2797:2905  function addToBlacklist(address account) external onlyOwner {... */\n    tag_92:\n        /* \"@openzeppelin/contracts/access/Ownable.sol\":1531:1544  _checkOwner() */\n      tag_213\n        /* \"@openzeppelin/contracts/access/Ownable.sol\":1531:1542  _checkOwner */\n      tag_199\n        /* \"@openzeppelin/contracts/access/Ownable.sol\":1531:1544  _checkOwner() */\n      jump\t// in\n    tag_213:\n        /* \".deps/token.sol\":2893:2897  true */\n      0x01\n        /* \".deps/token.sol\":2868:2881  isBlacklisted */\n      0x09\n        /* \".deps/token.sol\":2868:2890  isBlacklisted[account] */\n      0x00\n        /* \".deps/token.sol\":2882:2889  account */\n      dup4\n        /* \".deps/token.sol\":2868:2890  isBlacklisted[account] */\n      0xffffffffffffffffffffffffffffffffffffffff\n      and\n      0xffffffffffffffffffffffffffffffffffffffff\n      and\n      dup2\n      mstore\n      0x20\n      add\n      swap1\n      dup2\n      mstore\n      0x20\n      add\n      0x00\n      keccak256\n      0x00\n        /* \".deps/token.sol\":2868:2897  isBlacklisted[account] = true */\n      0x0100\n      exp\n      dup2\n      sload\n      dup2\n      0xff\n      mul\n      not\n      and\n      swap1\n      dup4\n      iszero\n      iszero\n      mul\n      or\n      swap1\n      sstore\n      pop\n        /* \".deps/token.sol\":2797:2905  function addToBlacklist(address account) external onlyOwner {... */\n      pop\n      jump\t// out\n        /* \".deps/token.sol\":2913:3027  function removeFromBlacklist(address account) external onlyOwner {... */\n    tag_95:\n        /* \"@openzeppelin/contracts/access/Ownable.sol\":1531:1544  _checkOwner() */\n      tag_216\n        /* \"@openzeppelin/contracts/access/Ownable.sol\":1531:1542  _checkOwner */\n      tag_199\n        /* \"@openzeppelin/contracts/access/Ownable.sol\":1531:1544  _checkOwner() */\n      jump\t// in\n    tag_216:\n        /* \".deps/token.sol\":3014:3019  false */\n      0x00\n        /* \".deps/token.sol\":2989:3002  isBlacklisted */\n      0x09\n        /* \".deps/token.sol\":2989:3011  isBlacklisted[account] */\n      0x00\n        /* \".deps/token.sol\":3003:3010  account */\n      dup4\n        /* \".deps/token.sol\":2989:3011  isBlacklisted[account] */\n      0xffffffffffffffffffffffffffffffffffffffff\n      and\n      0xffffffffffffffffffffffffffffffffffffffff\n      and\n      dup2\n      mstore\n      0x20\n      add\n      swap1\n      dup2\n      mstore\n      0x20\n      add\n      0x00\n      keccak256\n      0x00\n        /* \".deps/token.sol\":2989:3019  isBlacklisted[account] = false */\n      0x0100\n      exp\n      dup2\n      sload\n      dup2\n      0xff\n      mul\n      not\n      and\n      swap1\n      dup4\n      iszero\n      iszero\n      mul\n      or\n      swap1\n      sstore\n      pop\n        /* \".deps/token.sol\":2913:3027  function removeFromBlacklist(address account) external onlyOwner {... */\n      pop\n      jump\t// out\n        /* \"@openzeppelin/contracts/utils/Pausable.sol\":1850:1934  function paused() public view virtual returns (bool) {... */\n    tag_97:\n        /* \"@openzeppelin/contracts/utils/Pausable.sol\":1897:1901  bool */\n      0x00\n        /* \"@openzeppelin/contracts/utils/Pausable.sol\":1920:1927  _paused */\n      0x07\n      0x00\n      swap1\n      sload\n      swap1\n      0x0100\n      exp\n      swap1\n      div\n      0xff\n      and\n        /* \"@openzeppelin/contracts/utils/Pausable.sol\":1913:1927  return _paused */\n      swap1\n      pop\n        /* \"@openzeppelin/contracts/utils/Pausable.sol\":1850:1934  function paused() public view virtual returns (bool) {... */\n      swap1\n      jump\t// out\n        /* \".deps/token.sol\":3090:3202  function excludeFromTax(address account) external onlyOwner {... */\n    tag_101:\n        /* \"@openzeppelin/contracts/access/Ownable.sol\":1531:1544  _checkOwner() */\n      tag_220\n        /* \"@openzeppelin/contracts/access/Ownable.sol\":1531:1542  _checkOwner */\n      tag_199\n        /* \"@openzeppelin/contracts/access/Ownable.sol\":1531:1544  _checkOwner() */\n      jump\t// in\n    tag_220:\n        /* \".deps/token.sol\":3190:3194  true */\n      0x01\n        /* \".deps/token.sol\":3161:3178  isExcludedFromTax */\n      0x0a\n        /* \".deps/token.sol\":3161:3187  isExcludedFromTax[account] */\n      0x00\n        /* \".deps/token.sol\":3179:3186  account */\n      dup4\n        /* \".deps/token.sol\":3161:3187  isExcludedFromTax[account] */\n      0xffffffffffffffffffffffffffffffffffffffff\n      and\n      0xffffffffffffffffffffffffffffffffffffffff\n      and\n      dup2\n      mstore\n      0x20\n      add\n      swap1\n      dup2\n      mstore\n      0x20\n      add\n      0x00\n      keccak256\n      0x00\n        /* \".deps/token.sol\":3161:3194  isExcludedFromTax[account] = true */\n      0x0100\n      exp\n      dup2\n      sload\n      dup2\n      0xff\n      mul\n      not\n      and\n      swap1\n      dup4\n      iszero\n      iszero\n      mul\n      or\n      swap1\n      sstore\n      pop\n        /* \".deps/token.sol\":3090:3202  function excludeFromTax(address account) external onlyOwner {... */\n      pop\n      jump\t// out\n        /* \".deps/token.sol\":4077:4215  function setTreasuryAddress(address payable newTreasuryAddress) external onlyOwner {... */\n    tag_105:\n        /* \"@openzeppelin/contracts/access/Ownable.sol\":1531:1544  _checkOwner() */\n      tag_223\n        /* \"@openzeppelin/contracts/access/Ownable.sol\":1531:1542  _checkOwner */\n      tag_199\n        /* \"@openzeppelin/contracts/access/Ownable.sol\":1531:1544  _checkOwner() */\n      jump\t// in\n    tag_223:\n        /* \".deps/token.sol\":4189:4207  newTreasuryAddress */\n      dup1\n        /* \".deps/token.sol\":4171:4186  treasuryAddress */\n      0x0d\n      0x00\n        /* \".deps/token.sol\":4171:4207  treasuryAddress = newTreasuryAddress */\n      0x0100\n      exp\n      dup2\n      sload\n      dup2\n      0xffffffffffffffffffffffffffffffffffffffff\n      mul\n      not\n      and\n      swap1\n      dup4\n      0xffffffffffffffffffffffffffffffffffffffff\n      and\n      mul\n      or\n      swap1\n      sstore\n      pop\n        /* \".deps/token.sol\":4077:4215  function setTreasuryAddress(address payable newTreasuryAddress) external onlyOwner {... */\n      pop\n      jump\t// out\n        /* \".deps/token.sol\":4589:4729  function approveForDEX(address dexAddress, uint256 amount) external onlyOwner {... */\n    tag_108:\n        /* \"@openzeppelin/contracts/access/Ownable.sol\":1531:1544  _checkOwner() */\n      tag_226\n        /* \"@openzeppelin/contracts/access/Ownable.sol\":1531:1542  _checkOwner */\n      tag_199\n        /* \"@openzeppelin/contracts/access/Ownable.sol\":1531:1544  _checkOwner() */\n      jump\t// in\n    tag_226:\n        /* \".deps/token.sol\":4678:4721  _approve(address(this), dexAddress, amount) */\n      tag_228\n        /* \".deps/token.sol\":4695:4699  this */\n      address\n        /* \".deps/token.sol\":4702:4712  dexAddress */\n      dup4\n        /* \".deps/token.sol\":4714:4720  amount */\n      dup4\n        /* \".deps/token.sol\":4678:4686  _approve */\n      tag_188\n        /* \".deps/token.sol\":4678:4721  _approve(address(this), dexAddress, amount) */\n      jump\t// in\n    tag_228:\n        /* \".deps/token.sol\":4589:4729  function approveForDEX(address dexAddress, uint256 amount) external onlyOwner {... */\n      pop\n      pop\n      jump\t// out\n        /* \".deps/token.sol\":4223:4581  function adjustTaxes(uint256 newBuyTax, uint256 newSellTax) external onlyOwner {... */\n    tag_112:\n        /* \"@openzeppelin/contracts/access/Ownable.sol\":1531:1544  _checkOwner() */\n      tag_230\n        /* \"@openzeppelin/contracts/access/Ownable.sol\":1531:1542  _checkOwner */\n      tag_199\n        /* \"@openzeppelin/contracts/access/Ownable.sol\":1531:1544  _checkOwner() */\n      jump\t// in\n    tag_230:\n        /* \".deps/token.sol\":4334:4337  100 */\n      0x64\n        /* \".deps/token.sol\":4321:4330  newBuyTax */\n      dup3\n        /* \".deps/token.sol\":4321:4337  newBuyTax <= 100 */\n      gt\n      iszero\n        /* \".deps/token.sol\":4313:4368  require(newBuyTax <= 100, \"Buy tax cannot exceed 100%\") */\n      tag_232\n      jumpi\n      mload(0x40)\n      0x08c379a000000000000000000000000000000000000000000000000000000000\n      dup2\n      mstore\n      0x04\n      add\n      tag_233\n      swap1\n      tag_234\n      jump\t// in\n    tag_233:\n      mload(0x40)\n      dup1\n      swap2\n      sub\n      swap1\n      revert\n    tag_232:\n        /* \".deps/token.sol\":4401:4404  100 */\n      0x64\n        /* \".deps/token.sol\":4387:4397  newSellTax */\n      dup2\n        /* \".deps/token.sol\":4387:4404  newSellTax <= 100 */\n      gt\n      iszero\n        /* \".deps/token.sol\":4379:4436  require(newSellTax <= 100, \"Sell tax cannot exceed 100%\") */\n      tag_235\n      jumpi\n      mload(0x40)\n      0x08c379a000000000000000000000000000000000000000000000000000000000\n      dup2\n      mstore\n      0x04\n      add\n      tag_236\n      swap1\n      tag_237\n      jump\t// in\n    tag_236:\n      mload(0x40)\n      dup1\n      swap2\n      sub\n      swap1\n      revert\n    tag_235:\n        /* \".deps/token.sol\":4469:4478  newBuyTax */\n      dup2\n        /* \".deps/token.sol\":4447:4459  currentTaxes */\n      0x0b\n        /* \".deps/token.sol\":4447:4466  currentTaxes.buyTax */\n      0x00\n      add\n        /* \".deps/token.sol\":4447:4478  currentTaxes.buyTax = newBuyTax */\n      dup2\n      swap1\n      sstore\n      pop\n        /* \".deps/token.sol\":4512:4522  newSellTax */\n      dup1\n        /* \".deps/token.sol\":4489:4501  currentTaxes */\n      0x0b\n        /* \".deps/token.sol\":4489:4509  currentTaxes.sellTax */\n      0x01\n      add\n        /* \".deps/token.sol\":4489:4522  currentTaxes.sellTax = newSellTax */\n      dup2\n      swap1\n      sstore\n      pop\n        /* \".deps/token.sol\":4538:4573  TaxesChanged(newBuyTax, newSellTax) */\n      0x5eee0b95930ee59011f34615b0b7dc6cc58c01d1f07d04a01a3a1e70d2554cf0\n        /* \".deps/token.sol\":4551:4560  newBuyTax */\n      dup3\n        /* \".deps/token.sol\":4562:4572  newSellTax */\n      dup3\n        /* \".deps/token.sol\":4538:4573  TaxesChanged(newBuyTax, newSellTax) */\n      mload(0x40)\n      tag_238\n      swap3\n      swap2\n      swap1\n      tag_169\n      jump\t// in\n    tag_238:\n      mload(0x40)\n      dup1\n      swap2\n      sub\n      swap1\n      log1\n        /* \".deps/token.sol\":4223:4581  function adjustTaxes(uint256 newBuyTax, uint256 newSellTax) external onlyOwner {... */\n      pop\n      pop\n      jump\t// out\n        /* \"@openzeppelin/contracts/token/ERC20/ERC20.sol\":3299:3415  function balanceOf(address account) public view virtual returns (uint256) {... */\n    tag_115:\n        /* \"@openzeppelin/contracts/token/ERC20/ERC20.sol\":3364:3371  uint256 */\n      0x00\n        /* \"@openzeppelin/contracts/token/ERC20/ERC20.sol\":3390:3399  _balances */\n      dup1\n        /* \"@openzeppelin/contracts/token/ERC20/ERC20.sol\":3390:3408  _balances[account] */\n      0x00\n        /* \"@openzeppelin/contracts/token/ERC20/ERC20.sol\":3400:3407  account */\n      dup4\n        /* \"@openzeppelin/contracts/token/ERC20/ERC20.sol\":3390:3408  _balances[account] */\n      0xffffffffffffffffffffffffffffffffffffffff\n      and\n      0xffffffffffffffffffffffffffffffffffffffff\n      and\n      dup2\n      mstore\n      0x20\n      add\n      swap1\n      dup2\n      mstore\n      0x20\n      add\n      0x00\n      keccak256\n      sload\n        /* \"@openzeppelin/contracts/token/ERC20/ERC20.sol\":3383:3408  return _balances[account] */\n      swap1\n      pop\n        /* \"@openzeppelin/contracts/token/ERC20/ERC20.sol\":3299:3415  function balanceOf(address account) public view virtual returns (uint256) {... */\n      swap2\n      swap1\n      pop\n      jump\t// out\n        /* \"@openzeppelin/contracts/access/Ownable.sol\":2293:2394  function renounceOwnership() public virtual onlyOwner {... */\n    tag_118:\n        /* \"@openzeppelin/contracts/access/Ownable.sol\":1531:1544  _checkOwner() */\n      tag_241\n        /* \"@openzeppelin/contracts/access/Ownable.sol\":1531:1542  _checkOwner */\n      tag_199\n        /* \"@openzeppelin/contracts/access/Ownable.sol\":1531:1544  _checkOwner() */\n      jump\t// in\n    tag_241:\n        /* \"@openzeppelin/contracts/access/Ownable.sol\":2357:2387  _transferOwnership(address(0)) */\n      tag_243\n        /* \"@openzeppelin/contracts/access/Ownable.sol\":2384:2385  0 */\n      0x00\n        /* \"@openzeppelin/contracts/access/Ownable.sol\":2357:2375  _transferOwnership */\n      tag_244\n        /* \"@openzeppelin/contracts/access/Ownable.sol\":2357:2387  _transferOwnership(address(0)) */\n      jump\t// in\n    tag_243:\n        /* \"@openzeppelin/contracts/access/Ownable.sol\":2293:2394  function renounceOwnership() public virtual onlyOwner {... */\n      jump\t// out\n        /* \".deps/token.sol\":671:739  uint256 public constant AIRDROP_WALLET_AMOUNT = 27777777777 * 10**18 */\n    tag_120:\n        /* \".deps/token.sol\":719:739  27777777777 * 10**18 */\n      0x59c13d3ea1d47881e3240000\n        /* \".deps/token.sol\":671:739  uint256 public constant AIRDROP_WALLET_AMOUNT = 27777777777 * 10**18 */\n      dup2\n      jump\t// out\n        /* \"@openzeppelin/contracts/token/ERC20/extensions/ERC20Burnable.sol\":1021:1179  function burnFrom(address account, uint256 value) public virtual {... */\n    tag_124:\n        /* \"@openzeppelin/contracts/token/ERC20/extensions/ERC20Burnable.sol\":1096:1141  _spendAllowance(account, _msgSender(), value) */\n      tag_246\n        /* \"@openzeppelin/contracts/token/ERC20/extensions/ERC20Burnable.sol\":1112:1119  account */\n      dup3\n        /* \"@openzeppelin/contracts/token/ERC20/extensions/ERC20Burnable.sol\":1121:1133  _msgSender() */\n      tag_247\n        /* \"@openzeppelin/contracts/token/ERC20/extensions/ERC20Burnable.sol\":1121:1131  _msgSender */\n      tag_186\n        /* \"@openzeppelin/contracts/token/ERC20/extensions/ERC20Burnable.sol\":1121:1133  _msgSender() */\n      jump\t// in\n    tag_247:\n        /* \"@openzeppelin/contracts/token/ERC20/extensions/ERC20Burnable.sol\":1135:1140  value */\n      dup4\n        /* \"@openzeppelin/contracts/token/ERC20/extensions/ERC20Burnable.sol\":1096:1111  _spendAllowance */\n      tag_193\n        /* \"@openzeppelin/contracts/token/ERC20/extensions/ERC20Burnable.sol\":1096:1141  _spendAllowance(account, _msgSender(), value) */\n      jump\t// in\n    tag_246:\n        /* \"@openzeppelin/contracts/token/ERC20/extensions/ERC20Burnable.sol\":1151:1172  _burn(account, value) */\n      tag_248\n        /* \"@openzeppelin/contracts/token/ERC20/extensions/ERC20Burnable.sol\":1157:1164  account */\n      dup3\n        /* \"@openzeppelin/contracts/token/ERC20/extensions/ERC20Burnable.sol\":1166:1171  value */\n      dup3\n        /* \"@openzeppelin/contracts/token/ERC20/extensions/ERC20Burnable.sol\":1151:1156  _burn */\n      tag_211\n        /* \"@openzeppelin/contracts/token/ERC20/extensions/ERC20Burnable.sol\":1151:1172  _burn(account, value) */\n      jump\t// in\n    tag_248:\n        /* \"@openzeppelin/contracts/token/ERC20/extensions/ERC20Burnable.sol\":1021:1179  function burnFrom(address account, uint256 value) public virtual {... */\n      pop\n      pop\n      jump\t// out\n        /* \".deps/token.sol\":2065:2128  function pause() external onlyOwner {... */\n    tag_126:\n        /* \"@openzeppelin/contracts/access/Ownable.sol\":1531:1544  _checkOwner() */\n      tag_250\n        /* \"@openzeppelin/contracts/access/Ownable.sol\":1531:1542  _checkOwner */\n      tag_199\n        /* \"@openzeppelin/contracts/access/Ownable.sol\":1531:1544  _checkOwner() */\n      jump\t// in\n    tag_250:\n        /* \".deps/token.sol\":2112:2120  _pause() */\n      tag_252\n        /* \".deps/token.sol\":2112:2118  _pause */\n      tag_253\n        /* \".deps/token.sol\":2112:2120  _pause() */\n      jump\t// in\n    tag_252:\n        /* \".deps/token.sol\":2065:2128  function pause() external onlyOwner {... */\n      jump\t// out\n        /* \".deps/token.sol\":2675:2789  function removeFromWhitelist(address account) external onlyOwner {... */\n    tag_129:\n        /* \"@openzeppelin/contracts/access/Ownable.sol\":1531:1544  _checkOwner() */\n      tag_255\n        /* \"@openzeppelin/contracts/access/Ownable.sol\":1531:1542  _checkOwner */\n      tag_199\n        /* \"@openzeppelin/contracts/access/Ownable.sol\":1531:1544  _checkOwner() */\n      jump\t// in\n    tag_255:\n        /* \".deps/token.sol\":2776:2781  false */\n      0x00\n        /* \".deps/token.sol\":2751:2764  isWhitelisted */\n      0x08\n        /* \".deps/token.sol\":2751:2773  isWhitelisted[account] */\n      0x00\n        /* \".deps/token.sol\":2765:2772  account */\n      dup4\n        /* \".deps/token.sol\":2751:2773  isWhitelisted[account] */\n      0xffffffffffffffffffffffffffffffffffffffff\n      and\n      0xffffffffffffffffffffffffffffffffffffffff\n      and\n      dup2\n      mstore\n      0x20\n      add\n      swap1\n      dup2\n      mstore\n      0x20\n      add\n      0x00\n      keccak256\n      0x00\n        /* \".deps/token.sol\":2751:2781  isWhitelisted[account] = false */\n      0x0100\n      exp\n      dup2\n      sload\n      dup2\n      0xff\n      mul\n      not\n      and\n      swap1\n      dup4\n      iszero\n      iszero\n      mul\n      or\n      swap1\n      sstore\n      pop\n        /* \".deps/token.sol\":2675:2789  function removeFromWhitelist(address account) external onlyOwner {... */\n      pop\n      jump\t// out\n        /* \"@openzeppelin/contracts/access/Ownable.sol\":1638:1723  function owner() public view virtual returns (address) {... */\n    tag_131:\n        /* \"@openzeppelin/contracts/access/Ownable.sol\":1684:1691  address */\n      0x00\n        /* \"@openzeppelin/contracts/access/Ownable.sol\":1710:1716  _owner */\n      0x05\n      0x00\n      swap1\n      sload\n      swap1\n      0x0100\n      exp\n      swap1\n      div\n      0xffffffffffffffffffffffffffffffffffffffff\n      and\n        /* \"@openzeppelin/contracts/access/Ownable.sol\":1703:1716  return _owner */\n      swap1\n      pop\n        /* \"@openzeppelin/contracts/access/Ownable.sol\":1638:1723  function owner() public view virtual returns (address) {... */\n      swap1\n      jump\t// out\n        /* \"@openzeppelin/contracts/token/ERC20/ERC20.sol\":2276:2369  function symbol() public view virtual returns (string memory) {... */\n    tag_135:\n        /* \"@openzeppelin/contracts/token/ERC20/ERC20.sol\":2323:2336  string memory */\n      0x60\n        /* \"@openzeppelin/contracts/token/ERC20/ERC20.sol\":2355:2362  _symbol */\n      0x04\n        /* \"@openzeppelin/contracts/token/ERC20/ERC20.sol\":2348:2362  return _symbol */\n      dup1\n      sload\n      tag_259\n      swap1\n      tag_179\n      jump\t// in\n    tag_259:\n      dup1\n      0x1f\n      add\n      0x20\n      dup1\n      swap2\n      div\n      mul\n      0x20\n      add\n      mload(0x40)\n      swap1\n      dup2\n      add\n      0x40\n      mstore\n      dup1\n      swap3\n      swap2\n      swap1\n      dup2\n      dup2\n      mstore\n      0x20\n      add\n      dup3\n      dup1\n      sload\n      tag_260\n      swap1\n      tag_179\n      jump\t// in\n    tag_260:\n      dup1\n      iszero\n      tag_261\n      jumpi\n      dup1\n      0x1f\n      lt\n      tag_262\n      jumpi\n      0x0100\n      dup1\n      dup4\n      sload\n      div\n      mul\n      dup4\n      mstore\n      swap2\n      0x20\n      add\n      swap2\n      jump(tag_261)\n    tag_262:\n      dup3\n      add\n      swap2\n      swap1\n      0x00\n      mstore\n      keccak256(0x00, 0x20)\n      swap1\n    tag_263:\n      dup2\n      sload\n      dup2\n      mstore\n      swap1\n      0x01\n      add\n      swap1\n      0x20\n      add\n      dup1\n      dup4\n      gt\n      tag_263\n      jumpi\n      dup3\n      swap1\n      sub\n      0x1f\n      and\n      dup3\n      add\n      swap2\n    tag_261:\n      pop\n      pop\n      pop\n      pop\n      pop\n      swap1\n      pop\n        /* \"@openzeppelin/contracts/token/ERC20/ERC20.sol\":2276:2369  function symbol() public view virtual returns (string memory) {... */\n      swap1\n      jump\t// out\n        /* \".deps/token.sol\":2313:2504  function burn(address account, uint256 amount) public onlyOwner { // Agregar un argumento para la dirección... */\n    tag_139:\n        /* \"@openzeppelin/contracts/access/Ownable.sol\":1531:1544  _checkOwner() */\n      tag_265\n        /* \"@openzeppelin/contracts/access/Ownable.sol\":1531:1542  _checkOwner */\n      tag_199\n        /* \"@openzeppelin/contracts/access/Ownable.sol\":1531:1544  _checkOwner() */\n      jump\t// in\n    tag_265:\n        /* \".deps/token.sol\":2431:2453  _burn(account, amount) */\n      tag_267\n        /* \".deps/token.sol\":2437:2444  account */\n      dup3\n        /* \".deps/token.sol\":2446:2452  amount */\n      dup3\n        /* \".deps/token.sol\":2431:2436  _burn */\n      tag_211\n        /* \".deps/token.sol\":2431:2453  _burn(account, amount) */\n      jump\t// in\n    tag_267:\n        /* \".deps/token.sol\":2313:2504  function burn(address account, uint256 amount) public onlyOwner { // Agregar un argumento para la dirección... */\n      pop\n      pop\n      jump\t// out\n        /* \"@openzeppelin/contracts/token/ERC20/ERC20.sol\":3610:3788  function transfer(address to, uint256 value) public virtual returns (bool) {... */\n    tag_142:\n        /* \"@openzeppelin/contracts/token/ERC20/ERC20.sol\":3679:3683  bool */\n      0x00\n        /* \"@openzeppelin/contracts/token/ERC20/ERC20.sol\":3695:3708  address owner */\n      dup1\n        /* \"@openzeppelin/contracts/token/ERC20/ERC20.sol\":3711:3723  _msgSender() */\n      tag_269\n        /* \"@openzeppelin/contracts/token/ERC20/ERC20.sol\":3711:3721  _msgSender */\n      tag_186\n        /* \"@openzeppelin/contracts/token/ERC20/ERC20.sol\":3711:3723  _msgSender() */\n      jump\t// in\n    tag_269:\n        /* \"@openzeppelin/contracts/token/ERC20/ERC20.sol\":3695:3723  address owner = _msgSender() */\n      swap1\n      pop\n        /* \"@openzeppelin/contracts/token/ERC20/ERC20.sol\":3733:3760  _transfer(owner, to, value) */\n      tag_270\n        /* \"@openzeppelin/contracts/token/ERC20/ERC20.sol\":3743:3748  owner */\n      dup2\n        /* \"@openzeppelin/contracts/token/ERC20/ERC20.sol\":3750:3752  to */\n      dup6\n        /* \"@openzeppelin/contracts/token/ERC20/ERC20.sol\":3754:3759  value */\n      dup6\n        /* \"@openzeppelin/contracts/token/ERC20/ERC20.sol\":3733:3742  _transfer */\n      tag_195\n        /* \"@openzeppelin/contracts/token/ERC20/ERC20.sol\":3733:3760  _transfer(owner, to, value) */\n      jump\t// in\n    tag_270:\n        /* \"@openzeppelin/contracts/token/ERC20/ERC20.sol\":3777:3781  true */\n      0x01\n        /* \"@openzeppelin/contracts/token/ERC20/ERC20.sol\":3770:3781  return true */\n      swap2\n      pop\n      pop\n        /* \"@openzeppelin/contracts/token/ERC20/ERC20.sol\":3610:3788  function transfer(address to, uint256 value) public virtual returns (bool) {... */\n      swap3\n      swap2\n      pop\n      pop\n      jump\t// out\n        /* \".deps/token.sol\":595:664  uint256 public constant MARKETING_WALLET_AMOUNT = 5533333333 * 10**18 */\n    tag_145:\n        /* \".deps/token.sol\":645:664  5533333333 * 10**18 */\n      0x11e110e90947de0410340000\n        /* \".deps/token.sol\":595:664  uint256 public constant MARKETING_WALLET_AMOUNT = 5533333333 * 10**18 */\n      dup2\n      jump\t// out\n        /* \".deps/token.sol\":1091:1129  address payable public treasuryAddress */\n    tag_148:\n      0x0d\n      0x00\n      swap1\n      sload\n      swap1\n      0x0100\n      exp\n      swap1\n      div\n      0xffffffffffffffffffffffffffffffffffffffff\n      and\n      dup2\n      jump\t// out\n        /* \".deps/token.sol\":852:901  mapping(address => bool) public isExcludedFromTax */\n    tag_153:\n      mstore(0x20, 0x0a)\n      dup1\n      0x00\n      mstore\n      keccak256(0x00, 0x40)\n      0x00\n      swap2\n      pop\n      sload\n      swap1\n      0x0100\n      exp\n      swap1\n      div\n      0xff\n      and\n      dup2\n      jump\t// out\n        /* \"@openzeppelin/contracts/token/ERC20/ERC20.sol\":3846:3986  function allowance(address owner, address spender) public view virtual returns (uint256) {... */\n    tag_158:\n        /* \"@openzeppelin/contracts/token/ERC20/ERC20.sol\":3926:3933  uint256 */\n      0x00\n        /* \"@openzeppelin/contracts/token/ERC20/ERC20.sol\":3952:3963  _allowances */\n      0x01\n        /* \"@openzeppelin/contracts/token/ERC20/ERC20.sol\":3952:3970  _allowances[owner] */\n      0x00\n        /* \"@openzeppelin/contracts/token/ERC20/ERC20.sol\":3964:3969  owner */\n      dup5\n        /* \"@openzeppelin/contracts/token/ERC20/ERC20.sol\":3952:3970  _allowances[owner] */\n      0xffffffffffffffffffffffffffffffffffffffff\n      and\n      0xffffffffffffffffffffffffffffffffffffffff\n      and\n      dup2\n      mstore\n      0x20\n      add\n      swap1\n      dup2\n      mstore\n      0x20\n      add\n      0x00\n      keccak256\n        /* \"@openzeppelin/contracts/token/ERC20/ERC20.sol\":3952:3979  _allowances[owner][spender] */\n      0x00\n        /* \"@openzeppelin/contracts/token/ERC20/ERC20.sol\":3971:3978  spender */\n      dup4\n        /* \"@openzeppelin/contracts/token/ERC20/ERC20.sol\":3952:3979  _allowances[owner][spender] */\n      0xffffffffffffffffffffffffffffffffffffffff\n      and\n      0xffffffffffffffffffffffffffffffffffffffff\n      and\n      dup2\n      mstore\n      0x20\n      add\n      swap1\n      dup2\n      mstore\n      0x20\n      add\n      0x00\n      keccak256\n      sload\n        /* \"@openzeppelin/contracts/token/ERC20/ERC20.sol\":3945:3979  return _allowances[owner][spender] */\n      swap1\n      pop\n        /* \"@openzeppelin/contracts/token/ERC20/ERC20.sol\":3846:3986  function allowance(address owner, address spender) public view virtual returns (uint256) {... */\n      swap3\n      swap2\n      pop\n      pop\n      jump\t// out\n        /* \".deps/token.sol\":3210:3321  function includeInTax(address account) external onlyOwner {... */\n    tag_162:\n        /* \"@openzeppelin/contracts/access/Ownable.sol\":1531:1544  _checkOwner() */\n      tag_273\n        /* \"@openzeppelin/contracts/access/Ownable.sol\":1531:1542  _checkOwner */\n      tag_199\n        /* \"@openzeppelin/contracts/access/Ownable.sol\":1531:1544  _checkOwner() */\n      jump\t// in\n    tag_273:\n        /* \".deps/token.sol\":3308:3313  false */\n      0x00\n        /* \".deps/token.sol\":3279:3296  isExcludedFromTax */\n      0x0a\n        /* \".deps/token.sol\":3279:3305  isExcludedFromTax[account] */\n      0x00\n        /* \".deps/token.sol\":3297:3304  account */\n      dup4\n        /* \".deps/token.sol\":3279:3305  isExcludedFromTax[account] */\n      0xffffffffffffffffffffffffffffffffffffffff\n      and\n      0xffffffffffffffffffffffffffffffffffffffff\n      and\n      dup2\n      mstore\n      0x20\n      add\n      swap1\n      dup2\n      mstore\n      0x20\n      add\n      0x00\n      keccak256\n      0x00\n        /* \".deps/token.sol\":3279:3313  isExcludedFromTax[account] = false */\n      0x0100\n      exp\n      dup2\n      sload\n      dup2\n      0xff\n      mul\n      not\n      and\n      swap1\n      dup4\n      iszero\n      iszero\n      mul\n      or\n      swap1\n      sstore\n      pop\n        /* \".deps/token.sol\":3210:3321  function includeInTax(address account) external onlyOwner {... */\n      pop\n      jump\t// out\n        /* \".deps/token.sol\":2559:2667  function addToWhitelist(address account) external onlyOwner {... */\n    tag_165:\n        /* \"@openzeppelin/contracts/access/Ownable.sol\":1531:1544  _checkOwner() */\n      tag_276\n        /* \"@openzeppelin/contracts/access/Ownable.sol\":1531:1542  _checkOwner */\n      tag_199\n        /* \"@openzeppelin/contracts/access/Ownable.sol\":1531:1544  _checkOwner() */\n      jump\t// in\n    tag_276:\n        /* \".deps/token.sol\":2655:2659  true */\n      0x01\n        /* \".deps/token.sol\":2630:2643  isWhitelisted */\n      0x08\n        /* \".deps/token.sol\":2630:2652  isWhitelisted[account] */\n      0x00\n        /* \".deps/token.sol\":2644:2651  account */\n      dup4\n        /* \".deps/token.sol\":2630:2652  isWhitelisted[account] */\n      0xffffffffffffffffffffffffffffffffffffffff\n      and\n      0xffffffffffffffffffffffffffffffffffffffff\n      and\n      dup2\n      mstore\n      0x20\n      add\n      swap1\n      dup2\n      mstore\n      0x20\n      add\n      0x00\n      keccak256\n      0x00\n        /* \".deps/token.sol\":2630:2659  isWhitelisted[account] = true */\n      0x0100\n      exp\n      dup2\n      sload\n      dup2\n      0xff\n      mul\n      not\n      and\n      swap1\n      dup4\n      iszero\n      iszero\n      mul\n      or\n      swap1\n      sstore\n      pop\n        /* \".deps/token.sol\":2559:2667  function addToWhitelist(address account) external onlyOwner {... */\n      pop\n      jump\t// out\n        /* \".deps/token.sol\":991:1016  Taxes public currentTaxes */\n    tag_167:\n      0x0b\n      dup1\n      0x00\n      add\n      sload\n      swap1\n      dup1\n      0x01\n      add\n      sload\n      swap1\n      pop\n      dup3\n      jump\t// out\n        /* \"@openzeppelin/contracts/access/Ownable.sol\":2543:2758  function transferOwnership(address newOwner) public virtual onlyOwner {... */\n    tag_172:\n        /* \"@openzeppelin/contracts/access/Ownable.sol\":1531:1544  _checkOwner() */\n      tag_279\n        /* \"@openzeppelin/contracts/access/Ownable.sol\":1531:1542  _checkOwner */\n      tag_199\n        /* \"@openzeppelin/contracts/access/Ownable.sol\":1531:1544  _checkOwner() */\n      jump\t// in\n    tag_279:\n        /* \"@openzeppelin/contracts/access/Ownable.sol\":2647:2648  0 */\n      0x00\n        /* \"@openzeppelin/contracts/access/Ownable.sol\":2627:2649  newOwner == address(0) */\n      0xffffffffffffffffffffffffffffffffffffffff\n      and\n        /* \"@openzeppelin/contracts/access/Ownable.sol\":2627:2635  newOwner */\n      dup2\n        /* \"@openzeppelin/contracts/access/Ownable.sol\":2627:2649  newOwner == address(0) */\n      0xffffffffffffffffffffffffffffffffffffffff\n      and\n      sub\n        /* \"@openzeppelin/contracts/access/Ownable.sol\":2623:2714  if (newOwner == address(0)) {... */\n      tag_281\n      jumpi\n        /* \"@openzeppelin/contracts/access/Ownable.sol\":2700:2701  0 */\n      0x00\n        /* \"@openzeppelin/contracts/access/Ownable.sol\":2672:2703  OwnableInvalidOwner(address(0)) */\n      mload(0x40)\n      0x1e4fbdf700000000000000000000000000000000000000000000000000000000\n      dup2\n      mstore\n      0x04\n      add\n      tag_282\n      swap2\n      swap1\n      tag_133\n      jump\t// in\n    tag_282:\n      mload(0x40)\n      dup1\n      swap2\n      sub\n      swap1\n      revert\n        /* \"@openzeppelin/contracts/access/Ownable.sol\":2623:2714  if (newOwner == address(0)) {... */\n    tag_281:\n        /* \"@openzeppelin/contracts/access/Ownable.sol\":2723:2751  _transferOwnership(newOwner) */\n      tag_283\n        /* \"@openzeppelin/contracts/access/Ownable.sol\":2742:2750  newOwner */\n      dup2\n        /* \"@openzeppelin/contracts/access/Ownable.sol\":2723:2741  _transferOwnership */\n      tag_244\n        /* \"@openzeppelin/contracts/access/Ownable.sol\":2723:2751  _transferOwnership(newOwner) */\n      jump\t// in\n    tag_283:\n        /* \"@openzeppelin/contracts/access/Ownable.sol\":2543:2758  function transferOwnership(address newOwner) public virtual onlyOwner {... */\n      pop\n      jump\t// out\n        /* \".deps/token.sol\":800:845  mapping(address => bool) public isBlacklisted */\n    tag_175:\n      mstore(0x20, 0x09)\n      dup1\n      0x00\n      mstore\n      keccak256(0x00, 0x40)\n      0x00\n      swap2\n      pop\n      sload\n      swap1\n      0x0100\n      exp\n      swap1\n      div\n      0xff\n      and\n      dup2\n      jump\t// out\n        /* \"@openzeppelin/contracts/utils/Context.sol\":656:752  function _msgSender() internal view virtual returns (address) {... */\n    tag_186:\n        /* \"@openzeppelin/contracts/utils/Context.sol\":709:716  address */\n      0x00\n        /* \"@openzeppelin/contracts/utils/Context.sol\":735:745  msg.sender */\n      caller\n        /* \"@openzeppelin/contracts/utils/Context.sol\":728:745  return msg.sender */\n      swap1\n      pop\n        /* \"@openzeppelin/contracts/utils/Context.sol\":656:752  function _msgSender() internal view virtual returns (address) {... */\n      swap1\n      jump\t// out\n        /* \"@openzeppelin/contracts/token/ERC20/ERC20.sol\":8989:9117  function _approve(address owner, address spender, uint256 value) internal {... */\n    tag_188:\n        /* \"@openzeppelin/contracts/token/ERC20/ERC20.sol\":9073:9110  _approve(owner, spender, value, true) */\n      tag_286\n        /* \"@openzeppelin/contracts/token/ERC20/ERC20.sol\":9082:9087  owner */\n      dup4\n        /* \"@openzeppelin/contracts/token/ERC20/ERC20.sol\":9089:9096  spender */\n      dup4\n        /* \"@openzeppelin/contracts/token/ERC20/ERC20.sol\":9098:9103  value */\n      dup4\n        /* \"@openzeppelin/contracts/token/ERC20/ERC20.sol\":9105:9109  true */\n      0x01\n        /* \"@openzeppelin/contracts/token/ERC20/ERC20.sol\":9073:9081  _approve */\n      tag_287\n        /* \"@openzeppelin/contracts/token/ERC20/ERC20.sol\":9073:9110  _approve(owner, spender, value, true) */\n      jump\t// in\n    tag_286:\n        /* \"@openzeppelin/contracts/token/ERC20/ERC20.sol\":8989:9117  function _approve(address owner, address spender, uint256 value) internal {... */\n      pop\n      pop\n      pop\n      jump\t// out\n        /* \"@openzeppelin/contracts/token/ERC20/ERC20.sol\":10663:11140  function _spendAllowance(address owner, address spender, uint256 value) internal virtual {... */\n    tag_193:\n        /* \"@openzeppelin/contracts/token/ERC20/ERC20.sol\":10762:10786  uint256 currentAllowance */\n      0x00\n        /* \"@openzeppelin/contracts/token/ERC20/ERC20.sol\":10789:10814  allowance(owner, spender) */\n      tag_289\n        /* \"@openzeppelin/contracts/token/ERC20/ERC20.sol\":10799:10804  owner */\n      dup5\n        /* \"@openzeppelin/contracts/token/ERC20/ERC20.sol\":10806:10813  spender */\n      dup5\n        /* \"@openzeppelin/contracts/token/ERC20/ERC20.sol\":10789:10798  allowance */\n      tag_158\n        /* \"@openzeppelin/contracts/token/ERC20/ERC20.sol\":10789:10814  allowance(owner, spender) */\n      jump\t// in\n    tag_289:\n        /* \"@openzeppelin/contracts/token/ERC20/ERC20.sol\":10762:10814  uint256 currentAllowance = allowance(owner, spender) */\n      swap1\n      pop\n        /* \"@openzeppelin/contracts/token/ERC20/ERC20.sol\":10848:10865  type(uint256).max */\n      0xffffffffffffffffffffffffffffffffffffffffffffffffffffffffffffffff\n        /* \"@openzeppelin/contracts/token/ERC20/ERC20.sol\":10828:10844  currentAllowance */\n      dup2\n        /* \"@openzeppelin/contracts/token/ERC20/ERC20.sol\":10828:10865  currentAllowance != type(uint256).max */\n      eq\n        /* \"@openzeppelin/contracts/token/ERC20/ERC20.sol\":10824:11134  if (currentAllowance != type(uint256).max) {... */\n      tag_290\n      jumpi\n        /* \"@openzeppelin/contracts/token/ERC20/ERC20.sol\":10904:10909  value */\n      dup2\n        /* \"@openzeppelin/contracts/token/ERC20/ERC20.sol\":10885:10901  currentAllowance */\n      dup2\n        /* \"@openzeppelin/contracts/token/ERC20/ERC20.sol\":10885:10909  currentAllowance < value */\n      lt\n        /* \"@openzeppelin/contracts/token/ERC20/ERC20.sol\":10881:11011  if (currentAllowance < value) {... */\n      iszero\n      tag_291\n      jumpi\n        /* \"@openzeppelin/contracts/token/ERC20/ERC20.sol\":10963:10970  spender */\n      dup3\n        /* \"@openzeppelin/contracts/token/ERC20/ERC20.sol\":10972:10988  currentAllowance */\n      dup2\n        /* \"@openzeppelin/contracts/token/ERC20/ERC20.sol\":10990:10995  value */\n      dup4\n        /* \"@openzeppelin/contracts/token/ERC20/ERC20.sol\":10936:10996  ERC20InsufficientAllowance(spender, currentAllowance, value) */\n      mload(0x40)\n      0xfb8f41b200000000000000000000000000000000000000000000000000000000\n      dup2\n      mstore\n      0x04\n      add\n      tag_292\n      swap4\n      swap3\n      swap2\n      swap1\n      tag_293\n      jump\t// in\n    tag_292:\n      mload(0x40)\n      dup1\n      swap2\n      sub\n      swap1\n      revert\n        /* \"@openzeppelin/contracts/token/ERC20/ERC20.sol\":10881:11011  if (currentAllowance < value) {... */\n    tag_291:\n        /* \"@openzeppelin/contracts/token/ERC20/ERC20.sol\":11052:11109  _approve(owner, spender, currentAllowance - value, false) */\n      tag_294\n        /* \"@openzeppelin/contracts/token/ERC20/ERC20.sol\":11061:11066  owner */\n      dup5\n        /* \"@openzeppelin/contracts/token/ERC20/ERC20.sol\":11068:11075  spender */\n      dup5\n        /* \"@openzeppelin/contracts/token/ERC20/ERC20.sol\":11096:11101  value */\n      dup5\n        /* \"@openzeppelin/contracts/token/ERC20/ERC20.sol\":11077:11093  currentAllowance */\n      dup5\n        /* \"@openzeppelin/contracts/token/ERC20/ERC20.sol\":11077:11101  currentAllowance - value */\n      sub\n        /* \"@openzeppelin/contracts/token/ERC20/ERC20.sol\":11103:11108  false */\n      0x00\n        /* \"@openzeppelin/contracts/token/ERC20/ERC20.sol\":11052:11060  _approve */\n      tag_287\n        /* \"@openzeppelin/contracts/token/ERC20/ERC20.sol\":11052:11109  _approve(owner, spender, currentAllowance - value, false) */\n      jump\t// in\n    tag_294:\n        /* \"@openzeppelin/contracts/token/ERC20/ERC20.sol\":10824:11134  if (currentAllowance != type(uint256).max) {... */\n    tag_290:\n        /* \"@openzeppelin/contracts/token/ERC20/ERC20.sol\":10752:11140  {... */\n      pop\n        /* \"@openzeppelin/contracts/token/ERC20/ERC20.sol\":10663:11140  function _spendAllowance(address owner, address spender, uint256 value) internal virtual {... */\n      pop\n      pop\n      pop\n      jump\t// out\n        /* \"@openzeppelin/contracts/token/ERC20/ERC20.sol\":5656:5956  function _transfer(address from, address to, uint256 value) internal {... */\n    tag_195:\n        /* \"@openzeppelin/contracts/token/ERC20/ERC20.sol\":5755:5756  0 */\n      0x00\n        /* \"@openzeppelin/contracts/token/ERC20/ERC20.sol\":5739:5757  from == address(0) */\n      0xffffffffffffffffffffffffffffffffffffffff\n      and\n        /* \"@openzeppelin/contracts/token/ERC20/ERC20.sol\":5739:5743  from */\n      dup4\n        /* \"@openzeppelin/contracts/token/ERC20/ERC20.sol\":5739:5757  from == address(0) */\n      0xffffffffffffffffffffffffffffffffffffffff\n      and\n      sub\n        /* \"@openzeppelin/contracts/token/ERC20/ERC20.sol\":5735:5821  if (from == address(0)) {... */\n      tag_296\n      jumpi\n        /* \"@openzeppelin/contracts/token/ERC20/ERC20.sol\":5807:5808  0 */\n      0x00\n        /* \"@openzeppelin/contracts/token/ERC20/ERC20.sol\":5780:5810  ERC20InvalidSender(address(0)) */\n      mload(0x40)\n      0x96c6fd1e00000000000000000000000000000000000000000000000000000000\n      dup2\n      mstore\n      0x04\n      add\n      tag_297\n      swap2\n      swap1\n      tag_133\n      jump\t// in\n    tag_297:\n      mload(0x40)\n      dup1\n      swap2\n      sub\n      swap1\n      revert\n        /* \"@openzeppelin/contracts/token/ERC20/ERC20.sol\":5735:5821  if (from == address(0)) {... */\n    tag_296:\n        /* \"@openzeppelin/contracts/token/ERC20/ERC20.sol\":5848:5849  0 */\n      0x00\n        /* \"@openzeppelin/contracts/token/ERC20/ERC20.sol\":5834:5850  to == address(0) */\n      0xffffffffffffffffffffffffffffffffffffffff\n      and\n        /* \"@openzeppelin/contracts/token/ERC20/ERC20.sol\":5834:5836  to */\n      dup3\n        /* \"@openzeppelin/contracts/token/ERC20/ERC20.sol\":5834:5850  to == address(0) */\n      0xffffffffffffffffffffffffffffffffffffffff\n      and\n      sub\n        /* \"@openzeppelin/contracts/token/ERC20/ERC20.sol\":5830:5916  if (to == address(0)) {... */\n      tag_298\n      jumpi\n        /* \"@openzeppelin/contracts/token/ERC20/ERC20.sol\":5902:5903  0 */\n      0x00\n        /* \"@openzeppelin/contracts/token/ERC20/ERC20.sol\":5873:5905  ERC20InvalidReceiver(address(0)) */\n      mload(0x40)\n      0xec442f0500000000000000000000000000000000000000000000000000000000\n      dup2\n      mstore\n      0x04\n      add\n      tag_299\n      swap2\n      swap1\n      tag_133\n      jump\t// in\n    tag_299:\n      mload(0x40)\n      dup1\n      swap2\n      sub\n      swap1\n      revert\n        /* \"@openzeppelin/contracts/token/ERC20/ERC20.sol\":5830:5916  if (to == address(0)) {... */\n    tag_298:\n        /* \"@openzeppelin/contracts/token/ERC20/ERC20.sol\":5925:5949  _update(from, to, value) */\n      tag_300\n        /* \"@openzeppelin/contracts/token/ERC20/ERC20.sol\":5933:5937  from */\n      dup4\n        /* \"@openzeppelin/contracts/token/ERC20/ERC20.sol\":5939:5941  to */\n      dup4\n        /* \"@openzeppelin/contracts/token/ERC20/ERC20.sol\":5943:5948  value */\n      dup4\n        /* \"@openzeppelin/contracts/token/ERC20/ERC20.sol\":5925:5932  _update */\n      tag_301\n        /* \"@openzeppelin/contracts/token/ERC20/ERC20.sol\":5925:5949  _update(from, to, value) */\n      jump\t// in\n    tag_300:\n        /* \"@openzeppelin/contracts/token/ERC20/ERC20.sol\":5656:5956  function _transfer(address from, address to, uint256 value) internal {... */\n      pop\n      pop\n      pop\n      jump\t// out\n        /* \"@openzeppelin/contracts/access/Ownable.sol\":1796:1958  function _checkOwner() internal view virtual {... */\n    tag_199:\n        /* \"@openzeppelin/contracts/access/Ownable.sol\":1866:1878  _msgSender() */\n      tag_303\n        /* \"@openzeppelin/contracts/access/Ownable.sol\":1866:1876  _msgSender */\n      tag_186\n        /* \"@openzeppelin/contracts/access/Ownable.sol\":1866:1878  _msgSender() */\n      jump\t// in\n    tag_303:\n        /* \"@openzeppelin/contracts/access/Ownable.sol\":1855:1878  owner() != _msgSender() */\n      0xffffffffffffffffffffffffffffffffffffffff\n      and\n        /* \"@openzeppelin/contracts/access/Ownable.sol\":1855:1862  owner() */\n      tag_304\n        /* \"@openzeppelin/contracts/access/Ownable.sol\":1855:1860  owner */\n      tag_131\n        /* \"@openzeppelin/contracts/access/Ownable.sol\":1855:1862  owner() */\n      jump\t// in\n    tag_304:\n        /* \"@openzeppelin/contracts/access/Ownable.sol\":1855:1878  owner() != _msgSender() */\n      0xffffffffffffffffffffffffffffffffffffffff\n      and\n      eq\n        /* \"@openzeppelin/contracts/access/Ownable.sol\":1851:1952  if (owner() != _msgSender()) {... */\n      tag_305\n      jumpi\n        /* \"@openzeppelin/contracts/access/Ownable.sol\":1928:1940  _msgSender() */\n      tag_306\n        /* \"@openzeppelin/contracts/access/Ownable.sol\":1928:1938  _msgSender */\n      tag_186\n        /* \"@openzeppelin/contracts/access/Ownable.sol\":1928:1940  _msgSender() */\n      jump\t// in\n    tag_306:\n        /* \"@openzeppelin/contracts/access/Ownable.sol\":1901:1941  OwnableUnauthorizedAccount(_msgSender()) */\n      mload(0x40)\n      0x118cdaa700000000000000000000000000000000000000000000000000000000\n      dup2\n      mstore\n      0x04\n      add\n      tag_307\n      swap2\n      swap1\n      tag_133\n      jump\t// in\n    tag_307:\n      mload(0x40)\n      dup1\n      swap2\n      sub\n      swap1\n      revert\n        /* \"@openzeppelin/contracts/access/Ownable.sol\":1851:1952  if (owner() != _msgSender()) {... */\n    tag_305:\n        /* \"@openzeppelin/contracts/access/Ownable.sol\":1796:1958  function _checkOwner() internal view virtual {... */\n      jump\t// out\n        /* \"@openzeppelin/contracts/utils/Pausable.sol\":2710:2827  function _unpause() internal virtual whenPaused {... */\n    tag_202:\n        /* \"@openzeppelin/contracts/utils/Pausable.sol\":1721:1737  _requirePaused() */\n      tag_309\n        /* \"@openzeppelin/contracts/utils/Pausable.sol\":1721:1735  _requirePaused */\n      tag_310\n        /* \"@openzeppelin/contracts/utils/Pausable.sol\":1721:1737  _requirePaused() */\n      jump\t// in\n    tag_309:\n        /* \"@openzeppelin/contracts/utils/Pausable.sol\":2778:2783  false */\n      0x00\n        /* \"@openzeppelin/contracts/utils/Pausable.sol\":2768:2775  _paused */\n      0x07\n      0x00\n        /* \"@openzeppelin/contracts/utils/Pausable.sol\":2768:2783  _paused = false */\n      0x0100\n      exp\n      dup2\n      sload\n      dup2\n      0xff\n      mul\n      not\n      and\n      swap1\n      dup4\n      iszero\n      iszero\n      mul\n      or\n      swap1\n      sstore\n      pop\n        /* \"@openzeppelin/contracts/utils/Pausable.sol\":2798:2820  Unpaused(_msgSender()) */\n      0x5db9ee0a495bf2e6ff9c91a7834c1ba4fdd244a5e8aa4e537bd38aeae4b073aa\n        /* \"@openzeppelin/contracts/utils/Pausable.sol\":2807:2819  _msgSender() */\n      tag_312\n        /* \"@openzeppelin/contracts/utils/Pausable.sol\":2807:2817  _msgSender */\n      tag_186\n        /* \"@openzeppelin/contracts/utils/Pausable.sol\":2807:2819  _msgSender() */\n      jump\t// in\n    tag_312:\n        /* \"@openzeppelin/contracts/utils/Pausable.sol\":2798:2820  Unpaused(_msgSender()) */\n      mload(0x40)\n      tag_313\n      swap2\n      swap1\n      tag_133\n      jump\t// in\n    tag_313:\n      mload(0x40)\n      dup1\n      swap2\n      sub\n      swap1\n      log1\n        /* \"@openzeppelin/contracts/utils/Pausable.sol\":2710:2827  function _unpause() internal virtual whenPaused {... */\n      jump\t// out\n        /* \"@openzeppelin/contracts/token/ERC20/ERC20.sol\":7721:7929  function _mint(address account, uint256 value) internal {... */\n    tag_207:\n        /* \"@openzeppelin/contracts/token/ERC20/ERC20.sol\":7810:7811  0 */\n      0x00\n        /* \"@openzeppelin/contracts/token/ERC20/ERC20.sol\":7791:7812  account == address(0) */\n      0xffffffffffffffffffffffffffffffffffffffff\n      and\n        /* \"@openzeppelin/contracts/token/ERC20/ERC20.sol\":7791:7798  account */\n      dup3\n        /* \"@openzeppelin/contracts/token/ERC20/ERC20.sol\":7791:7812  account == address(0) */\n      0xffffffffffffffffffffffffffffffffffffffff\n      and\n      sub\n        /* \"@openzeppelin/contracts/token/ERC20/ERC20.sol\":7787:7878  if (account == address(0)) {... */\n      tag_315\n      jumpi\n        /* \"@openzeppelin/contracts/token/ERC20/ERC20.sol\":7864:7865  0 */\n      0x00\n        /* \"@openzeppelin/contracts/token/ERC20/ERC20.sol\":7835:7867  ERC20InvalidReceiver(address(0)) */\n      mload(0x40)\n      0xec442f0500000000000000000000000000000000000000000000000000000000\n      dup2\n      mstore\n      0x04\n      add\n      tag_316\n      swap2\n      swap1\n      tag_133\n      jump\t// in\n    tag_316:\n      mload(0x40)\n      dup1\n      swap2\n      sub\n      swap1\n      revert\n        /* \"@openzeppelin/contracts/token/ERC20/ERC20.sol\":7787:7878  if (account == address(0)) {... */\n    tag_315:\n        /* \"@openzeppelin/contracts/token/ERC20/ERC20.sol\":7887:7922  _update(address(0), account, value) */\n      tag_317\n        /* \"@openzeppelin/contracts/token/ERC20/ERC20.sol\":7903:7904  0 */\n      0x00\n        /* \"@openzeppelin/contracts/token/ERC20/ERC20.sol\":7907:7914  account */\n      dup4\n        /* \"@openzeppelin/contracts/token/ERC20/ERC20.sol\":7916:7921  value */\n      dup4\n        /* \"@openzeppelin/contracts/token/ERC20/ERC20.sol\":7887:7894  _update */\n      tag_301\n        /* \"@openzeppelin/contracts/token/ERC20/ERC20.sol\":7887:7922  _update(address(0), account, value) */\n      jump\t// in\n    tag_317:\n        /* \"@openzeppelin/contracts/token/ERC20/ERC20.sol\":7721:7929  function _mint(address account, uint256 value) internal {... */\n      pop\n      pop\n      jump\t// out\n        /* \"@openzeppelin/contracts/token/ERC20/ERC20.sol\":8247:8453  function _burn(address account, uint256 value) internal {... */\n    tag_211:\n        /* \"@openzeppelin/contracts/token/ERC20/ERC20.sol\":8336:8337  0 */\n      0x00\n        /* \"@openzeppelin/contracts/token/ERC20/ERC20.sol\":8317:8338  account == address(0) */\n      0xffffffffffffffffffffffffffffffffffffffff\n      and\n        /* \"@openzeppelin/contracts/token/ERC20/ERC20.sol\":8317:8324  account */\n      dup3\n        /* \"@openzeppelin/contracts/token/ERC20/ERC20.sol\":8317:8338  account == address(0) */\n      0xffffffffffffffffffffffffffffffffffffffff\n      and\n      sub\n        /* \"@openzeppelin/contracts/token/ERC20/ERC20.sol\":8313:8402  if (account == address(0)) {... */\n      tag_319\n      jumpi\n        /* \"@openzeppelin/contracts/token/ERC20/ERC20.sol\":8388:8389  0 */\n      0x00\n        /* \"@openzeppelin/contracts/token/ERC20/ERC20.sol\":8361:8391  ERC20InvalidSender(address(0)) */\n      mload(0x40)\n      0x96c6fd1e00000000000000000000000000000000000000000000000000000000\n      dup2\n      mstore\n      0x04\n      add\n      tag_320\n      swap2\n      swap1\n      tag_133\n      jump\t// in\n    tag_320:\n      mload(0x40)\n      dup1\n      swap2\n      sub\n      swap1\n      revert\n        /* \"@openzeppelin/contracts/token/ERC20/ERC20.sol\":8313:8402  if (account == address(0)) {... */\n    tag_319:\n        /* \"@openzeppelin/contracts/token/ERC20/ERC20.sol\":8411:8446  _update(account, address(0), value) */\n      tag_321\n        /* \"@openzeppelin/contracts/token/ERC20/ERC20.sol\":8419:8426  account */\n      dup3\n        /* \"@openzeppelin/contracts/token/ERC20/ERC20.sol\":8436:8437  0 */\n      0x00\n        /* \"@openzeppelin/contracts/token/ERC20/ERC20.sol\":8440:8445  value */\n      dup4\n        /* \"@openzeppelin/contracts/token/ERC20/ERC20.sol\":8411:8418  _update */\n      tag_301\n        /* \"@openzeppelin/contracts/token/ERC20/ERC20.sol\":8411:8446  _update(account, address(0), value) */\n      jump\t// in\n    tag_321:\n        /* \"@openzeppelin/contracts/token/ERC20/ERC20.sol\":8247:8453  function _burn(address account, uint256 value) internal {... */\n      pop\n      pop\n      jump\t// out\n        /* \"@openzeppelin/contracts/access/Ownable.sol\":2912:3099  function _transferOwnership(address newOwner) internal virtual {... */\n    tag_244:\n        /* \"@openzeppelin/contracts/access/Ownable.sol\":2985:3001  address oldOwner */\n      0x00\n        /* \"@openzeppelin/contracts/access/Ownable.sol\":3004:3010  _owner */\n      0x05\n      0x00\n      swap1\n      sload\n      swap1\n      0x0100\n      exp\n      swap1\n      div\n      0xffffffffffffffffffffffffffffffffffffffff\n      and\n        /* \"@openzeppelin/contracts/access/Ownable.sol\":2985:3010  address oldOwner = _owner */\n      swap1\n      pop\n        /* \"@openzeppelin/contracts/access/Ownable.sol\":3029:3037  newOwner */\n      dup2\n        /* \"@openzeppelin/contracts/access/Ownable.sol\":3020:3026  _owner */\n      0x05\n      0x00\n        /* \"@openzeppelin/contracts/access/Ownable.sol\":3020:3037  _owner = newOwner */\n      0x0100\n      exp\n      dup2\n      sload\n      dup2\n      0xffffffffffffffffffffffffffffffffffffffff\n      mul\n      not\n      and\n      swap1\n      dup4\n      0xffffffffffffffffffffffffffffffffffffffff\n      and\n      mul\n      or\n      swap1\n      sstore\n      pop\n        /* \"@openzeppelin/contracts/access/Ownable.sol\":3083:3091  newOwner */\n      dup2\n        /* \"@openzeppelin/contracts/access/Ownable.sol\":3052:3092  OwnershipTransferred(oldOwner, newOwner) */\n      0xffffffffffffffffffffffffffffffffffffffff\n      and\n        /* \"@openzeppelin/contracts/access/Ownable.sol\":3073:3081  oldOwner */\n      dup2\n        /* \"@openzeppelin/contracts/access/Ownable.sol\":3052:3092  OwnershipTransferred(oldOwner, newOwner) */\n      0xffffffffffffffffffffffffffffffffffffffff\n      and\n      0x8be0079c531659141344cd1fd0a4f28419497f9722a3daafe3b4186f6b6457e0\n      mload(0x40)\n      mload(0x40)\n      dup1\n      swap2\n      sub\n      swap1\n      log3\n        /* \"@openzeppelin/contracts/access/Ownable.sol\":2975:3099  {... */\n      pop\n        /* \"@openzeppelin/contracts/access/Ownable.sol\":2912:3099  function _transferOwnership(address newOwner) internal virtual {... */\n      pop\n      jump\t// out\n        /* \"@openzeppelin/contracts/utils/Pausable.sol\":2463:2578  function _pause() internal virtual whenNotPaused {... */\n    tag_253:\n        /* \"@openzeppelin/contracts/utils/Pausable.sol\":1474:1493  _requireNotPaused() */\n      tag_324\n        /* \"@openzeppelin/contracts/utils/Pausable.sol\":1474:1491  _requireNotPaused */\n      tag_325\n        /* \"@openzeppelin/contracts/utils/Pausable.sol\":1474:1493  _requireNotPaused() */\n      jump\t// in\n    tag_324:\n        /* \"@openzeppelin/contracts/utils/Pausable.sol\":2532:2536  true */\n      0x01\n        /* \"@openzeppelin/contracts/utils/Pausable.sol\":2522:2529  _paused */\n      0x07\n      0x00\n        /* \"@openzeppelin/contracts/utils/Pausable.sol\":2522:2536  _paused = true */\n      0x0100\n      exp\n      dup2\n      sload\n      dup2\n      0xff\n      mul\n      not\n      and\n      swap1\n      dup4\n      iszero\n      iszero\n      mul\n      or\n      swap1\n      sstore\n      pop\n        /* \"@openzeppelin/contracts/utils/Pausable.sol\":2551:2571  Paused(_msgSender()) */\n      0x62e78cea01bee320cd4e420270b5ea74000d11b0c9f74754ebdbfc544b05a258\n        /* \"@openzeppelin/contracts/utils/Pausable.sol\":2558:2570  _msgSender() */\n      tag_327\n        /* \"@openzeppelin/contracts/utils/Pausable.sol\":2558:2568  _msgSender */\n      tag_186\n        /* \"@openzeppelin/contracts/utils/Pausable.sol\":2558:2570  _msgSender() */\n      jump\t// in\n    tag_327:\n        /* \"@openzeppelin/contracts/utils/Pausable.sol\":2551:2571  Paused(_msgSender()) */\n      mload(0x40)\n      tag_328\n      swap2\n      swap1\n      tag_133\n      jump\t// in\n    tag_328:\n      mload(0x40)\n      dup1\n      swap2\n      sub\n      swap1\n      log1\n        /* \"@openzeppelin/contracts/utils/Pausable.sol\":2463:2578  function _pause() internal virtual whenNotPaused {... */\n      jump\t// out\n        /* \"@openzeppelin/contracts/token/ERC20/ERC20.sol\":9949:10381  function _approve(address owner, address spender, uint256 value, bool emitEvent) internal virtual {... */\n    tag_287:\n        /* \"@openzeppelin/contracts/token/ERC20/ERC20.sol\":10078:10079  0 */\n      0x00\n        /* \"@openzeppelin/contracts/token/ERC20/ERC20.sol\":10061:10080  owner == address(0) */\n      0xffffffffffffffffffffffffffffffffffffffff\n      and\n        /* \"@openzeppelin/contracts/token/ERC20/ERC20.sol\":10061:10066  owner */\n      dup5\n        /* \"@openzeppelin/contracts/token/ERC20/ERC20.sol\":10061:10080  owner == address(0) */\n      0xffffffffffffffffffffffffffffffffffffffff\n      and\n      sub\n        /* \"@openzeppelin/contracts/token/ERC20/ERC20.sol\":10057:10146  if (owner == address(0)) {... */\n      tag_330\n      jumpi\n        /* \"@openzeppelin/contracts/token/ERC20/ERC20.sol\":10132:10133  0 */\n      0x00\n        /* \"@openzeppelin/contracts/token/ERC20/ERC20.sol\":10103:10135  ERC20InvalidApprover(address(0)) */\n      mload(0x40)\n      0xe602df0500000000000000000000000000000000000000000000000000000000\n      dup2\n      mstore\n      0x04\n      add\n      tag_331\n      swap2\n      swap1\n      tag_133\n      jump\t// in\n    tag_331:\n      mload(0x40)\n      dup1\n      swap2\n      sub\n      swap1\n      revert\n        /* \"@openzeppelin/contracts/token/ERC20/ERC20.sol\":10057:10146  if (owner == address(0)) {... */\n    tag_330:\n        /* \"@openzeppelin/contracts/token/ERC20/ERC20.sol\":10178:10179  0 */\n      0x00\n        /* \"@openzeppelin/contracts/token/ERC20/ERC20.sol\":10159:10180  spender == address(0) */\n      0xffffffffffffffffffffffffffffffffffffffff\n      and\n        /* \"@openzeppelin/contracts/token/ERC20/ERC20.sol\":10159:10166  spender */\n      dup4\n        /* \"@openzeppelin/contracts/token/ERC20/ERC20.sol\":10159:10180  spender == address(0) */\n      0xffffffffffffffffffffffffffffffffffffffff\n      and\n      sub\n        /* \"@openzeppelin/contracts/token/ERC20/ERC20.sol\":10155:10245  if (spender == address(0)) {... */\n      tag_332\n      jumpi\n        /* \"@openzeppelin/contracts/token/ERC20/ERC20.sol\":10231:10232  0 */\n      0x00\n        /* \"@openzeppelin/contracts/token/ERC20/ERC20.sol\":10203:10234  ERC20InvalidSpender(address(0)) */\n      mload(0x40)\n      0x94280d6200000000000000000000000000000000000000000000000000000000\n      dup2\n      mstore\n      0x04\n      add\n      tag_333\n      swap2\n      swap1\n      tag_133\n      jump\t// in\n    tag_333:\n      mload(0x40)\n      dup1\n      swap2\n      sub\n      swap1\n      revert\n        /* \"@openzeppelin/contracts/token/ERC20/ERC20.sol\":10155:10245  if (spender == address(0)) {... */\n    tag_332:\n        /* \"@openzeppelin/contracts/token/ERC20/ERC20.sol\":10284:10289  value */\n      dup2\n        /* \"@openzeppelin/contracts/token/ERC20/ERC20.sol\":10254:10265  _allowances */\n      0x01\n        /* \"@openzeppelin/contracts/token/ERC20/ERC20.sol\":10254:10272  _allowances[owner] */\n      0x00\n        /* \"@openzeppelin/contracts/token/ERC20/ERC20.sol\":10266:10271  owner */\n      dup7\n        /* \"@openzeppelin/contracts/token/ERC20/ERC20.sol\":10254:10272  _allowances[owner] */\n      0xffffffffffffffffffffffffffffffffffffffff\n      and\n      0xffffffffffffffffffffffffffffffffffffffff\n      and\n      dup2\n      mstore\n      0x20\n      add\n      swap1\n      dup2\n      mstore\n      0x20\n      add\n      0x00\n      keccak256\n        /* \"@openzeppelin/contracts/token/ERC20/ERC20.sol\":10254:10281  _allowances[owner][spender] */\n      0x00\n        /* \"@openzeppelin/contracts/token/ERC20/ERC20.sol\":10273:10280  spender */\n      dup6\n        /* \"@openzeppelin/contracts/token/ERC20/ERC20.sol\":10254:10281  _allowances[owner][spender] */\n      0xffffffffffffffffffffffffffffffffffffffff\n      and\n      0xffffffffffffffffffffffffffffffffffffffff\n      and\n      dup2\n      mstore\n      0x20\n      add\n      swap1\n      dup2\n      mstore\n      0x20\n      add\n      0x00\n      keccak256\n        /* \"@openzeppelin/contracts/token/ERC20/ERC20.sol\":10254:10289  _allowances[owner][spender] = value */\n      dup2\n      swap1\n      sstore\n      pop\n        /* \"@openzeppelin/contracts/token/ERC20/ERC20.sol\":10303:10312  emitEvent */\n      dup1\n        /* \"@openzeppelin/contracts/token/ERC20/ERC20.sol\":10299:10375  if (emitEvent) {... */\n      iszero\n      tag_334\n      jumpi\n        /* \"@openzeppelin/contracts/token/ERC20/ERC20.sol\":10349:10356  spender */\n      dup3\n        /* \"@openzeppelin/contracts/token/ERC20/ERC20.sol\":10333:10364  Approval(owner, spender, value) */\n      0xffffffffffffffffffffffffffffffffffffffff\n      and\n        /* \"@openzeppelin/contracts/token/ERC20/ERC20.sol\":10342:10347  owner */\n      dup5\n        /* \"@openzeppelin/contracts/token/ERC20/ERC20.sol\":10333:10364  Approval(owner, spender, value) */\n      0xffffffffffffffffffffffffffffffffffffffff\n      and\n      0x8c5be1e5ebec7d5bd14f71427d1e84f3dd0314c0f7b2291e5b200ac8c7c3b925\n        /* \"@openzeppelin/contracts/token/ERC20/ERC20.sol\":10358:10363  value */\n      dup5\n        /* \"@openzeppelin/contracts/token/ERC20/ERC20.sol\":10333:10364  Approval(owner, spender, value) */\n      mload(0x40)\n      tag_335\n      swap2\n      swap1\n      tag_60\n      jump\t// in\n    tag_335:\n      mload(0x40)\n      dup1\n      swap2\n      sub\n      swap1\n      log3\n        /* \"@openzeppelin/contracts/token/ERC20/ERC20.sol\":10299:10375  if (emitEvent) {... */\n    tag_334:\n        /* \"@openzeppelin/contracts/token/ERC20/ERC20.sol\":9949:10381  function _approve(address owner, address spender, uint256 value, bool emitEvent) internal virtual {... */\n      pop\n      pop\n      pop\n      pop\n      jump\t// out\n        /* \"@openzeppelin/contracts/token/ERC20/ERC20.sol\":6271:7378  function _update(address from, address to, uint256 value) internal virtual {... */\n    tag_301:\n        /* \"@openzeppelin/contracts/token/ERC20/ERC20.sol\":6376:6377  0 */\n      0x00\n        /* \"@openzeppelin/contracts/token/ERC20/ERC20.sol\":6360:6378  from == address(0) */\n      0xffffffffffffffffffffffffffffffffffffffff\n      and\n        /* \"@openzeppelin/contracts/token/ERC20/ERC20.sol\":6360:6364  from */\n      dup4\n        /* \"@openzeppelin/contracts/token/ERC20/ERC20.sol\":6360:6378  from == address(0) */\n      0xffffffffffffffffffffffffffffffffffffffff\n      and\n      sub\n        /* \"@openzeppelin/contracts/token/ERC20/ERC20.sol\":6356:6896  if (from == address(0)) {... */\n      tag_337\n      jumpi\n        /* \"@openzeppelin/contracts/token/ERC20/ERC20.sol\":6512:6517  value */\n      dup1\n        /* \"@openzeppelin/contracts/token/ERC20/ERC20.sol\":6496:6508  _totalSupply */\n      0x02\n      0x00\n        /* \"@openzeppelin/contracts/token/ERC20/ERC20.sol\":6496:6517  _totalSupply += value */\n      dup3\n      dup3\n      sload\n      tag_338\n      swap2\n      swap1\n      tag_339\n      jump\t// in\n    tag_338:\n      swap3\n      pop\n      pop\n      dup2\n      swap1\n      sstore\n      pop\n        /* \"@openzeppelin/contracts/token/ERC20/ERC20.sol\":6356:6896  if (from == address(0)) {... */\n      jump(tag_340)\n    tag_337:\n        /* \"@openzeppelin/contracts/token/ERC20/ERC20.sol\":6548:6567  uint256 fromBalance */\n      0x00\n        /* \"@openzeppelin/contracts/token/ERC20/ERC20.sol\":6570:6579  _balances */\n      dup1\n        /* \"@openzeppelin/contracts/token/ERC20/ERC20.sol\":6570:6585  _balances[from] */\n      0x00\n        /* \"@openzeppelin/contracts/token/ERC20/ERC20.sol\":6580:6584  from */\n      dup6\n        /* \"@openzeppelin/contracts/token/ERC20/ERC20.sol\":6570:6585  _balances[from] */\n      0xffffffffffffffffffffffffffffffffffffffff\n      and\n      0xffffffffffffffffffffffffffffffffffffffff\n      and\n      dup2\n      mstore\n      0x20\n      add\n      swap1\n      dup2\n      mstore\n      0x20\n      add\n      0x00\n      keccak256\n      sload\n        /* \"@openzeppelin/contracts/token/ERC20/ERC20.sol\":6548:6585  uint256 fromBalance = _balances[from] */\n      swap1\n      pop\n        /* \"@openzeppelin/contracts/token/ERC20/ERC20.sol\":6617:6622  value */\n      dup2\n        /* \"@openzeppelin/contracts/token/ERC20/ERC20.sol\":6603:6614  fromBalance */\n      dup2\n        /* \"@openzeppelin/contracts/token/ERC20/ERC20.sol\":6603:6622  fromBalance < value */\n      lt\n        /* \"@openzeppelin/contracts/token/ERC20/ERC20.sol\":6599:6714  if (fromBalance < value) {... */\n      iszero\n      tag_341\n      jumpi\n        /* \"@openzeppelin/contracts/token/ERC20/ERC20.sol\":6674:6678  from */\n      dup4\n        /* \"@openzeppelin/contracts/token/ERC20/ERC20.sol\":6680:6691  fromBalance */\n      dup2\n        /* \"@openzeppelin/contracts/token/ERC20/ERC20.sol\":6693:6698  value */\n      dup4\n        /* \"@openzeppelin/contracts/token/ERC20/ERC20.sol\":6649:6699  ERC20InsufficientBalance(from, fromBalance, value) */\n      mload(0x40)\n      0xe450d38c00000000000000000000000000000000000000000000000000000000\n      dup2\n      mstore\n      0x04\n      add\n      tag_342\n      swap4\n      swap3\n      swap2\n      swap1\n      tag_293\n      jump\t// in\n    tag_342:\n      mload(0x40)\n      dup1\n      swap2\n      sub\n      swap1\n      revert\n        /* \"@openzeppelin/contracts/token/ERC20/ERC20.sol\":6599:6714  if (fromBalance < value) {... */\n    tag_341:\n        /* \"@openzeppelin/contracts/token/ERC20/ERC20.sol\":6866:6871  value */\n      dup2\n        /* \"@openzeppelin/contracts/token/ERC20/ERC20.sol\":6852:6863  fromBalance */\n      dup2\n        /* \"@openzeppelin/contracts/token/ERC20/ERC20.sol\":6852:6871  fromBalance - value */\n      sub\n        /* \"@openzeppelin/contracts/token/ERC20/ERC20.sol\":6834:6843  _balances */\n      0x00\n        /* \"@openzeppelin/contracts/token/ERC20/ERC20.sol\":6834:6849  _balances[from] */\n      dup1\n        /* \"@openzeppelin/contracts/token/ERC20/ERC20.sol\":6844:6848  from */\n      dup7\n        /* \"@openzeppelin/contracts/token/ERC20/ERC20.sol\":6834:6849  _balances[from] */\n      0xffffffffffffffffffffffffffffffffffffffff\n      and\n      0xffffffffffffffffffffffffffffffffffffffff\n      and\n      dup2\n      mstore\n      0x20\n      add\n      swap1\n      dup2\n      mstore\n      0x20\n      add\n      0x00\n      keccak256\n        /* \"@openzeppelin/contracts/token/ERC20/ERC20.sol\":6834:6871  _balances[from] = fromBalance - value */\n      dup2\n      swap1\n      sstore\n      pop\n        /* \"@openzeppelin/contracts/token/ERC20/ERC20.sol\":6534:6896  {... */\n      pop\n        /* \"@openzeppelin/contracts/token/ERC20/ERC20.sol\":6356:6896  if (from == address(0)) {... */\n    tag_340:\n        /* \"@openzeppelin/contracts/token/ERC20/ERC20.sol\":6924:6925  0 */\n      0x00\n        /* \"@openzeppelin/contracts/token/ERC20/ERC20.sol\":6910:6926  to == address(0) */\n      0xffffffffffffffffffffffffffffffffffffffff\n      and\n        /* \"@openzeppelin/contracts/token/ERC20/ERC20.sol\":6910:6912  to */\n      dup3\n        /* \"@openzeppelin/contracts/token/ERC20/ERC20.sol\":6910:6926  to == address(0) */\n      0xffffffffffffffffffffffffffffffffffffffff\n      and\n      sub\n        /* \"@openzeppelin/contracts/token/ERC20/ERC20.sol\":6906:7331  if (to == address(0)) {... */\n      tag_343\n      jumpi\n        /* \"@openzeppelin/contracts/token/ERC20/ERC20.sol\":7089:7094  value */\n      dup1\n        /* \"@openzeppelin/contracts/token/ERC20/ERC20.sol\":7073:7085  _totalSupply */\n      0x02\n      0x00\n        /* \"@openzeppelin/contracts/token/ERC20/ERC20.sol\":7073:7094  _totalSupply -= value */\n      dup3\n      dup3\n      sload\n      sub\n      swap3\n      pop\n      pop\n      dup2\n      swap1\n      sstore\n      pop\n        /* \"@openzeppelin/contracts/token/ERC20/ERC20.sol\":6906:7331  if (to == address(0)) {... */\n      jump(tag_344)\n    tag_343:\n        /* \"@openzeppelin/contracts/token/ERC20/ERC20.sol\":7301:7306  value */\n      dup1\n        /* \"@openzeppelin/contracts/token/ERC20/ERC20.sol\":7284:7293  _balances */\n      0x00\n        /* \"@openzeppelin/contracts/token/ERC20/ERC20.sol\":7284:7297  _balances[to] */\n      dup1\n        /* \"@openzeppelin/contracts/token/ERC20/ERC20.sol\":7294:7296  to */\n      dup5\n        /* \"@openzeppelin/contracts/token/ERC20/ERC20.sol\":7284:7297  _balances[to] */\n      0xffffffffffffffffffffffffffffffffffffffff\n      and\n      0xffffffffffffffffffffffffffffffffffffffff\n      and\n      dup2\n      mstore\n      0x20\n      add\n      swap1\n      dup2\n      mstore\n      0x20\n      add\n      0x00\n      keccak256\n      0x00\n        /* \"@openzeppelin/contracts/token/ERC20/ERC20.sol\":7284:7306  _balances[to] += value */\n      dup3\n      dup3\n      sload\n      add\n      swap3\n      pop\n      pop\n      dup2\n      swap1\n      sstore\n      pop\n        /* \"@openzeppelin/contracts/token/ERC20/ERC20.sol\":6906:7331  if (to == address(0)) {... */\n    tag_344:\n        /* \"@openzeppelin/contracts/token/ERC20/ERC20.sol\":7361:7363  to */\n      dup2\n        /* \"@openzeppelin/contracts/token/ERC20/ERC20.sol\":7346:7371  Transfer(from, to, value) */\n      0xffffffffffffffffffffffffffffffffffffffff\n      and\n        /* \"@openzeppelin/contracts/token/ERC20/ERC20.sol\":7355:7359  from */\n      dup4\n        /* \"@openzeppelin/contracts/token/ERC20/ERC20.sol\":7346:7371  Transfer(from, to, value) */\n      0xffffffffffffffffffffffffffffffffffffffff\n      and\n      0xddf252ad1be2c89b69c2b068fc378daa952ba7f163c4a11628f55a4df523b3ef\n        /* \"@openzeppelin/contracts/token/ERC20/ERC20.sol\":7365:7370  value */\n      dup4\n        /* \"@openzeppelin/contracts/token/ERC20/ERC20.sol\":7346:7371  Transfer(from, to, value) */\n      mload(0x40)\n      tag_345\n      swap2\n      swap1\n      tag_60\n      jump\t// in\n    tag_345:\n      mload(0x40)\n      dup1\n      swap2\n      sub\n      swap1\n      log3\n        /* \"@openzeppelin/contracts/token/ERC20/ERC20.sol\":6271:7378  function _update(address from, address to, uint256 value) internal virtual {... */\n      pop\n      pop\n      pop\n      jump\t// out\n        /* \"@openzeppelin/contracts/utils/Pausable.sol\":2202:2328  function _requirePaused() internal view virtual {... */\n    tag_310:\n        /* \"@openzeppelin/contracts/utils/Pausable.sol\":2265:2273  paused() */\n      tag_347\n        /* \"@openzeppelin/contracts/utils/Pausable.sol\":2265:2271  paused */\n      tag_97\n        /* \"@openzeppelin/contracts/utils/Pausable.sol\":2265:2273  paused() */\n      jump\t// in\n    tag_347:\n        /* \"@openzeppelin/contracts/utils/Pausable.sol\":2260:2322  if (!paused()) {... */\n      tag_348\n      jumpi\n        /* \"@openzeppelin/contracts/utils/Pausable.sol\":2296:2311  ExpectedPause() */\n      mload(0x40)\n      0x8dfc202b00000000000000000000000000000000000000000000000000000000\n      dup2\n      mstore\n      0x04\n      add\n      mload(0x40)\n      dup1\n      swap2\n      sub\n      swap1\n      revert\n        /* \"@openzeppelin/contracts/utils/Pausable.sol\":2260:2322  if (!paused()) {... */\n    tag_348:\n        /* \"@openzeppelin/contracts/utils/Pausable.sol\":2202:2328  function _requirePaused() internal view virtual {... */\n      jump\t// out\n        /* \"@openzeppelin/contracts/utils/Pausable.sol\":2002:2130  function _requireNotPaused() internal view virtual {... */\n    tag_325:\n        /* \"@openzeppelin/contracts/utils/Pausable.sol\":2067:2075  paused() */\n      tag_350\n        /* \"@openzeppelin/contracts/utils/Pausable.sol\":2067:2073  paused */\n      tag_97\n        /* \"@openzeppelin/contracts/utils/Pausable.sol\":2067:2075  paused() */\n      jump\t// in\n    tag_350:\n        /* \"@openzeppelin/contracts/utils/Pausable.sol\":2063:2124  if (paused()) {... */\n      iszero\n      tag_351\n      jumpi\n        /* \"@openzeppelin/contracts/utils/Pausable.sol\":2098:2113  EnforcedPause() */\n      mload(0x40)\n      0xd93c066500000000000000000000000000000000000000000000000000000000\n      dup2\n      mstore\n      0x04\n      add\n      mload(0x40)\n      dup1\n      swap2\n      sub\n      swap1\n      revert\n        /* \"@openzeppelin/contracts/utils/Pausable.sol\":2063:2124  if (paused()) {... */\n    tag_351:\n        /* \"@openzeppelin/contracts/utils/Pausable.sol\":2002:2130  function _requireNotPaused() internal view virtual {... */\n      jump\t// out\n        /* \"#utility.yul\":7:106   */\n    tag_352:\n        /* \"#utility.yul\":59:65   */\n      0x00\n        /* \"#utility.yul\":93:98   */\n      dup2\n        /* \"#utility.yul\":87:99   */\n      mload\n        /* \"#utility.yul\":77:99   */\n      swap1\n      pop\n        /* \"#utility.yul\":7:106   */\n      swap2\n      swap1\n      pop\n      jump\t// out\n        /* \"#utility.yul\":112:281   */\n    tag_353:\n        /* \"#utility.yul\":196:207   */\n      0x00\n        /* \"#utility.yul\":230:236   */\n      dup3\n        /* \"#utility.yul\":225:228   */\n      dup3\n        /* \"#utility.yul\":218:237   */\n      mstore\n        /* \"#utility.yul\":270:274   */\n      0x20\n        /* \"#utility.yul\":265:268   */\n      dup3\n        /* \"#utility.yul\":261:275   */\n      add\n        /* \"#utility.yul\":246:275   */\n      swap1\n      pop\n        /* \"#utility.yul\":112:281   */\n      swap3\n      swap2\n      pop\n      pop\n      jump\t// out\n        /* \"#utility.yul\":287:533   */\n    tag_354:\n        /* \"#utility.yul\":368:369   */\n      0x00\n        /* \"#utility.yul\":378:491   */\n    tag_387:\n        /* \"#utility.yul\":392:398   */\n      dup4\n        /* \"#utility.yul\":389:390   */\n      dup2\n        /* \"#utility.yul\":386:399   */\n      lt\n        /* \"#utility.yul\":378:491   */\n      iszero\n      tag_389\n      jumpi\n        /* \"#utility.yul\":477:478   */\n      dup1\n        /* \"#utility.yul\":472:475   */\n      dup3\n        /* \"#utility.yul\":468:479   */\n      add\n        /* \"#utility.yul\":462:480   */\n      mload\n        /* \"#utility.yul\":458:459   */\n      dup2\n        /* \"#utility.yul\":453:456   */\n      dup5\n        /* \"#utility.yul\":449:460   */\n      add\n        /* \"#utility.yul\":442:481   */\n      mstore\n        /* \"#utility.yul\":414:416   */\n      0x20\n        /* \"#utility.yul\":411:412   */\n      dup2\n        /* \"#utility.yul\":407:417   */\n      add\n        /* \"#utility.yul\":402:417   */\n      swap1\n      pop\n        /* \"#utility.yul\":378:491   */\n      jump(tag_387)\n    tag_389:\n        /* \"#utility.yul\":525:526   */\n      0x00\n        /* \"#utility.yul\":516:522   */\n      dup5\n        /* \"#utility.yul\":511:514   */\n      dup5\n        /* \"#utility.yul\":507:523   */\n      add\n        /* \"#utility.yul\":500:527   */\n      mstore\n        /* \"#utility.yul\":349:533   */\n      pop\n        /* \"#utility.yul\":287:533   */\n      pop\n      pop\n      pop\n      jump\t// out\n        /* \"#utility.yul\":539:641   */\n    tag_355:\n        /* \"#utility.yul\":580:586   */\n      0x00\n        /* \"#utility.yul\":631:633   */\n      0x1f\n        /* \"#utility.yul\":627:634   */\n      not\n        /* \"#utility.yul\":622:624   */\n      0x1f\n        /* \"#utility.yul\":615:620   */\n      dup4\n        /* \"#utility.yul\":611:625   */\n      add\n        /* \"#utility.yul\":607:635   */\n      and\n        /* \"#utility.yul\":597:635   */\n      swap1\n      pop\n        /* \"#utility.yul\":539:641   */\n      swap2\n      swap1\n      pop\n      jump\t// out\n        /* \"#utility.yul\":647:1024   */\n    tag_356:\n        /* \"#utility.yul\":735:738   */\n      0x00\n        /* \"#utility.yul\":763:802   */\n      tag_392\n        /* \"#utility.yul\":796:801   */\n      dup3\n        /* \"#utility.yul\":763:802   */\n      tag_352\n      jump\t// in\n    tag_392:\n        /* \"#utility.yul\":818:889   */\n      tag_393\n        /* \"#utility.yul\":882:888   */\n      dup2\n        /* \"#utility.yul\":877:880   */\n      dup6\n        /* \"#utility.yul\":818:889   */\n      tag_353\n      jump\t// in\n    tag_393:\n        /* \"#utility.yul\":811:889   */\n      swap4\n      pop\n        /* \"#utility.yul\":898:963   */\n      tag_394\n        /* \"#utility.yul\":956:962   */\n      dup2\n        /* \"#utility.yul\":951:954   */\n      dup6\n        /* \"#utility.yul\":944:948   */\n      0x20\n        /* \"#utility.yul\":937:942   */\n      dup7\n        /* \"#utility.yul\":933:949   */\n      add\n        /* \"#utility.yul\":898:963   */\n      tag_354\n      jump\t// in\n    tag_394:\n        /* \"#utility.yul\":988:1017   */\n      tag_395\n        /* \"#utility.yul\":1010:1016   */\n      dup2\n        /* \"#utility.yul\":988:1017   */\n      tag_355\n      jump\t// in\n    tag_395:\n        /* \"#utility.yul\":983:986   */\n      dup5\n        /* \"#utility.yul\":979:1018   */\n      add\n        /* \"#utility.yul\":972:1018   */\n      swap2\n      pop\n        /* \"#utility.yul\":739:1024   */\n      pop\n        /* \"#utility.yul\":647:1024   */\n      swap3\n      swap2\n      pop\n      pop\n      jump\t// out\n        /* \"#utility.yul\":1030:1343   */\n    tag_50:\n        /* \"#utility.yul\":1143:1147   */\n      0x00\n        /* \"#utility.yul\":1181:1183   */\n      0x20\n        /* \"#utility.yul\":1170:1179   */\n      dup3\n        /* \"#utility.yul\":1166:1184   */\n      add\n        /* \"#utility.yul\":1158:1184   */\n      swap1\n      pop\n        /* \"#utility.yul\":1230:1239   */\n      dup2\n        /* \"#utility.yul\":1224:1228   */\n      dup2\n        /* \"#utility.yul\":1220:1240   */\n      sub\n        /* \"#utility.yul\":1216:1217   */\n      0x00\n        /* \"#utility.yul\":1205:1214   */\n      dup4\n        /* \"#utility.yul\":1201:1218   */\n      add\n        /* \"#utility.yul\":1194:1241   */\n      mstore\n        /* \"#utility.yul\":1258:1336   */\n      tag_397\n        /* \"#utility.yul\":1331:1335   */\n      dup2\n        /* \"#utility.yul\":1322:1328   */\n      dup5\n        /* \"#utility.yul\":1258:1336   */\n      tag_356\n      jump\t// in\n    tag_397:\n        /* \"#utility.yul\":1250:1336   */\n      swap1\n      pop\n        /* \"#utility.yul\":1030:1343   */\n      swap3\n      swap2\n      pop\n      pop\n      jump\t// out\n        /* \"#utility.yul\":1430:1547   */\n    tag_358:\n        /* \"#utility.yul\":1539:1540   */\n      0x00\n        /* \"#utility.yul\":1536:1537   */\n      dup1\n        /* \"#utility.yul\":1529:1541   */\n      revert\n        /* \"#utility.yul\":1676:1802   */\n    tag_360:\n        /* \"#utility.yul\":1713:1720   */\n      0x00\n        /* \"#utility.yul\":1753:1795   */\n      0xffffffffffffffffffffffffffffffffffffffff\n        /* \"#utility.yul\":1746:1751   */\n      dup3\n        /* \"#utility.yul\":1742:1796   */\n      and\n        /* \"#utility.yul\":1731:1796   */\n      swap1\n      pop\n        /* \"#utility.yul\":1676:1802   */\n      swap2\n      swap1\n      pop\n      jump\t// out\n        /* \"#utility.yul\":1808:1904   */\n    tag_361:\n        /* \"#utility.yul\":1845:1852   */\n      0x00\n        /* \"#utility.yul\":1874:1898   */\n      tag_403\n        /* \"#utility.yul\":1892:1897   */\n      dup3\n        /* \"#utility.yul\":1874:1898   */\n      tag_360\n      jump\t// in\n    tag_403:\n        /* \"#utility.yul\":1863:1898   */\n      swap1\n      pop\n        /* \"#utility.yul\":1808:1904   */\n      swap2\n      swap1\n      pop\n      jump\t// out\n        /* \"#utility.yul\":1910:2032   */\n    tag_362:\n        /* \"#utility.yul\":1983:2007   */\n      tag_405\n        /* \"#utility.yul\":2001:2006   */\n      dup2\n        /* \"#utility.yul\":1983:2007   */\n      tag_361\n      jump\t// in\n    tag_405:\n        /* \"#utility.yul\":1976:1981   */\n      dup2\n        /* \"#utility.yul\":1973:2008   */\n      eq\n        /* \"#utility.yul\":1963:2026   */\n      tag_406\n      jumpi\n        /* \"#utility.yul\":2022:2023   */\n      0x00\n        /* \"#utility.yul\":2019:2020   */\n      dup1\n        /* \"#utility.yul\":2012:2024   */\n      revert\n        /* \"#utility.yul\":1963:2026   */\n    tag_406:\n        /* \"#utility.yul\":1910:2032   */\n      pop\n      jump\t// out\n        /* \"#utility.yul\":2038:2177   */\n    tag_363:\n        /* \"#utility.yul\":2084:2089   */\n      0x00\n        /* \"#utility.yul\":2122:2128   */\n      dup2\n        /* \"#utility.yul\":2109:2129   */\n      calldataload\n        /* \"#utility.yul\":2100:2129   */\n      swap1\n      pop\n        /* \"#utility.yul\":2138:2171   */\n      tag_408\n        /* \"#utility.yul\":2165:2170   */\n      dup2\n        /* \"#utility.yul\":2138:2171   */\n      tag_362\n      jump\t// in\n    tag_408:\n        /* \"#utility.yul\":2038:2177   */\n      swap3\n      swap2\n      pop\n      pop\n      jump\t// out\n        /* \"#utility.yul\":2183:2260   */\n    tag_364:\n        /* \"#utility.yul\":2220:2227   */\n      0x00\n        /* \"#utility.yul\":2249:2254   */\n      dup2\n        /* \"#utility.yul\":2238:2254   */\n      swap1\n      pop\n        /* \"#utility.yul\":2183:2260   */\n      swap2\n      swap1\n      pop\n      jump\t// out\n        /* \"#utility.yul\":2266:2388   */\n    tag_365:\n        /* \"#utility.yul\":2339:2363   */\n      tag_411\n        /* \"#utility.yul\":2357:2362   */\n      dup2\n        /* \"#utility.yul\":2339:2363   */\n      tag_364\n      jump\t// in\n    tag_411:\n        /* \"#utility.yul\":2332:2337   */\n      dup2\n        /* \"#utility.yul\":2329:2364   */\n      eq\n        /* \"#utility.yul\":2319:2382   */\n      tag_412\n      jumpi\n        /* \"#utility.yul\":2378:2379   */\n      0x00\n        /* \"#utility.yul\":2375:2376   */\n      dup1\n        /* \"#utility.yul\":2368:2380   */\n      revert\n        /* \"#utility.yul\":2319:2382   */\n    tag_412:\n        /* \"#utility.yul\":2266:2388   */\n      pop\n      jump\t// out\n        /* \"#utility.yul\":2394:2533   */\n    tag_366:\n        /* \"#utility.yul\":2440:2445   */\n      0x00\n        /* \"#utility.yul\":2478:2484   */\n      dup2\n        /* \"#utility.yul\":2465:2485   */\n      calldataload\n        /* \"#utility.yul\":2456:2485   */\n      swap1\n      pop\n        /* \"#utility.yul\":2494:2527   */\n      tag_414\n        /* \"#utility.yul\":2521:2526   */\n      dup2\n        /* \"#utility.yul\":2494:2527   */\n      tag_365\n      jump\t// in\n    tag_414:\n        /* \"#utility.yul\":2394:2533   */\n      swap3\n      swap2\n      pop\n      pop\n      jump\t// out\n        /* \"#utility.yul\":2539:3013   */\n    tag_53:\n        /* \"#utility.yul\":2607:2613   */\n      0x00\n        /* \"#utility.yul\":2615:2621   */\n      dup1\n        /* \"#utility.yul\":2664:2666   */\n      0x40\n        /* \"#utility.yul\":2652:2661   */\n      dup4\n        /* \"#utility.yul\":2643:2650   */\n      dup6\n        /* \"#utility.yul\":2639:2662   */\n      sub\n        /* \"#utility.yul\":2635:2667   */\n      slt\n        /* \"#utility.yul\":2632:2751   */\n      iszero\n      tag_416\n      jumpi\n        /* \"#utility.yul\":2670:2749   */\n      tag_417\n      tag_358\n      jump\t// in\n    tag_417:\n        /* \"#utility.yul\":2632:2751   */\n    tag_416:\n        /* \"#utility.yul\":2790:2791   */\n      0x00\n        /* \"#utility.yul\":2815:2868   */\n      tag_418\n        /* \"#utility.yul\":2860:2867   */\n      dup6\n        /* \"#utility.yul\":2851:2857   */\n      dup3\n        /* \"#utility.yul\":2840:2849   */\n      dup7\n        /* \"#utility.yul\":2836:2858   */\n      add\n        /* \"#utility.yul\":2815:2868   */\n      tag_363\n      jump\t// in\n    tag_418:\n        /* \"#utility.yul\":2805:2868   */\n      swap3\n      pop\n        /* \"#utility.yul\":2761:2878   */\n      pop\n        /* \"#utility.yul\":2917:2919   */\n      0x20\n        /* \"#utility.yul\":2943:2996   */\n      tag_419\n        /* \"#utility.yul\":2988:2995   */\n      dup6\n        /* \"#utility.yul\":2979:2985   */\n      dup3\n        /* \"#utility.yul\":2968:2977   */\n      dup7\n        /* \"#utility.yul\":2964:2986   */\n      add\n        /* \"#utility.yul\":2943:2996   */\n      tag_366\n      jump\t// in\n    tag_419:\n        /* \"#utility.yul\":2933:2996   */\n      swap2\n      pop\n        /* \"#utility.yul\":2888:3006   */\n      pop\n        /* \"#utility.yul\":2539:3013   */\n      swap3\n      pop\n      swap3\n      swap1\n      pop\n      jump\t// out\n        /* \"#utility.yul\":3019:3109   */\n    tag_367:\n        /* \"#utility.yul\":3053:3060   */\n      0x00\n        /* \"#utility.yul\":3096:3101   */\n      dup2\n        /* \"#utility.yul\":3089:3102   */\n      iszero\n        /* \"#utility.yul\":3082:3103   */\n      iszero\n        /* \"#utility.yul\":3071:3103   */\n      swap1\n      pop\n        /* \"#utility.yul\":3019:3109   */\n      swap2\n      swap1\n      pop\n      jump\t// out\n        /* \"#utility.yul\":3115:3224   */\n    tag_368:\n        /* \"#utility.yul\":3196:3217   */\n      tag_422\n        /* \"#utility.yul\":3211:3216   */\n      dup2\n        /* \"#utility.yul\":3196:3217   */\n      tag_367\n      jump\t// in\n    tag_422:\n        /* \"#utility.yul\":3191:3194   */\n      dup3\n        /* \"#utility.yul\":3184:3218   */\n      mstore\n        /* \"#utility.yul\":3115:3224   */\n      pop\n      pop\n      jump\t// out\n        /* \"#utility.yul\":3230:3440   */\n    tag_56:\n        /* \"#utility.yul\":3317:3321   */\n      0x00\n        /* \"#utility.yul\":3355:3357   */\n      0x20\n        /* \"#utility.yul\":3344:3353   */\n      dup3\n        /* \"#utility.yul\":3340:3358   */\n      add\n        /* \"#utility.yul\":3332:3358   */\n      swap1\n      pop\n        /* \"#utility.yul\":3368:3433   */\n      tag_424\n        /* \"#utility.yul\":3430:3431   */\n      0x00\n        /* \"#utility.yul\":3419:3428   */\n      dup4\n        /* \"#utility.yul\":3415:3432   */\n      add\n        /* \"#utility.yul\":3406:3412   */\n      dup5\n        /* \"#utility.yul\":3368:3433   */\n      tag_368\n      jump\t// in\n    tag_424:\n        /* \"#utility.yul\":3230:3440   */\n      swap3\n      swap2\n      pop\n      pop\n      jump\t// out\n        /* \"#utility.yul\":3446:3564   */\n    tag_369:\n        /* \"#utility.yul\":3533:3557   */\n      tag_426\n        /* \"#utility.yul\":3551:3556   */\n      dup2\n        /* \"#utility.yul\":3533:3557   */\n      tag_364\n      jump\t// in\n    tag_426:\n        /* \"#utility.yul\":3528:3531   */\n      dup3\n        /* \"#utility.yul\":3521:3558   */\n      mstore\n        /* \"#utility.yul\":3446:3564   */\n      pop\n      pop\n      jump\t// out\n        /* \"#utility.yul\":3570:3792   */\n    tag_60:\n        /* \"#utility.yul\":3663:3667   */\n      0x00\n        /* \"#utility.yul\":3701:3703   */\n      0x20\n        /* \"#utility.yul\":3690:3699   */\n      dup3\n        /* \"#utility.yul\":3686:3704   */\n      add\n        /* \"#utility.yul\":3678:3704   */\n      swap1\n      pop\n        /* \"#utility.yul\":3714:3785   */\n      tag_428\n        /* \"#utility.yul\":3782:3783   */\n      0x00\n        /* \"#utility.yul\":3771:3780   */\n      dup4\n        /* \"#utility.yul\":3767:3784   */\n      add\n        /* \"#utility.yul\":3758:3764   */\n      dup5\n        /* \"#utility.yul\":3714:3785   */\n      tag_369\n      jump\t// in\n    tag_428:\n        /* \"#utility.yul\":3570:3792   */\n      swap3\n      swap2\n      pop\n      pop\n      jump\t// out\n        /* \"#utility.yul\":3798:4417   */\n    tag_63:\n        /* \"#utility.yul\":3875:3881   */\n      0x00\n        /* \"#utility.yul\":3883:3889   */\n      dup1\n        /* \"#utility.yul\":3891:3897   */\n      0x00\n        /* \"#utility.yul\":3940:3942   */\n      0x60\n        /* \"#utility.yul\":3928:3937   */\n      dup5\n        /* \"#utility.yul\":3919:3926   */\n      dup7\n        /* \"#utility.yul\":3915:3938   */\n      sub\n        /* \"#utility.yul\":3911:3943   */\n      slt\n        /* \"#utility.yul\":3908:4027   */\n      iszero\n      tag_430\n      jumpi\n        /* \"#utility.yul\":3946:4025   */\n      tag_431\n      tag_358\n      jump\t// in\n    tag_431:\n        /* \"#utility.yul\":3908:4027   */\n    tag_430:\n        /* \"#utility.yul\":4066:4067   */\n      0x00\n        /* \"#utility.yul\":4091:4144   */\n      tag_432\n        /* \"#utility.yul\":4136:4143   */\n      dup7\n        /* \"#utility.yul\":4127:4133   */\n      dup3\n        /* \"#utility.yul\":4116:4125   */\n      dup8\n        /* \"#utility.yul\":4112:4134   */\n      add\n        /* \"#utility.yul\":4091:4144   */\n      tag_363\n      jump\t// in\n    tag_432:\n        /* \"#utility.yul\":4081:4144   */\n      swap4\n      pop\n        /* \"#utility.yul\":4037:4154   */\n      pop\n        /* \"#utility.yul\":4193:4195   */\n      0x20\n        /* \"#utility.yul\":4219:4272   */\n      tag_433\n        /* \"#utility.yul\":4264:4271   */\n      dup7\n        /* \"#utility.yul\":4255:4261   */\n      dup3\n        /* \"#utility.yul\":4244:4253   */\n      dup8\n        /* \"#utility.yul\":4240:4262   */\n      add\n        /* \"#utility.yul\":4219:4272   */\n      tag_363\n      jump\t// in\n    tag_433:\n        /* \"#utility.yul\":4209:4272   */\n      swap3\n      pop\n        /* \"#utility.yul\":4164:4282   */\n      pop\n        /* \"#utility.yul\":4321:4323   */\n      0x40\n        /* \"#utility.yul\":4347:4400   */\n      tag_434\n        /* \"#utility.yul\":4392:4399   */\n      dup7\n        /* \"#utility.yul\":4383:4389   */\n      dup3\n        /* \"#utility.yul\":4372:4381   */\n      dup8\n        /* \"#utility.yul\":4368:4390   */\n      add\n        /* \"#utility.yul\":4347:4400   */\n      tag_366\n      jump\t// in\n    tag_434:\n        /* \"#utility.yul\":4337:4400   */\n      swap2\n      pop\n        /* \"#utility.yul\":4292:4410   */\n      pop\n        /* \"#utility.yul\":3798:4417   */\n      swap3\n      pop\n      swap3\n      pop\n      swap3\n      jump\t// out\n        /* \"#utility.yul\":4423:4509   */\n    tag_370:\n        /* \"#utility.yul\":4458:4465   */\n      0x00\n        /* \"#utility.yul\":4498:4502   */\n      0xff\n        /* \"#utility.yul\":4491:4496   */\n      dup3\n        /* \"#utility.yul\":4487:4503   */\n      and\n        /* \"#utility.yul\":4476:4503   */\n      swap1\n      pop\n        /* \"#utility.yul\":4423:4509   */\n      swap2\n      swap1\n      pop\n      jump\t// out\n        /* \"#utility.yul\":4515:4627   */\n    tag_371:\n        /* \"#utility.yul\":4598:4620   */\n      tag_437\n        /* \"#utility.yul\":4614:4619   */\n      dup2\n        /* \"#utility.yul\":4598:4620   */\n      tag_370\n      jump\t// in\n    tag_437:\n        /* \"#utility.yul\":4593:4596   */\n      dup3\n        /* \"#utility.yul\":4586:4621   */\n      mstore\n        /* \"#utility.yul\":4515:4627   */\n      pop\n      pop\n      jump\t// out\n        /* \"#utility.yul\":4633:4847   */\n    tag_72:\n        /* \"#utility.yul\":4722:4726   */\n      0x00\n        /* \"#utility.yul\":4760:4762   */\n      0x20\n        /* \"#utility.yul\":4749:4758   */\n      dup3\n        /* \"#utility.yul\":4745:4763   */\n      add\n        /* \"#utility.yul\":4737:4763   */\n      swap1\n      pop\n        /* \"#utility.yul\":4773:4840   */\n      tag_439\n        /* \"#utility.yul\":4837:4838   */\n      0x00\n        /* \"#utility.yul\":4826:4835   */\n      dup4\n        /* \"#utility.yul\":4822:4839   */\n      add\n        /* \"#utility.yul\":4813:4819   */\n      dup5\n        /* \"#utility.yul\":4773:4840   */\n      tag_371\n      jump\t// in\n    tag_439:\n        /* \"#utility.yul\":4633:4847   */\n      swap3\n      swap2\n      pop\n      pop\n      jump\t// out\n        /* \"#utility.yul\":4853:5182   */\n    tag_78:\n        /* \"#utility.yul\":4912:4918   */\n      0x00\n        /* \"#utility.yul\":4961:4963   */\n      0x20\n        /* \"#utility.yul\":4949:4958   */\n      dup3\n        /* \"#utility.yul\":4940:4947   */\n      dup5\n        /* \"#utility.yul\":4936:4959   */\n      sub\n        /* \"#utility.yul\":4932:4964   */\n      slt\n        /* \"#utility.yul\":4929:5048   */\n      iszero\n      tag_441\n      jumpi\n        /* \"#utility.yul\":4967:5046   */\n      tag_442\n      tag_358\n      jump\t// in\n    tag_442:\n        /* \"#utility.yul\":4929:5048   */\n    tag_441:\n        /* \"#utility.yul\":5087:5088   */\n      0x00\n        /* \"#utility.yul\":5112:5165   */\n      tag_443\n        /* \"#utility.yul\":5157:5164   */\n      dup5\n        /* \"#utility.yul\":5148:5154   */\n      dup3\n        /* \"#utility.yul\":5137:5146   */\n      dup6\n        /* \"#utility.yul\":5133:5155   */\n      add\n        /* \"#utility.yul\":5112:5165   */\n      tag_363\n      jump\t// in\n    tag_443:\n        /* \"#utility.yul\":5102:5165   */\n      swap2\n      pop\n        /* \"#utility.yul\":5058:5175   */\n      pop\n        /* \"#utility.yul\":4853:5182   */\n      swap3\n      swap2\n      pop\n      pop\n      jump\t// out\n        /* \"#utility.yul\":5188:5517   */\n    tag_88:\n        /* \"#utility.yul\":5247:5253   */\n      0x00\n        /* \"#utility.yul\":5296:5298   */\n      0x20\n        /* \"#utility.yul\":5284:5293   */\n      dup3\n        /* \"#utility.yul\":5275:5282   */\n      dup5\n        /* \"#utility.yul\":5271:5294   */\n      sub\n        /* \"#utility.yul\":5267:5299   */\n      slt\n        /* \"#utility.yul\":5264:5383   */\n      iszero\n      tag_445\n      jumpi\n        /* \"#utility.yul\":5302:5381   */\n      tag_446\n      tag_358\n      jump\t// in\n    tag_446:\n        /* \"#utility.yul\":5264:5383   */\n    tag_445:\n        /* \"#utility.yul\":5422:5423   */\n      0x00\n        /* \"#utility.yul\":5447:5500   */\n      tag_447\n        /* \"#utility.yul\":5492:5499   */\n      dup5\n        /* \"#utility.yul\":5483:5489   */\n      dup3\n        /* \"#utility.yul\":5472:5481   */\n      dup6\n        /* \"#utility.yul\":5468:5490   */\n      add\n        /* \"#utility.yul\":5447:5500   */\n      tag_366\n      jump\t// in\n    tag_447:\n        /* \"#utility.yul\":5437:5500   */\n      swap2\n      pop\n        /* \"#utility.yul\":5393:5510   */\n      pop\n        /* \"#utility.yul\":5188:5517   */\n      swap3\n      swap2\n      pop\n      pop\n      jump\t// out\n        /* \"#utility.yul\":5523:5627   */\n    tag_372:\n        /* \"#utility.yul\":5568:5575   */\n      0x00\n        /* \"#utility.yul\":5597:5621   */\n      tag_449\n        /* \"#utility.yul\":5615:5620   */\n      dup3\n        /* \"#utility.yul\":5597:5621   */\n      tag_360\n      jump\t// in\n    tag_449:\n        /* \"#utility.yul\":5586:5621   */\n      swap1\n      pop\n        /* \"#utility.yul\":5523:5627   */\n      swap2\n      swap1\n      pop\n      jump\t// out\n        /* \"#utility.yul\":5633:5771   */\n    tag_373:\n        /* \"#utility.yul\":5714:5746   */\n      tag_451\n        /* \"#utility.yul\":5740:5745   */\n      dup2\n        /* \"#utility.yul\":5714:5746   */\n      tag_372\n      jump\t// in\n    tag_451:\n        /* \"#utility.yul\":5707:5712   */\n      dup2\n        /* \"#utility.yul\":5704:5747   */\n      eq\n        /* \"#utility.yul\":5694:5765   */\n      tag_452\n      jumpi\n        /* \"#utility.yul\":5761:5762   */\n      0x00\n        /* \"#utility.yul\":5758:5759   */\n      dup1\n        /* \"#utility.yul\":5751:5763   */\n      revert\n        /* \"#utility.yul\":5694:5765   */\n    tag_452:\n        /* \"#utility.yul\":5633:5771   */\n      pop\n      jump\t// out\n        /* \"#utility.yul\":5777:5932   */\n    tag_374:\n        /* \"#utility.yul\":5831:5836   */\n      0x00\n        /* \"#utility.yul\":5869:5875   */\n      dup2\n        /* \"#utility.yul\":5856:5876   */\n      calldataload\n        /* \"#utility.yul\":5847:5876   */\n      swap1\n      pop\n        /* \"#utility.yul\":5885:5926   */\n      tag_454\n        /* \"#utility.yul\":5920:5925   */\n      dup2\n        /* \"#utility.yul\":5885:5926   */\n      tag_373\n      jump\t// in\n    tag_454:\n        /* \"#utility.yul\":5777:5932   */\n      swap3\n      swap2\n      pop\n      pop\n      jump\t// out\n        /* \"#utility.yul\":5938:6283   */\n    tag_104:\n        /* \"#utility.yul\":6005:6011   */\n      0x00\n        /* \"#utility.yul\":6054:6056   */\n      0x20\n        /* \"#utility.yul\":6042:6051   */\n      dup3\n        /* \"#utility.yul\":6033:6040   */\n      dup5\n        /* \"#utility.yul\":6029:6052   */\n      sub\n        /* \"#utility.yul\":6025:6057   */\n      slt\n        /* \"#utility.yul\":6022:6141   */\n      iszero\n      tag_456\n      jumpi\n        /* \"#utility.yul\":6060:6139   */\n      tag_457\n      tag_358\n      jump\t// in\n    tag_457:\n        /* \"#utility.yul\":6022:6141   */\n    tag_456:\n        /* \"#utility.yul\":6180:6181   */\n      0x00\n        /* \"#utility.yul\":6205:6266   */\n      tag_458\n        /* \"#utility.yul\":6258:6265   */\n      dup5\n        /* \"#utility.yul\":6249:6255   */\n      dup3\n        /* \"#utility.yul\":6238:6247   */\n      dup6\n        /* \"#utility.yul\":6234:6256   */\n      add\n        /* \"#utility.yul\":6205:6266   */\n      tag_374\n      jump\t// in\n    tag_458:\n        /* \"#utility.yul\":6195:6266   */\n      swap2\n      pop\n        /* \"#utility.yul\":6151:6276   */\n      pop\n        /* \"#utility.yul\":5938:6283   */\n      swap3\n      swap2\n      pop\n      pop\n      jump\t// out\n        /* \"#utility.yul\":6289:6763   */\n    tag_111:\n        /* \"#utility.yul\":6357:6363   */\n      0x00\n        /* \"#utility.yul\":6365:6371   */\n      dup1\n        /* \"#utility.yul\":6414:6416   */\n      0x40\n        /* \"#utility.yul\":6402:6411   */\n      dup4\n        /* \"#utility.yul\":6393:6400   */\n      dup6\n        /* \"#utility.yul\":6389:6412   */\n      sub\n        /* \"#utility.yul\":6385:6417   */\n      slt\n        /* \"#utility.yul\":6382:6501   */\n      iszero\n      tag_460\n      jumpi\n        /* \"#utility.yul\":6420:6499   */\n      tag_461\n      tag_358\n      jump\t// in\n    tag_461:\n        /* \"#utility.yul\":6382:6501   */\n    tag_460:\n        /* \"#utility.yul\":6540:6541   */\n      0x00\n        /* \"#utility.yul\":6565:6618   */\n      tag_462\n        /* \"#utility.yul\":6610:6617   */\n      dup6\n        /* \"#utility.yul\":6601:6607   */\n      dup3\n        /* \"#utility.yul\":6590:6599   */\n      dup7\n        /* \"#utility.yul\":6586:6608   */\n      add\n        /* \"#utility.yul\":6565:6618   */\n      tag_366\n      jump\t// in\n    tag_462:\n        /* \"#utility.yul\":6555:6618   */\n      swap3\n      pop\n        /* \"#utility.yul\":6511:6628   */\n      pop\n        /* \"#utility.yul\":6667:6669   */\n      0x20\n        /* \"#utility.yul\":6693:6746   */\n      tag_463\n        /* \"#utility.yul\":6738:6745   */\n      dup6\n        /* \"#utility.yul\":6729:6735   */\n      dup3\n        /* \"#utility.yul\":6718:6727   */\n      dup7\n        /* \"#utility.yul\":6714:6736   */\n      add\n        /* \"#utility.yul\":6693:6746   */\n      tag_366\n      jump\t// in\n    tag_463:\n        /* \"#utility.yul\":6683:6746   */\n      swap2\n      pop\n        /* \"#utility.yul\":6638:6756   */\n      pop\n        /* \"#utility.yul\":6289:6763   */\n      swap3\n      pop\n      swap3\n      swap1\n      pop\n      jump\t// out\n        /* \"#utility.yul\":6769:6887   */\n    tag_375:\n        /* \"#utility.yul\":6856:6880   */\n      tag_465\n        /* \"#utility.yul\":6874:6879   */\n      dup2\n        /* \"#utility.yul\":6856:6880   */\n      tag_361\n      jump\t// in\n    tag_465:\n        /* \"#utility.yul\":6851:6854   */\n      dup3\n        /* \"#utility.yul\":6844:6881   */\n      mstore\n        /* \"#utility.yul\":6769:6887   */\n      pop\n      pop\n      jump\t// out\n        /* \"#utility.yul\":6893:7115   */\n    tag_133:\n        /* \"#utility.yul\":6986:6990   */\n      0x00\n        /* \"#utility.yul\":7024:7026   */\n      0x20\n        /* \"#utility.yul\":7013:7022   */\n      dup3\n        /* \"#utility.yul\":7009:7027   */\n      add\n        /* \"#utility.yul\":7001:7027   */\n      swap1\n      pop\n        /* \"#utility.yul\":7037:7108   */\n      tag_467\n        /* \"#utility.yul\":7105:7106   */\n      0x00\n        /* \"#utility.yul\":7094:7103   */\n      dup4\n        /* \"#utility.yul\":7090:7107   */\n      add\n        /* \"#utility.yul\":7081:7087   */\n      dup5\n        /* \"#utility.yul\":7037:7108   */\n      tag_375\n      jump\t// in\n    tag_467:\n        /* \"#utility.yul\":6893:7115   */\n      swap3\n      swap2\n      pop\n      pop\n      jump\t// out\n        /* \"#utility.yul\":7121:7263   */\n    tag_376:\n        /* \"#utility.yul\":7224:7256   */\n      tag_469\n        /* \"#utility.yul\":7250:7255   */\n      dup2\n        /* \"#utility.yul\":7224:7256   */\n      tag_372\n      jump\t// in\n    tag_469:\n        /* \"#utility.yul\":7219:7222   */\n      dup3\n        /* \"#utility.yul\":7212:7257   */\n      mstore\n        /* \"#utility.yul\":7121:7263   */\n      pop\n      pop\n      jump\t// out\n        /* \"#utility.yul\":7269:7523   */\n    tag_150:\n        /* \"#utility.yul\":7378:7382   */\n      0x00\n        /* \"#utility.yul\":7416:7418   */\n      0x20\n        /* \"#utility.yul\":7405:7414   */\n      dup3\n        /* \"#utility.yul\":7401:7419   */\n      add\n        /* \"#utility.yul\":7393:7419   */\n      swap1\n      pop\n        /* \"#utility.yul\":7429:7516   */\n      tag_471\n        /* \"#utility.yul\":7513:7514   */\n      0x00\n        /* \"#utility.yul\":7502:7511   */\n      dup4\n        /* \"#utility.yul\":7498:7515   */\n      add\n        /* \"#utility.yul\":7489:7495   */\n      dup5\n        /* \"#utility.yul\":7429:7516   */\n      tag_376\n      jump\t// in\n    tag_471:\n        /* \"#utility.yul\":7269:7523   */\n      swap3\n      swap2\n      pop\n      pop\n      jump\t// out\n        /* \"#utility.yul\":7529:8003   */\n    tag_157:\n        /* \"#utility.yul\":7597:7603   */\n      0x00\n        /* \"#utility.yul\":7605:7611   */\n      dup1\n        /* \"#utility.yul\":7654:7656   */\n      0x40\n        /* \"#utility.yul\":7642:7651   */\n      dup4\n        /* \"#utility.yul\":7633:7640   */\n      dup6\n        /* \"#utility.yul\":7629:7652   */\n      sub\n        /* \"#utility.yul\":7625:7657   */\n      slt\n        /* \"#utility.yul\":7622:7741   */\n      iszero\n      tag_473\n      jumpi\n        /* \"#utility.yul\":7660:7739   */\n      tag_474\n      tag_358\n      jump\t// in\n    tag_474:\n        /* \"#utility.yul\":7622:7741   */\n    tag_473:\n        /* \"#utility.yul\":7780:7781   */\n      0x00\n        /* \"#utility.yul\":7805:7858   */\n      tag_475\n        /* \"#utility.yul\":7850:7857   */\n      dup6\n        /* \"#utility.yul\":7841:7847   */\n      dup3\n        /* \"#utility.yul\":7830:7839   */\n      dup7\n        /* \"#utility.yul\":7826:7848   */\n      add\n        /* \"#utility.yul\":7805:7858   */\n      tag_363\n      jump\t// in\n    tag_475:\n        /* \"#utility.yul\":7795:7858   */\n      swap3\n      pop\n        /* \"#utility.yul\":7751:7868   */\n      pop\n        /* \"#utility.yul\":7907:7909   */\n      0x20\n        /* \"#utility.yul\":7933:7986   */\n      tag_476\n        /* \"#utility.yul\":7978:7985   */\n      dup6\n        /* \"#utility.yul\":7969:7975   */\n      dup3\n        /* \"#utility.yul\":7958:7967   */\n      dup7\n        /* \"#utility.yul\":7954:7976   */\n      add\n        /* \"#utility.yul\":7933:7986   */\n      tag_363\n      jump\t// in\n    tag_476:\n        /* \"#utility.yul\":7923:7986   */\n      swap2\n      pop\n        /* \"#utility.yul\":7878:7996   */\n      pop\n        /* \"#utility.yul\":7529:8003   */\n      swap3\n      pop\n      swap3\n      swap1\n      pop\n      jump\t// out\n        /* \"#utility.yul\":8009:8341   */\n    tag_169:\n        /* \"#utility.yul\":8130:8134   */\n      0x00\n        /* \"#utility.yul\":8168:8170   */\n      0x40\n        /* \"#utility.yul\":8157:8166   */\n      dup3\n        /* \"#utility.yul\":8153:8171   */\n      add\n        /* \"#utility.yul\":8145:8171   */\n      swap1\n      pop\n        /* \"#utility.yul\":8181:8252   */\n      tag_478\n        /* \"#utility.yul\":8249:8250   */\n      0x00\n        /* \"#utility.yul\":8238:8247   */\n      dup4\n        /* \"#utility.yul\":8234:8251   */\n      add\n        /* \"#utility.yul\":8225:8231   */\n      dup6\n        /* \"#utility.yul\":8181:8252   */\n      tag_369\n      jump\t// in\n    tag_478:\n        /* \"#utility.yul\":8262:8334   */\n      tag_479\n        /* \"#utility.yul\":8330:8332   */\n      0x20\n        /* \"#utility.yul\":8319:8328   */\n      dup4\n        /* \"#utility.yul\":8315:8333   */\n      add\n        /* \"#utility.yul\":8306:8312   */\n      dup5\n        /* \"#utility.yul\":8262:8334   */\n      tag_369\n      jump\t// in\n    tag_479:\n        /* \"#utility.yul\":8009:8341   */\n      swap4\n      swap3\n      pop\n      pop\n      pop\n      jump\t// out\n        /* \"#utility.yul\":8347:8527   */\n    tag_377:\n        /* \"#utility.yul\":8395:8472   */\n      0x4e487b7100000000000000000000000000000000000000000000000000000000\n        /* \"#utility.yul\":8392:8393   */\n      0x00\n        /* \"#utility.yul\":8385:8473   */\n      mstore\n        /* \"#utility.yul\":8492:8496   */\n      0x22\n        /* \"#utility.yul\":8489:8490   */\n      0x04\n        /* \"#utility.yul\":8482:8497   */\n      mstore\n        /* \"#utility.yul\":8516:8520   */\n      0x24\n        /* \"#utility.yul\":8513:8514   */\n      0x00\n        /* \"#utility.yul\":8506:8521   */\n      revert\n        /* \"#utility.yul\":8533:8853   */\n    tag_179:\n        /* \"#utility.yul\":8577:8583   */\n      0x00\n        /* \"#utility.yul\":8614:8615   */\n      0x02\n        /* \"#utility.yul\":8608:8612   */\n      dup3\n        /* \"#utility.yul\":8604:8616   */\n      div\n        /* \"#utility.yul\":8594:8616   */\n      swap1\n      pop\n        /* \"#utility.yul\":8661:8662   */\n      0x01\n        /* \"#utility.yul\":8655:8659   */\n      dup3\n        /* \"#utility.yul\":8651:8663   */\n      and\n        /* \"#utility.yul\":8682:8700   */\n      dup1\n        /* \"#utility.yul\":8672:8753   */\n      tag_482\n      jumpi\n        /* \"#utility.yul\":8738:8742   */\n      0x7f\n        /* \"#utility.yul\":8730:8736   */\n      dup3\n        /* \"#utility.yul\":8726:8743   */\n      and\n        /* \"#utility.yul\":8716:8743   */\n      swap2\n      pop\n        /* \"#utility.yul\":8672:8753   */\n    tag_482:\n        /* \"#utility.yul\":8800:8802   */\n      0x20\n        /* \"#utility.yul\":8792:8798   */\n      dup3\n        /* \"#utility.yul\":8789:8803   */\n      lt\n        /* \"#utility.yul\":8769:8787   */\n      dup2\n        /* \"#utility.yul\":8766:8804   */\n      sub\n        /* \"#utility.yul\":8763:8847   */\n      tag_483\n      jumpi\n        /* \"#utility.yul\":8819:8837   */\n      tag_484\n      tag_377\n      jump\t// in\n    tag_484:\n        /* \"#utility.yul\":8763:8847   */\n    tag_483:\n        /* \"#utility.yul\":8584:8853   */\n      pop\n        /* \"#utility.yul\":8533:8853   */\n      swap2\n      swap1\n      pop\n      jump\t// out\n        /* \"#utility.yul\":8859:9035   */\n    tag_378:\n        /* \"#utility.yul\":8999:9027   */\n      0x427579207461782063616e6e6f74206578636565642031303025000000000000\n        /* \"#utility.yul\":8995:8996   */\n      0x00\n        /* \"#utility.yul\":8987:8993   */\n      dup3\n        /* \"#utility.yul\":8983:8997   */\n      add\n        /* \"#utility.yul\":8976:9028   */\n      mstore\n        /* \"#utility.yul\":8859:9035   */\n      pop\n      jump\t// out\n        /* \"#utility.yul\":9041:9407   */\n    tag_379:\n        /* \"#utility.yul\":9183:9186   */\n      0x00\n        /* \"#utility.yul\":9204:9271   */\n      tag_487\n        /* \"#utility.yul\":9268:9270   */\n      0x1a\n        /* \"#utility.yul\":9263:9266   */\n      dup4\n        /* \"#utility.yul\":9204:9271   */\n      tag_353\n      jump\t// in\n    tag_487:\n        /* \"#utility.yul\":9197:9271   */\n      swap2\n      pop\n        /* \"#utility.yul\":9280:9373   */\n      tag_488\n        /* \"#utility.yul\":9369:9372   */\n      dup3\n        /* \"#utility.yul\":9280:9373   */\n      tag_378\n      jump\t// in\n    tag_488:\n        /* \"#utility.yul\":9398:9400   */\n      0x20\n        /* \"#utility.yul\":9393:9396   */\n      dup3\n        /* \"#utility.yul\":9389:9401   */\n      add\n        /* \"#utility.yul\":9382:9401   */\n      swap1\n      pop\n        /* \"#utility.yul\":9041:9407   */\n      swap2\n      swap1\n      pop\n      jump\t// out\n        /* \"#utility.yul\":9413:9832   */\n    tag_234:\n        /* \"#utility.yul\":9579:9583   */\n      0x00\n        /* \"#utility.yul\":9617:9619   */\n      0x20\n        /* \"#utility.yul\":9606:9615   */\n      dup3\n        /* \"#utility.yul\":9602:9620   */\n      add\n        /* \"#utility.yul\":9594:9620   */\n      swap1\n      pop\n        /* \"#utility.yul\":9666:9675   */\n      dup2\n        /* \"#utility.yul\":9660:9664   */\n      dup2\n        /* \"#utility.yul\":9656:9676   */\n      sub\n        /* \"#utility.yul\":9652:9653   */\n      0x00\n        /* \"#utility.yul\":9641:9650   */\n      dup4\n        /* \"#utility.yul\":9637:9654   */\n      add\n        /* \"#utility.yul\":9630:9677   */\n      mstore\n        /* \"#utility.yul\":9694:9825   */\n      tag_490\n        /* \"#utility.yul\":9820:9824   */\n      dup2\n        /* \"#utility.yul\":9694:9825   */\n      tag_379\n      jump\t// in\n    tag_490:\n        /* \"#utility.yul\":9686:9825   */\n      swap1\n      pop\n        /* \"#utility.yul\":9413:9832   */\n      swap2\n      swap1\n      pop\n      jump\t// out\n        /* \"#utility.yul\":9838:10015   */\n    tag_380:\n        /* \"#utility.yul\":9978:10007   */\n      0x53656c6c207461782063616e6e6f742065786365656420313030250000000000\n        /* \"#utility.yul\":9974:9975   */\n      0x00\n        /* \"#utility.yul\":9966:9972   */\n      dup3\n        /* \"#utility.yul\":9962:9976   */\n      add\n        /* \"#utility.yul\":9955:10008   */\n      mstore\n        /* \"#utility.yul\":9838:10015   */\n      pop\n      jump\t// out\n        /* \"#utility.yul\":10021:10387   */\n    tag_381:\n        /* \"#utility.yul\":10163:10166   */\n      0x00\n        /* \"#utility.yul\":10184:10251   */\n      tag_493\n        /* \"#utility.yul\":10248:10250   */\n      0x1b\n        /* \"#utility.yul\":10243:10246   */\n      dup4\n        /* \"#utility.yul\":10184:10251   */\n      tag_353\n      jump\t// in\n    tag_493:\n        /* \"#utility.yul\":10177:10251   */\n      swap2\n      pop\n        /* \"#utility.yul\":10260:10353   */\n      tag_494\n        /* \"#utility.yul\":10349:10352   */\n      dup3\n        /* \"#utility.yul\":10260:10353   */\n      tag_380\n      jump\t// in\n    tag_494:\n        /* \"#utility.yul\":10378:10380   */\n      0x20\n        /* \"#utility.yul\":10373:10376   */\n      dup3\n        /* \"#utility.yul\":10369:10381   */\n      add\n        /* \"#utility.yul\":10362:10381   */\n      swap1\n      pop\n        /* \"#utility.yul\":10021:10387   */\n      swap2\n      swap1\n      pop\n      jump\t// out\n        /* \"#utility.yul\":10393:10812   */\n    tag_237:\n        /* \"#utility.yul\":10559:10563   */\n      0x00\n        /* \"#utility.yul\":10597:10599   */\n      0x20\n        /* \"#utility.yul\":10586:10595   */\n      dup3\n        /* \"#utility.yul\":10582:10600   */\n      add\n        /* \"#utility.yul\":10574:10600   */\n      swap1\n      pop\n        /* \"#utility.yul\":10646:10655   */\n      dup2\n        /* \"#utility.yul\":10640:10644   */\n      dup2\n        /* \"#utility.yul\":10636:10656   */\n      sub\n        /* \"#utility.yul\":10632:10633   */\n      0x00\n        /* \"#utility.yul\":10621:10630   */\n      dup4\n        /* \"#utility.yul\":10617:10634   */\n      add\n        /* \"#utility.yul\":10610:10657   */\n      mstore\n        /* \"#utility.yul\":10674:10805   */\n      tag_496\n        /* \"#utility.yul\":10800:10804   */\n      dup2\n        /* \"#utility.yul\":10674:10805   */\n      tag_381\n      jump\t// in\n    tag_496:\n        /* \"#utility.yul\":10666:10805   */\n      swap1\n      pop\n        /* \"#utility.yul\":10393:10812   */\n      swap2\n      swap1\n      pop\n      jump\t// out\n        /* \"#utility.yul\":10818:11260   */\n    tag_293:\n        /* \"#utility.yul\":10967:10971   */\n      0x00\n        /* \"#utility.yul\":11005:11007   */\n      0x60\n        /* \"#utility.yul\":10994:11003   */\n      dup3\n        /* \"#utility.yul\":10990:11008   */\n      add\n        /* \"#utility.yul\":10982:11008   */\n      swap1\n      pop\n        /* \"#utility.yul\":11018:11089   */\n      tag_498\n        /* \"#utility.yul\":11086:11087   */\n      0x00\n        /* \"#utility.yul\":11075:11084   */\n      dup4\n        /* \"#utility.yul\":11071:11088   */\n      add\n        /* \"#utility.yul\":11062:11068   */\n      dup7\n        /* \"#utility.yul\":11018:11089   */\n      tag_375\n      jump\t// in\n    tag_498:\n        /* \"#utility.yul\":11099:11171   */\n      tag_499\n        /* \"#utility.yul\":11167:11169   */\n      0x20\n        /* \"#utility.yul\":11156:11165   */\n      dup4\n        /* \"#utility.yul\":11152:11170   */\n      add\n        /* \"#utility.yul\":11143:11149   */\n      dup6\n        /* \"#utility.yul\":11099:11171   */\n      tag_369\n      jump\t// in\n    tag_499:\n        /* \"#utility.yul\":11181:11253   */\n      tag_500\n        /* \"#utility.yul\":11249:11251   */\n      0x40\n        /* \"#utility.yul\":11238:11247   */\n      dup4\n        /* \"#utility.yul\":11234:11252   */\n      add\n        /* \"#utility.yul\":11225:11231   */\n      dup5\n        /* \"#utility.yul\":11181:11253   */\n      tag_369\n      jump\t// in\n    tag_500:\n        /* \"#utility.yul\":10818:11260   */\n      swap5\n      swap4\n      pop\n      pop\n      pop\n      pop\n      jump\t// out\n        /* \"#utility.yul\":11266:11446   */\n    tag_382:\n        /* \"#utility.yul\":11314:11391   */\n      0x4e487b7100000000000000000000000000000000000000000000000000000000\n        /* \"#utility.yul\":11311:11312   */\n      0x00\n        /* \"#utility.yul\":11304:11392   */\n      mstore\n        /* \"#utility.yul\":11411:11415   */\n      0x11\n        /* \"#utility.yul\":11408:11409   */\n      0x04\n        /* \"#utility.yul\":11401:11416   */\n      mstore\n        /* \"#utility.yul\":11435:11439   */\n      0x24\n        /* \"#utility.yul\":11432:11433   */\n      0x00\n        /* \"#utility.yul\":11425:11440   */\n      revert\n        /* \"#utility.yul\":11452:11643   */\n    tag_339:\n        /* \"#utility.yul\":11492:11495   */\n      0x00\n        /* \"#utility.yul\":11511:11531   */\n      tag_503\n        /* \"#utility.yul\":11529:11530   */\n      dup3\n        /* \"#utility.yul\":11511:11531   */\n      tag_364\n      jump\t// in\n    tag_503:\n        /* \"#utility.yul\":11506:11531   */\n      swap2\n      pop\n        /* \"#utility.yul\":11545:11565   */\n      tag_504\n        /* \"#utility.yul\":11563:11564   */\n      dup4\n        /* \"#utility.yul\":11545:11565   */\n      tag_364\n      jump\t// in\n    tag_504:\n        /* \"#utility.yul\":11540:11565   */\n      swap3\n      pop\n        /* \"#utility.yul\":11588:11589   */\n      dup3\n        /* \"#utility.yul\":11585:11586   */\n      dup3\n        /* \"#utility.yul\":11581:11590   */\n      add\n        /* \"#utility.yul\":11574:11590   */\n      swap1\n      pop\n        /* \"#utility.yul\":11609:11612   */\n      dup1\n        /* \"#utility.yul\":11606:11607   */\n      dup3\n        /* \"#utility.yul\":11603:11613   */\n      gt\n        /* \"#utility.yul\":11600:11636   */\n      iszero\n      tag_505\n      jumpi\n        /* \"#utility.yul\":11616:11634   */\n      tag_506\n      tag_382\n      jump\t// in\n    tag_506:\n        /* \"#utility.yul\":11600:11636   */\n    tag_505:\n        /* \"#utility.yul\":11452:11643   */\n      swap3\n      swap2\n      pop\n      pop\n      jump\t// out\n\n    auxdata: 0xa26469706673582212201530a0bc90fcc78f134184eac346c454e24edcff8d0b8172e19f25714da28bfb64736f6c63430008170033\n}\n",
				"bytecode": {
					"linkReferences": {},
					"object": "608060405234801562000010575f80fd5b5060405162002a8038038062002a80833981810160405281019062000036919062000816565b336040518060400160405280601081526020017f4c6976696e672054686520447265616d000000000000000000000000000000008152506040518060400160405280600381526020017f4c544400000000000000000000000000000000000000000000000000000000008152508160039081620000b4919062000abf565b508060049081620000c6919062000abf565b5050505f73ffffffffffffffffffffffffffffffffffffffff168173ffffffffffffffffffffffffffffffffffffffff16036200013c575f6040517f1e4fbdf700000000000000000000000000000000000000000000000000000000815260040162000133919062000bb4565b60405180910390fd5b6200014d816200029660201b60201c565b5060016006819055505f60075f6101000a81548160ff0219169083151502179055506200018d336b6bb4afe4ca85cb07a83400006200035960201b60201c565b620001bf733e55efc604a3e021069aa4852ab5a97798301fd56b11e110e90947de04103400006200035960201b60201c565b620001f17354412e0892c534c89a076252e3824f1f7f549c526b59c13d3ea1d47881e32400006200035960201b60201c565b604051806040016040528060078152602001600a815250600b5f820151815f01556020820151816001015590505081600d5f6101000a81548173ffffffffffffffffffffffffffffffffffffffff021916908373ffffffffffffffffffffffffffffffffffffffff1602179055506200027d816b6bb4afe4ca85cb07a83400006200035960201b60201c565b6200028e81620003e360201b60201c565b505062000c9d565b5f60055f9054906101000a900473ffffffffffffffffffffffffffffffffffffffff1690508160055f6101000a81548173ffffffffffffffffffffffffffffffffffffffff021916908373ffffffffffffffffffffffffffffffffffffffff1602179055508173ffffffffffffffffffffffffffffffffffffffff168173ffffffffffffffffffffffffffffffffffffffff167f8be0079c531659141344cd1fd0a4f28419497f9722a3daafe3b4186f6b6457e060405160405180910390a35050565b5f73ffffffffffffffffffffffffffffffffffffffff168273ffffffffffffffffffffffffffffffffffffffff1603620003cc575f6040517fec442f05000000000000000000000000000000000000000000000000000000008152600401620003c3919062000bb4565b60405180910390fd5b620003df5f83836200047a60201b60201c565b5050565b620003f36200069e60201b60201c565b5f73ffffffffffffffffffffffffffffffffffffffff168173ffffffffffffffffffffffffffffffffffffffff160362000466575f6040517f1e4fbdf70000000000000000000000000000000000000000000000000000000081526004016200045d919062000bb4565b60405180910390fd5b62000477816200029660201b60201c565b50565b5f73ffffffffffffffffffffffffffffffffffffffff168373ffffffffffffffffffffffffffffffffffffffff1603620004ce578060025f828254620004c1919062000bfc565b925050819055506200059f565b5f805f8573ffffffffffffffffffffffffffffffffffffffff1673ffffffffffffffffffffffffffffffffffffffff1681526020019081526020015f20549050818110156200055a578381836040517fe450d38c000000000000000000000000000000000000000000000000000000008152600401620005519392919062000c47565b60405180910390fd5b8181035f808673ffffffffffffffffffffffffffffffffffffffff1673ffffffffffffffffffffffffffffffffffffffff1681526020019081526020015f2081905550505b5f73ffffffffffffffffffffffffffffffffffffffff168273ffffffffffffffffffffffffffffffffffffffff1603620005e8578060025f828254039250508190555062000632565b805f808473ffffffffffffffffffffffffffffffffffffffff1673ffffffffffffffffffffffffffffffffffffffff1681526020019081526020015f205f82825401925050819055505b8173ffffffffffffffffffffffffffffffffffffffff168373ffffffffffffffffffffffffffffffffffffffff167fddf252ad1be2c89b69c2b068fc378daa952ba7f163c4a11628f55a4df523b3ef8360405162000691919062000c82565b60405180910390a3505050565b620006ae6200074060201b60201c565b73ffffffffffffffffffffffffffffffffffffffff16620006d46200074760201b60201c565b73ffffffffffffffffffffffffffffffffffffffff16146200073e57620007006200074060201b60201c565b6040517f118cdaa700000000000000000000000000000000000000000000000000000000815260040162000735919062000bb4565b60405180910390fd5b565b5f33905090565b5f60055f9054906101000a900473ffffffffffffffffffffffffffffffffffffffff16905090565b5f80fd5b5f73ffffffffffffffffffffffffffffffffffffffff82169050919050565b5f6200079e8262000773565b9050919050565b620007b08162000792565b8114620007bb575f80fd5b50565b5f81519050620007ce81620007a5565b92915050565b5f620007e08262000773565b9050919050565b620007f281620007d4565b8114620007fd575f80fd5b50565b5f815190506200081081620007e7565b92915050565b5f80604083850312156200082f576200082e6200076f565b5b5f6200083e85828601620007be565b9250506020620008518582860162000800565b9150509250929050565b5f81519050919050565b7f4e487b71000000000000000000000000000000000000000000000000000000005f52604160045260245ffd5b7f4e487b71000000000000000000000000000000000000000000000000000000005f52602260045260245ffd5b5f6002820490506001821680620008d757607f821691505b602082108103620008ed57620008ec62000892565b5b50919050565b5f819050815f5260205f209050919050565b5f6020601f8301049050919050565b5f82821b905092915050565b5f60088302620009517fffffffffffffffffffffffffffffffffffffffffffffffffffffffffffffffff8262000914565b6200095d868362000914565b95508019841693508086168417925050509392505050565b5f819050919050565b5f819050919050565b5f620009a7620009a16200099b8462000975565b6200097e565b62000975565b9050919050565b5f819050919050565b620009c28362000987565b620009da620009d182620009ae565b84845462000920565b825550505050565b5f90565b620009f0620009e2565b620009fd818484620009b7565b505050565b5b8181101562000a245762000a185f82620009e6565b60018101905062000a03565b5050565b601f82111562000a735762000a3d81620008f3565b62000a488462000905565b8101602085101562000a58578190505b62000a7062000a678562000905565b83018262000a02565b50505b505050565b5f82821c905092915050565b5f62000a955f198460080262000a78565b1980831691505092915050565b5f62000aaf838362000a84565b9150826002028217905092915050565b62000aca826200085b565b67ffffffffffffffff81111562000ae65762000ae562000865565b5b62000af28254620008bf565b62000aff82828562000a28565b5f60209050601f83116001811462000b35575f841562000b20578287015190505b62000b2c858262000aa2565b86555062000b9b565b601f19841662000b4586620008f3565b5f5b8281101562000b6e5784890151825560018201915060208501945060208101905062000b47565b8683101562000b8e578489015162000b8a601f89168262000a84565b8355505b6001600288020188555050505b505050505050565b62000bae81620007d4565b82525050565b5f60208201905062000bc95f83018462000ba3565b92915050565b7f4e487b71000000000000000000000000000000000000000000000000000000005f52601160045260245ffd5b5f62000c088262000975565b915062000c158362000975565b925082820190508082111562000c305762000c2f62000bcf565b5b92915050565b62000c418162000975565b82525050565b5f60608201905062000c5c5f83018662000ba3565b62000c6b602083018562000c36565b62000c7a604083018462000c36565b949350505050565b5f60208201905062000c975f83018462000c36565b92915050565b611dd58062000cab5f395ff3fe608060405234801561000f575f80fd5b5060043610610225575f3560e01c806370a082311161012e578063a9059cbb116100b6578063e17c4c741161007a578063e17c4c7414610615578063e43252d714610631578063eb1e73871461064d578063f2fde38b1461066c578063fe575a871461068857610225565b8063a9059cbb14610549578063b3a88c1b14610579578063c5f956af14610597578063cb4ca631146105b5578063dd62ed3e146105e557610225565b80638456cb59116100fd5780638456cb59146104cb5780638ab1d681146104d55780638da5cb5b146104f157806395d89b411461050f5780639dc29fac1461052d57610225565b806370a0823114610457578063715018a61461048757806372a8a9331461049157806379cc6790146104af57610225565b806340c10f19116101b15780635c975abb116101805780635c975abb146103c957806360d1259e146103e75780636605bfda146104035780636c95702b1461041f5780636f0b00ac1461043b57610225565b806340c10f191461035957806342966c681461037557806344337ea114610391578063537df3b6146103ad57610225565b80632ff2e9dc116101f85780632ff2e9dc146102c5578063313ce567146102e357806332cb6b0c146103015780633af32abf1461031f5780633f4ba83a1461034f57610225565b806306fdde0314610229578063095ea7b31461024757806318160ddd1461027757806323b872dd14610295575b5f80fd5b6102316106b8565b60405161023e9190611860565b60405180910390f35b610261600480360381019061025c9190611911565b610748565b60405161026e9190611969565b60405180910390f35b61027f61076a565b60405161028c9190611991565b60405180910390f35b6102af60048036038101906102aa91906119aa565b610773565b6040516102bc9190611969565b60405180910390f35b6102cd6107a1565b6040516102da9190611991565b60405180910390f35b6102eb6107b1565b6040516102f89190611a15565b60405180910390f35b6103096107b9565b6040516103169190611991565b60405180910390f35b61033960048036038101906103349190611a2e565b6107ca565b6040516103469190611969565b60405180910390f35b6103576107e7565b005b610373600480360381019061036e9190611911565b6107f9565b005b61038f600480360381019061038a9190611a59565b61080f565b005b6103ab60048036038101906103a69190611a2e565b610823565b005b6103c760048036038101906103c29190611a2e565b610883565b005b6103d16108e2565b6040516103de9190611969565b60405180910390f35b61040160048036038101906103fc9190611a2e565b6108f7565b005b61041d60048036038101906104189190611abf565b610957565b005b61043960048036038101906104349190611911565b6109a2565b005b61045560048036038101906104509190611aea565b6109b9565b005b610471600480360381019061046c9190611a2e565b610a99565b60405161047e9190611991565b60405180910390f35b61048f610ade565b005b610499610af1565b6040516104a69190611991565b60405180910390f35b6104c960048036038101906104c49190611911565b610b01565b005b6104d3610b21565b005b6104ef60048036038101906104ea9190611a2e565b610b33565b005b6104f9610b92565b6040516105069190611b37565b60405180910390f35b610517610bba565b6040516105249190611860565b60405180910390f35b61054760048036038101906105429190611911565b610c4a565b005b610563600480360381019061055e9190611911565b610c60565b6040516105709190611969565b60405180910390f35b610581610c82565b60405161058e9190611991565b60405180910390f35b61059f610c92565b6040516105ac9190611b5f565b60405180910390f35b6105cf60048036038101906105ca9190611a2e565b610cb7565b6040516105dc9190611969565b60405180910390f35b6105ff60048036038101906105fa9190611b78565b610cd4565b60405161060c9190611991565b60405180910390f35b61062f600480360381019061062a9190611a2e565b610d56565b005b61064b60048036038101906106469190611a2e565b610db5565b005b610655610e15565b604051610663929190611bb6565b60405180910390f35b61068660048036038101906106819190611a2e565b610e26565b005b6106a2600480360381019061069d9190611a2e565b610eaa565b6040516106af9190611969565b60405180910390f35b6060600380546106c790611c0a565b80601f01602080910402602001604051908101604052809291908181526020018280546106f390611c0a565b801561073e5780601f106107155761010080835404028352916020019161073e565b820191905f5260205f20905b81548152906001019060200180831161072157829003601f168201915b5050505050905090565b5f80610752610ec7565b905061075f818585610ece565b600191505092915050565b5f600254905090565b5f8061077d610ec7565b905061078a858285610ee0565b610795858585610f72565b60019150509392505050565b6b6bb4afe4ca85cb07a834000081565b5f6012905090565b6c04350edef012dc12678834000081565b6008602052805f5260405f205f915054906101000a900460ff1681565b6107ef611062565b6107f76110e9565b565b610801611062565b61080b828261114a565b5050565b61082061081a610ec7565b826111c9565b50565b61082b611062565b600160095f8373ffffffffffffffffffffffffffffffffffffffff1673ffffffffffffffffffffffffffffffffffffffff1681526020019081526020015f205f6101000a81548160ff02191690831515021790555050565b61088b611062565b5f60095f8373ffffffffffffffffffffffffffffffffffffffff1673ffffffffffffffffffffffffffffffffffffffff1681526020019081526020015f205f6101000a81548160ff02191690831515021790555050565b5f60075f9054906101000a900460ff16905090565b6108ff611062565b6001600a5f8373ffffffffffffffffffffffffffffffffffffffff1673ffffffffffffffffffffffffffffffffffffffff1681526020019081526020015f205f6101000a81548160ff02191690831515021790555050565b61095f611062565b80600d5f6101000a81548173ffffffffffffffffffffffffffffffffffffffff021916908373ffffffffffffffffffffffffffffffffffffffff16021790555050565b6109aa611062565b6109b5308383610ece565b5050565b6109c1611062565b6064821115610a05576040517f08c379a00000000000000000000000000000000000000000000000000000000081526004016109fc90611c84565b60405180910390fd5b6064811115610a49576040517f08c379a0000000000000000000000000000000000000000000000000000000008152600401610a4090611cec565b60405180910390fd5b81600b5f018190555080600b600101819055507f5eee0b95930ee59011f34615b0b7dc6cc58c01d1f07d04a01a3a1e70d2554cf08282604051610a8d929190611bb6565b60405180910390a15050565b5f805f8373ffffffffffffffffffffffffffffffffffffffff1673ffffffffffffffffffffffffffffffffffffffff1681526020019081526020015f20549050919050565b610ae6611062565b610aef5f611248565b565b6b59c13d3ea1d47881e324000081565b610b1382610b0d610ec7565b83610ee0565b610b1d82826111c9565b5050565b610b29611062565b610b3161130b565b565b610b3b611062565b5f60085f8373ffffffffffffffffffffffffffffffffffffffff1673ffffffffffffffffffffffffffffffffffffffff1681526020019081526020015f205f6101000a81548160ff02191690831515021790555050565b5f60055f9054906101000a900473ffffffffffffffffffffffffffffffffffffffff16905090565b606060048054610bc990611c0a565b80601f0160208091040260200160405190810160405280929190818152602001828054610bf590611c0a565b8015610c405780601f10610c1757610100808354040283529160200191610c40565b820191905f5260205f20905b815481529060010190602001808311610c2357829003601f168201915b5050505050905090565b610c52611062565b610c5c82826111c9565b5050565b5f80610c6a610ec7565b9050610c77818585610f72565b600191505092915050565b6b11e110e90947de041034000081565b600d5f9054906101000a900473ffffffffffffffffffffffffffffffffffffffff1681565b600a602052805f5260405f205f915054906101000a900460ff1681565b5f60015f8473ffffffffffffffffffffffffffffffffffffffff1673ffffffffffffffffffffffffffffffffffffffff1681526020019081526020015f205f8373ffffffffffffffffffffffffffffffffffffffff1673ffffffffffffffffffffffffffffffffffffffff1681526020019081526020015f2054905092915050565b610d5e611062565b5f600a5f8373ffffffffffffffffffffffffffffffffffffffff1673ffffffffffffffffffffffffffffffffffffffff1681526020019081526020015f205f6101000a81548160ff02191690831515021790555050565b610dbd611062565b600160085f8373ffffffffffffffffffffffffffffffffffffffff1673ffffffffffffffffffffffffffffffffffffffff1681526020019081526020015f205f6101000a81548160ff02191690831515021790555050565b600b805f0154908060010154905082565b610e2e611062565b5f73ffffffffffffffffffffffffffffffffffffffff168173ffffffffffffffffffffffffffffffffffffffff1603610e9e575f6040517f1e4fbdf7000000000000000000000000000000000000000000000000000000008152600401610e959190611b37565b60405180910390fd5b610ea781611248565b50565b6009602052805f5260405f205f915054906101000a900460ff1681565b5f33905090565b610edb838383600161136d565b505050565b5f610eeb8484610cd4565b90507fffffffffffffffffffffffffffffffffffffffffffffffffffffffffffffffff8114610f6c5781811015610f5d578281836040517ffb8f41b2000000000000000000000000000000000000000000000000000000008152600401610f5493929190611d0a565b60405180910390fd5b610f6b84848484035f61136d565b5b50505050565b5f73ffffffffffffffffffffffffffffffffffffffff168373ffffffffffffffffffffffffffffffffffffffff1603610fe2575f6040517f96c6fd1e000000000000000000000000000000000000000000000000000000008152600401610fd99190611b37565b60405180910390fd5b5f73ffffffffffffffffffffffffffffffffffffffff168273ffffffffffffffffffffffffffffffffffffffff1603611052575f6040517fec442f050000000000000000000000000000000000000000000000000000000081526004016110499190611b37565b60405180910390fd5b61105d83838361153c565b505050565b61106a610ec7565b73ffffffffffffffffffffffffffffffffffffffff16611088610b92565b73ffffffffffffffffffffffffffffffffffffffff16146110e7576110ab610ec7565b6040517f118cdaa70000000000000000000000000000000000000000000000000000000081526004016110de9190611b37565b60405180910390fd5b565b6110f1611755565b5f60075f6101000a81548160ff0219169083151502179055507f5db9ee0a495bf2e6ff9c91a7834c1ba4fdd244a5e8aa4e537bd38aeae4b073aa611133610ec7565b6040516111409190611b37565b60405180910390a1565b5f73ffffffffffffffffffffffffffffffffffffffff168273ffffffffffffffffffffffffffffffffffffffff16036111ba575f6040517fec442f050000000000000000000000000000000000000000000000000000000081526004016111b19190611b37565b60405180910390fd5b6111c55f838361153c565b5050565b5f73ffffffffffffffffffffffffffffffffffffffff168273ffffffffffffffffffffffffffffffffffffffff1603611239575f6040517f96c6fd1e0000000000000000000000000000000000000000000000000000000081526004016112309190611b37565b60405180910390fd5b611244825f8361153c565b5050565b5f60055f9054906101000a900473ffffffffffffffffffffffffffffffffffffffff1690508160055f6101000a81548173ffffffffffffffffffffffffffffffffffffffff021916908373ffffffffffffffffffffffffffffffffffffffff1602179055508173ffffffffffffffffffffffffffffffffffffffff168173ffffffffffffffffffffffffffffffffffffffff167f8be0079c531659141344cd1fd0a4f28419497f9722a3daafe3b4186f6b6457e060405160405180910390a35050565b611313611795565b600160075f6101000a81548160ff0219169083151502179055507f62e78cea01bee320cd4e420270b5ea74000d11b0c9f74754ebdbfc544b05a258611356610ec7565b6040516113639190611b37565b60405180910390a1565b5f73ffffffffffffffffffffffffffffffffffffffff168473ffffffffffffffffffffffffffffffffffffffff16036113dd575f6040517fe602df050000000000000000000000000000000000000000000000000000000081526004016113d49190611b37565b60405180910390fd5b5f73ffffffffffffffffffffffffffffffffffffffff168373ffffffffffffffffffffffffffffffffffffffff160361144d575f6040517f94280d620000000000000000000000000000000000000000000000000000000081526004016114449190611b37565b60405180910390fd5b8160015f8673ffffffffffffffffffffffffffffffffffffffff1673ffffffffffffffffffffffffffffffffffffffff1681526020019081526020015f205f8573ffffffffffffffffffffffffffffffffffffffff1673ffffffffffffffffffffffffffffffffffffffff1681526020019081526020015f20819055508015611536578273ffffffffffffffffffffffffffffffffffffffff168473ffffffffffffffffffffffffffffffffffffffff167f8c5be1e5ebec7d5bd14f71427d1e84f3dd0314c0f7b2291e5b200ac8c7c3b9258460405161152d9190611991565b60405180910390a35b50505050565b5f73ffffffffffffffffffffffffffffffffffffffff168373ffffffffffffffffffffffffffffffffffffffff160361158c578060025f8282546115809190611d6c565b9250508190555061165a565b5f805f8573ffffffffffffffffffffffffffffffffffffffff1673ffffffffffffffffffffffffffffffffffffffff1681526020019081526020015f2054905081811015611615578381836040517fe450d38c00000000000000000000000000000000000000000000000000000000815260040161160c93929190611d0a565b60405180910390fd5b8181035f808673ffffffffffffffffffffffffffffffffffffffff1673ffffffffffffffffffffffffffffffffffffffff1681526020019081526020015f2081905550505b5f73ffffffffffffffffffffffffffffffffffffffff168273ffffffffffffffffffffffffffffffffffffffff16036116a1578060025f82825403925050819055506116eb565b805f808473ffffffffffffffffffffffffffffffffffffffff1673ffffffffffffffffffffffffffffffffffffffff1681526020019081526020015f205f82825401925050819055505b8173ffffffffffffffffffffffffffffffffffffffff168373ffffffffffffffffffffffffffffffffffffffff167fddf252ad1be2c89b69c2b068fc378daa952ba7f163c4a11628f55a4df523b3ef836040516117489190611991565b60405180910390a3505050565b61175d6108e2565b611793576040517f8dfc202b00000000000000000000000000000000000000000000000000000000815260040160405180910390fd5b565b61179d6108e2565b156117d4576040517fd93c066500000000000000000000000000000000000000000000000000000000815260040160405180910390fd5b565b5f81519050919050565b5f82825260208201905092915050565b5f5b8381101561180d5780820151818401526020810190506117f2565b5f8484015250505050565b5f601f19601f8301169050919050565b5f611832826117d6565b61183c81856117e0565b935061184c8185602086016117f0565b61185581611818565b840191505092915050565b5f6020820190508181035f8301526118788184611828565b905092915050565b5f80fd5b5f73ffffffffffffffffffffffffffffffffffffffff82169050919050565b5f6118ad82611884565b9050919050565b6118bd816118a3565b81146118c7575f80fd5b50565b5f813590506118d8816118b4565b92915050565b5f819050919050565b6118f0816118de565b81146118fa575f80fd5b50565b5f8135905061190b816118e7565b92915050565b5f806040838503121561192757611926611880565b5b5f611934858286016118ca565b9250506020611945858286016118fd565b9150509250929050565b5f8115159050919050565b6119638161194f565b82525050565b5f60208201905061197c5f83018461195a565b92915050565b61198b816118de565b82525050565b5f6020820190506119a45f830184611982565b92915050565b5f805f606084860312156119c1576119c0611880565b5b5f6119ce868287016118ca565b93505060206119df868287016118ca565b92505060406119f0868287016118fd565b9150509250925092565b5f60ff82169050919050565b611a0f816119fa565b82525050565b5f602082019050611a285f830184611a06565b92915050565b5f60208284031215611a4357611a42611880565b5b5f611a50848285016118ca565b91505092915050565b5f60208284031215611a6e57611a6d611880565b5b5f611a7b848285016118fd565b91505092915050565b5f611a8e82611884565b9050919050565b611a9e81611a84565b8114611aa8575f80fd5b50565b5f81359050611ab981611a95565b92915050565b5f60208284031215611ad457611ad3611880565b5b5f611ae184828501611aab565b91505092915050565b5f8060408385031215611b0057611aff611880565b5b5f611b0d858286016118fd565b9250506020611b1e858286016118fd565b9150509250929050565b611b31816118a3565b82525050565b5f602082019050611b4a5f830184611b28565b92915050565b611b5981611a84565b82525050565b5f602082019050611b725f830184611b50565b92915050565b5f8060408385031215611b8e57611b8d611880565b5b5f611b9b858286016118ca565b9250506020611bac858286016118ca565b9150509250929050565b5f604082019050611bc95f830185611982565b611bd66020830184611982565b9392505050565b7f4e487b71000000000000000000000000000000000000000000000000000000005f52602260045260245ffd5b5f6002820490506001821680611c2157607f821691505b602082108103611c3457611c33611bdd565b5b50919050565b7f427579207461782063616e6e6f742065786365656420313030250000000000005f82015250565b5f611c6e601a836117e0565b9150611c7982611c3a565b602082019050919050565b5f6020820190508181035f830152611c9b81611c62565b9050919050565b7f53656c6c207461782063616e6e6f7420657863656564203130302500000000005f82015250565b5f611cd6601b836117e0565b9150611ce182611ca2565b602082019050919050565b5f6020820190508181035f830152611d0381611cca565b9050919050565b5f606082019050611d1d5f830186611b28565b611d2a6020830185611982565b611d376040830184611982565b949350505050565b7f4e487b71000000000000000000000000000000000000000000000000000000005f52601160045260245ffd5b5f611d76826118de565b9150611d81836118de565b9250828201905080821115611d9957611d98611d3f565b5b9291505056fea26469706673582212201530a0bc90fcc78f134184eac346c454e24edcff8d0b8172e19f25714da28bfb64736f6c63430008170033",
					"opcodes": "PUSH1 0x80 PUSH1 0x40 MSTORE CALLVALUE DUP1 ISZERO PUSH3 0x10 JUMPI PUSH0 DUP1 REVERT JUMPDEST POP PUSH1 0x40 MLOAD PUSH3 0x2A80 CODESIZE SUB DUP1 PUSH3 0x2A80 DUP4 CODECOPY DUP2 DUP2 ADD PUSH1 0x40 MSTORE DUP2 ADD SWAP1 PUSH3 0x36 SWAP2 SWAP1 PUSH3 0x816 JUMP JUMPDEST CALLER PUSH1 0x40 MLOAD DUP1 PUSH1 0x40 ADD PUSH1 0x40 MSTORE DUP1 PUSH1 0x10 DUP2 MSTORE PUSH1 0x20 ADD PUSH32 0x4C6976696E672054686520447265616D00000000000000000000000000000000 DUP2 MSTORE POP PUSH1 0x40 MLOAD DUP1 PUSH1 0x40 ADD PUSH1 0x40 MSTORE DUP1 PUSH1 0x3 DUP2 MSTORE PUSH1 0x20 ADD PUSH32 0x4C54440000000000000000000000000000000000000000000000000000000000 DUP2 MSTORE POP DUP2 PUSH1 0x3 SWAP1 DUP2 PUSH3 0xB4 SWAP2 SWAP1 PUSH3 0xABF JUMP JUMPDEST POP DUP1 PUSH1 0x4 SWAP1 DUP2 PUSH3 0xC6 SWAP2 SWAP1 PUSH3 0xABF JUMP JUMPDEST POP POP POP PUSH0 PUSH20 0xFFFFFFFFFFFFFFFFFFFFFFFFFFFFFFFFFFFFFFFF AND DUP2 PUSH20 0xFFFFFFFFFFFFFFFFFFFFFFFFFFFFFFFFFFFFFFFF AND SUB PUSH3 0x13C JUMPI PUSH0 PUSH1 0x40 MLOAD PUSH32 0x1E4FBDF700000000000000000000000000000000000000000000000000000000 DUP2 MSTORE PUSH1 0x4 ADD PUSH3 0x133 SWAP2 SWAP1 PUSH3 0xBB4 JUMP JUMPDEST PUSH1 0x40 MLOAD DUP1 SWAP2 SUB SWAP1 REVERT JUMPDEST PUSH3 0x14D DUP2 PUSH3 0x296 PUSH1 0x20 SHL PUSH1 0x20 SHR JUMP JUMPDEST POP PUSH1 0x1 PUSH1 0x6 DUP2 SWAP1 SSTORE POP PUSH0 PUSH1 0x7 PUSH0 PUSH2 0x100 EXP DUP2 SLOAD DUP2 PUSH1 0xFF MUL NOT AND SWAP1 DUP4 ISZERO ISZERO MUL OR SWAP1 SSTORE POP PUSH3 0x18D CALLER PUSH12 0x6BB4AFE4CA85CB07A8340000 PUSH3 0x359 PUSH1 0x20 SHL PUSH1 0x20 SHR JUMP JUMPDEST PUSH3 0x1BF PUSH20 0x3E55EFC604A3E021069AA4852AB5A97798301FD5 PUSH12 0x11E110E90947DE0410340000 PUSH3 0x359 PUSH1 0x20 SHL PUSH1 0x20 SHR JUMP JUMPDEST PUSH3 0x1F1 PUSH20 0x54412E0892C534C89A076252E3824F1F7F549C52 PUSH12 0x59C13D3EA1D47881E3240000 PUSH3 0x359 PUSH1 0x20 SHL PUSH1 0x20 SHR JUMP JUMPDEST PUSH1 0x40 MLOAD DUP1 PUSH1 0x40 ADD PUSH1 0x40 MSTORE DUP1 PUSH1 0x7 DUP2 MSTORE PUSH1 0x20 ADD PUSH1 0xA DUP2 MSTORE POP PUSH1 0xB PUSH0 DUP3 ADD MLOAD DUP2 PUSH0 ADD SSTORE PUSH1 0x20 DUP3 ADD MLOAD DUP2 PUSH1 0x1 ADD SSTORE SWAP1 POP POP DUP2 PUSH1 0xD PUSH0 PUSH2 0x100 EXP DUP2 SLOAD DUP2 PUSH20 0xFFFFFFFFFFFFFFFFFFFFFFFFFFFFFFFFFFFFFFFF MUL NOT AND SWAP1 DUP4 PUSH20 0xFFFFFFFFFFFFFFFFFFFFFFFFFFFFFFFFFFFFFFFF AND MUL OR SWAP1 SSTORE POP PUSH3 0x27D DUP2 PUSH12 0x6BB4AFE4CA85CB07A8340000 PUSH3 0x359 PUSH1 0x20 SHL PUSH1 0x20 SHR JUMP JUMPDEST PUSH3 0x28E DUP2 PUSH3 0x3E3 PUSH1 0x20 SHL PUSH1 0x20 SHR JUMP JUMPDEST POP POP PUSH3 0xC9D JUMP JUMPDEST PUSH0 PUSH1 0x5 PUSH0 SWAP1 SLOAD SWAP1 PUSH2 0x100 EXP SWAP1 DIV PUSH20 0xFFFFFFFFFFFFFFFFFFFFFFFFFFFFFFFFFFFFFFFF AND SWAP1 POP DUP2 PUSH1 0x5 PUSH0 PUSH2 0x100 EXP DUP2 SLOAD DUP2 PUSH20 0xFFFFFFFFFFFFFFFFFFFFFFFFFFFFFFFFFFFFFFFF MUL NOT AND SWAP1 DUP4 PUSH20 0xFFFFFFFFFFFFFFFFFFFFFFFFFFFFFFFFFFFFFFFF AND MUL OR SWAP1 SSTORE POP DUP2 PUSH20 0xFFFFFFFFFFFFFFFFFFFFFFFFFFFFFFFFFFFFFFFF AND DUP2 PUSH20 0xFFFFFFFFFFFFFFFFFFFFFFFFFFFFFFFFFFFFFFFF AND PUSH32 0x8BE0079C531659141344CD1FD0A4F28419497F9722A3DAAFE3B4186F6B6457E0 PUSH1 0x40 MLOAD PUSH1 0x40 MLOAD DUP1 SWAP2 SUB SWAP1 LOG3 POP POP JUMP JUMPDEST PUSH0 PUSH20 0xFFFFFFFFFFFFFFFFFFFFFFFFFFFFFFFFFFFFFFFF AND DUP3 PUSH20 0xFFFFFFFFFFFFFFFFFFFFFFFFFFFFFFFFFFFFFFFF AND SUB PUSH3 0x3CC JUMPI PUSH0 PUSH1 0x40 MLOAD PUSH32 0xEC442F0500000000000000000000000000000000000000000000000000000000 DUP2 MSTORE PUSH1 0x4 ADD PUSH3 0x3C3 SWAP2 SWAP1 PUSH3 0xBB4 JUMP JUMPDEST PUSH1 0x40 MLOAD DUP1 SWAP2 SUB SWAP1 REVERT JUMPDEST PUSH3 0x3DF PUSH0 DUP4 DUP4 PUSH3 0x47A PUSH1 0x20 SHL PUSH1 0x20 SHR JUMP JUMPDEST POP POP JUMP JUMPDEST PUSH3 0x3F3 PUSH3 0x69E PUSH1 0x20 SHL PUSH1 0x20 SHR JUMP JUMPDEST PUSH0 PUSH20 0xFFFFFFFFFFFFFFFFFFFFFFFFFFFFFFFFFFFFFFFF AND DUP2 PUSH20 0xFFFFFFFFFFFFFFFFFFFFFFFFFFFFFFFFFFFFFFFF AND SUB PUSH3 0x466 JUMPI PUSH0 PUSH1 0x40 MLOAD PUSH32 0x1E4FBDF700000000000000000000000000000000000000000000000000000000 DUP2 MSTORE PUSH1 0x4 ADD PUSH3 0x45D SWAP2 SWAP1 PUSH3 0xBB4 JUMP JUMPDEST PUSH1 0x40 MLOAD DUP1 SWAP2 SUB SWAP1 REVERT JUMPDEST PUSH3 0x477 DUP2 PUSH3 0x296 PUSH1 0x20 SHL PUSH1 0x20 SHR JUMP JUMPDEST POP JUMP JUMPDEST PUSH0 PUSH20 0xFFFFFFFFFFFFFFFFFFFFFFFFFFFFFFFFFFFFFFFF AND DUP4 PUSH20 0xFFFFFFFFFFFFFFFFFFFFFFFFFFFFFFFFFFFFFFFF AND SUB PUSH3 0x4CE JUMPI DUP1 PUSH1 0x2 PUSH0 DUP3 DUP3 SLOAD PUSH3 0x4C1 SWAP2 SWAP1 PUSH3 0xBFC JUMP JUMPDEST SWAP3 POP POP DUP2 SWAP1 SSTORE POP PUSH3 0x59F JUMP JUMPDEST PUSH0 DUP1 PUSH0 DUP6 PUSH20 0xFFFFFFFFFFFFFFFFFFFFFFFFFFFFFFFFFFFFFFFF AND PUSH20 0xFFFFFFFFFFFFFFFFFFFFFFFFFFFFFFFFFFFFFFFF AND DUP2 MSTORE PUSH1 0x20 ADD SWAP1 DUP2 MSTORE PUSH1 0x20 ADD PUSH0 KECCAK256 SLOAD SWAP1 POP DUP2 DUP2 LT ISZERO PUSH3 0x55A JUMPI DUP4 DUP2 DUP4 PUSH1 0x40 MLOAD PUSH32 0xE450D38C00000000000000000000000000000000000000000000000000000000 DUP2 MSTORE PUSH1 0x4 ADD PUSH3 0x551 SWAP4 SWAP3 SWAP2 SWAP1 PUSH3 0xC47 JUMP JUMPDEST PUSH1 0x40 MLOAD DUP1 SWAP2 SUB SWAP1 REVERT JUMPDEST DUP2 DUP2 SUB PUSH0 DUP1 DUP7 PUSH20 0xFFFFFFFFFFFFFFFFFFFFFFFFFFFFFFFFFFFFFFFF AND PUSH20 0xFFFFFFFFFFFFFFFFFFFFFFFFFFFFFFFFFFFFFFFF AND DUP2 MSTORE PUSH1 0x20 ADD SWAP1 DUP2 MSTORE PUSH1 0x20 ADD PUSH0 KECCAK256 DUP2 SWAP1 SSTORE POP POP JUMPDEST PUSH0 PUSH20 0xFFFFFFFFFFFFFFFFFFFFFFFFFFFFFFFFFFFFFFFF AND DUP3 PUSH20 0xFFFFFFFFFFFFFFFFFFFFFFFFFFFFFFFFFFFFFFFF AND SUB PUSH3 0x5E8 JUMPI DUP1 PUSH1 0x2 PUSH0 DUP3 DUP3 SLOAD SUB SWAP3 POP POP DUP2 SWAP1 SSTORE POP PUSH3 0x632 JUMP JUMPDEST DUP1 PUSH0 DUP1 DUP5 PUSH20 0xFFFFFFFFFFFFFFFFFFFFFFFFFFFFFFFFFFFFFFFF AND PUSH20 0xFFFFFFFFFFFFFFFFFFFFFFFFFFFFFFFFFFFFFFFF AND DUP2 MSTORE PUSH1 0x20 ADD SWAP1 DUP2 MSTORE PUSH1 0x20 ADD PUSH0 KECCAK256 PUSH0 DUP3 DUP3 SLOAD ADD SWAP3 POP POP DUP2 SWAP1 SSTORE POP JUMPDEST DUP2 PUSH20 0xFFFFFFFFFFFFFFFFFFFFFFFFFFFFFFFFFFFFFFFF AND DUP4 PUSH20 0xFFFFFFFFFFFFFFFFFFFFFFFFFFFFFFFFFFFFFFFF AND PUSH32 0xDDF252AD1BE2C89B69C2B068FC378DAA952BA7F163C4A11628F55A4DF523B3EF DUP4 PUSH1 0x40 MLOAD PUSH3 0x691 SWAP2 SWAP1 PUSH3 0xC82 JUMP JUMPDEST PUSH1 0x40 MLOAD DUP1 SWAP2 SUB SWAP1 LOG3 POP POP POP JUMP JUMPDEST PUSH3 0x6AE PUSH3 0x740 PUSH1 0x20 SHL PUSH1 0x20 SHR JUMP JUMPDEST PUSH20 0xFFFFFFFFFFFFFFFFFFFFFFFFFFFFFFFFFFFFFFFF AND PUSH3 0x6D4 PUSH3 0x747 PUSH1 0x20 SHL PUSH1 0x20 SHR JUMP JUMPDEST PUSH20 0xFFFFFFFFFFFFFFFFFFFFFFFFFFFFFFFFFFFFFFFF AND EQ PUSH3 0x73E JUMPI PUSH3 0x700 PUSH3 0x740 PUSH1 0x20 SHL PUSH1 0x20 SHR JUMP JUMPDEST PUSH1 0x40 MLOAD PUSH32 0x118CDAA700000000000000000000000000000000000000000000000000000000 DUP2 MSTORE PUSH1 0x4 ADD PUSH3 0x735 SWAP2 SWAP1 PUSH3 0xBB4 JUMP JUMPDEST PUSH1 0x40 MLOAD DUP1 SWAP2 SUB SWAP1 REVERT JUMPDEST JUMP JUMPDEST PUSH0 CALLER SWAP1 POP SWAP1 JUMP JUMPDEST PUSH0 PUSH1 0x5 PUSH0 SWAP1 SLOAD SWAP1 PUSH2 0x100 EXP SWAP1 DIV PUSH20 0xFFFFFFFFFFFFFFFFFFFFFFFFFFFFFFFFFFFFFFFF AND SWAP1 POP SWAP1 JUMP JUMPDEST PUSH0 DUP1 REVERT JUMPDEST PUSH0 PUSH20 0xFFFFFFFFFFFFFFFFFFFFFFFFFFFFFFFFFFFFFFFF DUP3 AND SWAP1 POP SWAP2 SWAP1 POP JUMP JUMPDEST PUSH0 PUSH3 0x79E DUP3 PUSH3 0x773 JUMP JUMPDEST SWAP1 POP SWAP2 SWAP1 POP JUMP JUMPDEST PUSH3 0x7B0 DUP2 PUSH3 0x792 JUMP JUMPDEST DUP2 EQ PUSH3 0x7BB JUMPI PUSH0 DUP1 REVERT JUMPDEST POP JUMP JUMPDEST PUSH0 DUP2 MLOAD SWAP1 POP PUSH3 0x7CE DUP2 PUSH3 0x7A5 JUMP JUMPDEST SWAP3 SWAP2 POP POP JUMP JUMPDEST PUSH0 PUSH3 0x7E0 DUP3 PUSH3 0x773 JUMP JUMPDEST SWAP1 POP SWAP2 SWAP1 POP JUMP JUMPDEST PUSH3 0x7F2 DUP2 PUSH3 0x7D4 JUMP JUMPDEST DUP2 EQ PUSH3 0x7FD JUMPI PUSH0 DUP1 REVERT JUMPDEST POP JUMP JUMPDEST PUSH0 DUP2 MLOAD SWAP1 POP PUSH3 0x810 DUP2 PUSH3 0x7E7 JUMP JUMPDEST SWAP3 SWAP2 POP POP JUMP JUMPDEST PUSH0 DUP1 PUSH1 0x40 DUP4 DUP6 SUB SLT ISZERO PUSH3 0x82F JUMPI PUSH3 0x82E PUSH3 0x76F JUMP JUMPDEST JUMPDEST PUSH0 PUSH3 0x83E DUP6 DUP3 DUP7 ADD PUSH3 0x7BE JUMP JUMPDEST SWAP3 POP POP PUSH1 0x20 PUSH3 0x851 DUP6 DUP3 DUP7 ADD PUSH3 0x800 JUMP JUMPDEST SWAP2 POP POP SWAP3 POP SWAP3 SWAP1 POP JUMP JUMPDEST PUSH0 DUP2 MLOAD SWAP1 POP SWAP2 SWAP1 POP JUMP JUMPDEST PUSH32 0x4E487B7100000000000000000000000000000000000000000000000000000000 PUSH0 MSTORE PUSH1 0x41 PUSH1 0x4 MSTORE PUSH1 0x24 PUSH0 REVERT JUMPDEST PUSH32 0x4E487B7100000000000000000000000000000000000000000000000000000000 PUSH0 MSTORE PUSH1 0x22 PUSH1 0x4 MSTORE PUSH1 0x24 PUSH0 REVERT JUMPDEST PUSH0 PUSH1 0x2 DUP3 DIV SWAP1 POP PUSH1 0x1 DUP3 AND DUP1 PUSH3 0x8D7 JUMPI PUSH1 0x7F DUP3 AND SWAP2 POP JUMPDEST PUSH1 0x20 DUP3 LT DUP2 SUB PUSH3 0x8ED JUMPI PUSH3 0x8EC PUSH3 0x892 JUMP JUMPDEST JUMPDEST POP SWAP2 SWAP1 POP JUMP JUMPDEST PUSH0 DUP2 SWAP1 POP DUP2 PUSH0 MSTORE PUSH1 0x20 PUSH0 KECCAK256 SWAP1 POP SWAP2 SWAP1 POP JUMP JUMPDEST PUSH0 PUSH1 0x20 PUSH1 0x1F DUP4 ADD DIV SWAP1 POP SWAP2 SWAP1 POP JUMP JUMPDEST PUSH0 DUP3 DUP3 SHL SWAP1 POP SWAP3 SWAP2 POP POP JUMP JUMPDEST PUSH0 PUSH1 0x8 DUP4 MUL PUSH3 0x951 PUSH32 0xFFFFFFFFFFFFFFFFFFFFFFFFFFFFFFFFFFFFFFFFFFFFFFFFFFFFFFFFFFFFFFFF DUP3 PUSH3 0x914 JUMP JUMPDEST PUSH3 0x95D DUP7 DUP4 PUSH3 0x914 JUMP JUMPDEST SWAP6 POP DUP1 NOT DUP5 AND SWAP4 POP DUP1 DUP7 AND DUP5 OR SWAP3 POP POP POP SWAP4 SWAP3 POP POP POP JUMP JUMPDEST PUSH0 DUP2 SWAP1 POP SWAP2 SWAP1 POP JUMP JUMPDEST PUSH0 DUP2 SWAP1 POP SWAP2 SWAP1 POP JUMP JUMPDEST PUSH0 PUSH3 0x9A7 PUSH3 0x9A1 PUSH3 0x99B DUP5 PUSH3 0x975 JUMP JUMPDEST PUSH3 0x97E JUMP JUMPDEST PUSH3 0x975 JUMP JUMPDEST SWAP1 POP SWAP2 SWAP1 POP JUMP JUMPDEST PUSH0 DUP2 SWAP1 POP SWAP2 SWAP1 POP JUMP JUMPDEST PUSH3 0x9C2 DUP4 PUSH3 0x987 JUMP JUMPDEST PUSH3 0x9DA PUSH3 0x9D1 DUP3 PUSH3 0x9AE JUMP JUMPDEST DUP5 DUP5 SLOAD PUSH3 0x920 JUMP JUMPDEST DUP3 SSTORE POP POP POP POP JUMP JUMPDEST PUSH0 SWAP1 JUMP JUMPDEST PUSH3 0x9F0 PUSH3 0x9E2 JUMP JUMPDEST PUSH3 0x9FD DUP2 DUP5 DUP5 PUSH3 0x9B7 JUMP JUMPDEST POP POP POP JUMP JUMPDEST JUMPDEST DUP2 DUP2 LT ISZERO PUSH3 0xA24 JUMPI PUSH3 0xA18 PUSH0 DUP3 PUSH3 0x9E6 JUMP JUMPDEST PUSH1 0x1 DUP2 ADD SWAP1 POP PUSH3 0xA03 JUMP JUMPDEST POP POP JUMP JUMPDEST PUSH1 0x1F DUP3 GT ISZERO PUSH3 0xA73 JUMPI PUSH3 0xA3D DUP2 PUSH3 0x8F3 JUMP JUMPDEST PUSH3 0xA48 DUP5 PUSH3 0x905 JUMP JUMPDEST DUP2 ADD PUSH1 0x20 DUP6 LT ISZERO PUSH3 0xA58 JUMPI DUP2 SWAP1 POP JUMPDEST PUSH3 0xA70 PUSH3 0xA67 DUP6 PUSH3 0x905 JUMP JUMPDEST DUP4 ADD DUP3 PUSH3 0xA02 JUMP JUMPDEST POP POP JUMPDEST POP POP POP JUMP JUMPDEST PUSH0 DUP3 DUP3 SHR SWAP1 POP SWAP3 SWAP2 POP POP JUMP JUMPDEST PUSH0 PUSH3 0xA95 PUSH0 NOT DUP5 PUSH1 0x8 MUL PUSH3 0xA78 JUMP JUMPDEST NOT DUP1 DUP4 AND SWAP2 POP POP SWAP3 SWAP2 POP POP JUMP JUMPDEST PUSH0 PUSH3 0xAAF DUP4 DUP4 PUSH3 0xA84 JUMP JUMPDEST SWAP2 POP DUP3 PUSH1 0x2 MUL DUP3 OR SWAP1 POP SWAP3 SWAP2 POP POP JUMP JUMPDEST PUSH3 0xACA DUP3 PUSH3 0x85B JUMP JUMPDEST PUSH8 0xFFFFFFFFFFFFFFFF DUP2 GT ISZERO PUSH3 0xAE6 JUMPI PUSH3 0xAE5 PUSH3 0x865 JUMP JUMPDEST JUMPDEST PUSH3 0xAF2 DUP3 SLOAD PUSH3 0x8BF JUMP JUMPDEST PUSH3 0xAFF DUP3 DUP3 DUP6 PUSH3 0xA28 JUMP JUMPDEST PUSH0 PUSH1 0x20 SWAP1 POP PUSH1 0x1F DUP4 GT PUSH1 0x1 DUP2 EQ PUSH3 0xB35 JUMPI PUSH0 DUP5 ISZERO PUSH3 0xB20 JUMPI DUP3 DUP8 ADD MLOAD SWAP1 POP JUMPDEST PUSH3 0xB2C DUP6 DUP3 PUSH3 0xAA2 JUMP JUMPDEST DUP7 SSTORE POP PUSH3 0xB9B JUMP JUMPDEST PUSH1 0x1F NOT DUP5 AND PUSH3 0xB45 DUP7 PUSH3 0x8F3 JUMP JUMPDEST PUSH0 JUMPDEST DUP3 DUP2 LT ISZERO PUSH3 0xB6E JUMPI DUP5 DUP10 ADD MLOAD DUP3 SSTORE PUSH1 0x1 DUP3 ADD SWAP2 POP PUSH1 0x20 DUP6 ADD SWAP5 POP PUSH1 0x20 DUP2 ADD SWAP1 POP PUSH3 0xB47 JUMP JUMPDEST DUP7 DUP4 LT ISZERO PUSH3 0xB8E JUMPI DUP5 DUP10 ADD MLOAD PUSH3 0xB8A PUSH1 0x1F DUP10 AND DUP3 PUSH3 0xA84 JUMP JUMPDEST DUP4 SSTORE POP JUMPDEST PUSH1 0x1 PUSH1 0x2 DUP9 MUL ADD DUP9 SSTORE POP POP POP JUMPDEST POP POP POP POP POP POP JUMP JUMPDEST PUSH3 0xBAE DUP2 PUSH3 0x7D4 JUMP JUMPDEST DUP3 MSTORE POP POP JUMP JUMPDEST PUSH0 PUSH1 0x20 DUP3 ADD SWAP1 POP PUSH3 0xBC9 PUSH0 DUP4 ADD DUP5 PUSH3 0xBA3 JUMP JUMPDEST SWAP3 SWAP2 POP POP JUMP JUMPDEST PUSH32 0x4E487B7100000000000000000000000000000000000000000000000000000000 PUSH0 MSTORE PUSH1 0x11 PUSH1 0x4 MSTORE PUSH1 0x24 PUSH0 REVERT JUMPDEST PUSH0 PUSH3 0xC08 DUP3 PUSH3 0x975 JUMP JUMPDEST SWAP2 POP PUSH3 0xC15 DUP4 PUSH3 0x975 JUMP JUMPDEST SWAP3 POP DUP3 DUP3 ADD SWAP1 POP DUP1 DUP3 GT ISZERO PUSH3 0xC30 JUMPI PUSH3 0xC2F PUSH3 0xBCF JUMP JUMPDEST JUMPDEST SWAP3 SWAP2 POP POP JUMP JUMPDEST PUSH3 0xC41 DUP2 PUSH3 0x975 JUMP JUMPDEST DUP3 MSTORE POP POP JUMP JUMPDEST PUSH0 PUSH1 0x60 DUP3 ADD SWAP1 POP PUSH3 0xC5C PUSH0 DUP4 ADD DUP7 PUSH3 0xBA3 JUMP JUMPDEST PUSH3 0xC6B PUSH1 0x20 DUP4 ADD DUP6 PUSH3 0xC36 JUMP JUMPDEST PUSH3 0xC7A PUSH1 0x40 DUP4 ADD DUP5 PUSH3 0xC36 JUMP JUMPDEST SWAP5 SWAP4 POP POP POP POP JUMP JUMPDEST PUSH0 PUSH1 0x20 DUP3 ADD SWAP1 POP PUSH3 0xC97 PUSH0 DUP4 ADD DUP5 PUSH3 0xC36 JUMP JUMPDEST SWAP3 SWAP2 POP POP JUMP JUMPDEST PUSH2 0x1DD5 DUP1 PUSH3 0xCAB PUSH0 CODECOPY PUSH0 RETURN INVALID PUSH1 0x80 PUSH1 0x40 MSTORE CALLVALUE DUP1 ISZERO PUSH2 0xF JUMPI PUSH0 DUP1 REVERT JUMPDEST POP PUSH1 0x4 CALLDATASIZE LT PUSH2 0x225 JUMPI PUSH0 CALLDATALOAD PUSH1 0xE0 SHR DUP1 PUSH4 0x70A08231 GT PUSH2 0x12E JUMPI DUP1 PUSH4 0xA9059CBB GT PUSH2 0xB6 JUMPI DUP1 PUSH4 0xE17C4C74 GT PUSH2 0x7A JUMPI DUP1 PUSH4 0xE17C4C74 EQ PUSH2 0x615 JUMPI DUP1 PUSH4 0xE43252D7 EQ PUSH2 0x631 JUMPI DUP1 PUSH4 0xEB1E7387 EQ PUSH2 0x64D JUMPI DUP1 PUSH4 0xF2FDE38B EQ PUSH2 0x66C JUMPI DUP1 PUSH4 0xFE575A87 EQ PUSH2 0x688 JUMPI PUSH2 0x225 JUMP JUMPDEST DUP1 PUSH4 0xA9059CBB EQ PUSH2 0x549 JUMPI DUP1 PUSH4 0xB3A88C1B EQ PUSH2 0x579 JUMPI DUP1 PUSH4 0xC5F956AF EQ PUSH2 0x597 JUMPI DUP1 PUSH4 0xCB4CA631 EQ PUSH2 0x5B5 JUMPI DUP1 PUSH4 0xDD62ED3E EQ PUSH2 0x5E5 JUMPI PUSH2 0x225 JUMP JUMPDEST DUP1 PUSH4 0x8456CB59 GT PUSH2 0xFD JUMPI DUP1 PUSH4 0x8456CB59 EQ PUSH2 0x4CB JUMPI DUP1 PUSH4 0x8AB1D681 EQ PUSH2 0x4D5 JUMPI DUP1 PUSH4 0x8DA5CB5B EQ PUSH2 0x4F1 JUMPI DUP1 PUSH4 0x95D89B41 EQ PUSH2 0x50F JUMPI DUP1 PUSH4 0x9DC29FAC EQ PUSH2 0x52D JUMPI PUSH2 0x225 JUMP JUMPDEST DUP1 PUSH4 0x70A08231 EQ PUSH2 0x457 JUMPI DUP1 PUSH4 0x715018A6 EQ PUSH2 0x487 JUMPI DUP1 PUSH4 0x72A8A933 EQ PUSH2 0x491 JUMPI DUP1 PUSH4 0x79CC6790 EQ PUSH2 0x4AF JUMPI PUSH2 0x225 JUMP JUMPDEST DUP1 PUSH4 0x40C10F19 GT PUSH2 0x1B1 JUMPI DUP1 PUSH4 0x5C975ABB GT PUSH2 0x180 JUMPI DUP1 PUSH4 0x5C975ABB EQ PUSH2 0x3C9 JUMPI DUP1 PUSH4 0x60D1259E EQ PUSH2 0x3E7 JUMPI DUP1 PUSH4 0x6605BFDA EQ PUSH2 0x403 JUMPI DUP1 PUSH4 0x6C95702B EQ PUSH2 0x41F JUMPI DUP1 PUSH4 0x6F0B00AC EQ PUSH2 0x43B JUMPI PUSH2 0x225 JUMP JUMPDEST DUP1 PUSH4 0x40C10F19 EQ PUSH2 0x359 JUMPI DUP1 PUSH4 0x42966C68 EQ PUSH2 0x375 JUMPI DUP1 PUSH4 0x44337EA1 EQ PUSH2 0x391 JUMPI DUP1 PUSH4 0x537DF3B6 EQ PUSH2 0x3AD JUMPI PUSH2 0x225 JUMP JUMPDEST DUP1 PUSH4 0x2FF2E9DC GT PUSH2 0x1F8 JUMPI DUP1 PUSH4 0x2FF2E9DC EQ PUSH2 0x2C5 JUMPI DUP1 PUSH4 0x313CE567 EQ PUSH2 0x2E3 JUMPI DUP1 PUSH4 0x32CB6B0C EQ PUSH2 0x301 JUMPI DUP1 PUSH4 0x3AF32ABF EQ PUSH2 0x31F JUMPI DUP1 PUSH4 0x3F4BA83A EQ PUSH2 0x34F JUMPI PUSH2 0x225 JUMP JUMPDEST DUP1 PUSH4 0x6FDDE03 EQ PUSH2 0x229 JUMPI DUP1 PUSH4 0x95EA7B3 EQ PUSH2 0x247 JUMPI DUP1 PUSH4 0x18160DDD EQ PUSH2 0x277 JUMPI DUP1 PUSH4 0x23B872DD EQ PUSH2 0x295 JUMPI JUMPDEST PUSH0 DUP1 REVERT JUMPDEST PUSH2 0x231 PUSH2 0x6B8 JUMP JUMPDEST PUSH1 0x40 MLOAD PUSH2 0x23E SWAP2 SWAP1 PUSH2 0x1860 JUMP JUMPDEST PUSH1 0x40 MLOAD DUP1 SWAP2 SUB SWAP1 RETURN JUMPDEST PUSH2 0x261 PUSH1 0x4 DUP1 CALLDATASIZE SUB DUP2 ADD SWAP1 PUSH2 0x25C SWAP2 SWAP1 PUSH2 0x1911 JUMP JUMPDEST PUSH2 0x748 JUMP JUMPDEST PUSH1 0x40 MLOAD PUSH2 0x26E SWAP2 SWAP1 PUSH2 0x1969 JUMP JUMPDEST PUSH1 0x40 MLOAD DUP1 SWAP2 SUB SWAP1 RETURN JUMPDEST PUSH2 0x27F PUSH2 0x76A JUMP JUMPDEST PUSH1 0x40 MLOAD PUSH2 0x28C SWAP2 SWAP1 PUSH2 0x1991 JUMP JUMPDEST PUSH1 0x40 MLOAD DUP1 SWAP2 SUB SWAP1 RETURN JUMPDEST PUSH2 0x2AF PUSH1 0x4 DUP1 CALLDATASIZE SUB DUP2 ADD SWAP1 PUSH2 0x2AA SWAP2 SWAP1 PUSH2 0x19AA JUMP JUMPDEST PUSH2 0x773 JUMP JUMPDEST PUSH1 0x40 MLOAD PUSH2 0x2BC SWAP2 SWAP1 PUSH2 0x1969 JUMP JUMPDEST PUSH1 0x40 MLOAD DUP1 SWAP2 SUB SWAP1 RETURN JUMPDEST PUSH2 0x2CD PUSH2 0x7A1 JUMP JUMPDEST PUSH1 0x40 MLOAD PUSH2 0x2DA SWAP2 SWAP1 PUSH2 0x1991 JUMP JUMPDEST PUSH1 0x40 MLOAD DUP1 SWAP2 SUB SWAP1 RETURN JUMPDEST PUSH2 0x2EB PUSH2 0x7B1 JUMP JUMPDEST PUSH1 0x40 MLOAD PUSH2 0x2F8 SWAP2 SWAP1 PUSH2 0x1A15 JUMP JUMPDEST PUSH1 0x40 MLOAD DUP1 SWAP2 SUB SWAP1 RETURN JUMPDEST PUSH2 0x309 PUSH2 0x7B9 JUMP JUMPDEST PUSH1 0x40 MLOAD PUSH2 0x316 SWAP2 SWAP1 PUSH2 0x1991 JUMP JUMPDEST PUSH1 0x40 MLOAD DUP1 SWAP2 SUB SWAP1 RETURN JUMPDEST PUSH2 0x339 PUSH1 0x4 DUP1 CALLDATASIZE SUB DUP2 ADD SWAP1 PUSH2 0x334 SWAP2 SWAP1 PUSH2 0x1A2E JUMP JUMPDEST PUSH2 0x7CA JUMP JUMPDEST PUSH1 0x40 MLOAD PUSH2 0x346 SWAP2 SWAP1 PUSH2 0x1969 JUMP JUMPDEST PUSH1 0x40 MLOAD DUP1 SWAP2 SUB SWAP1 RETURN JUMPDEST PUSH2 0x357 PUSH2 0x7E7 JUMP JUMPDEST STOP JUMPDEST PUSH2 0x373 PUSH1 0x4 DUP1 CALLDATASIZE SUB DUP2 ADD SWAP1 PUSH2 0x36E SWAP2 SWAP1 PUSH2 0x1911 JUMP JUMPDEST PUSH2 0x7F9 JUMP JUMPDEST STOP JUMPDEST PUSH2 0x38F PUSH1 0x4 DUP1 CALLDATASIZE SUB DUP2 ADD SWAP1 PUSH2 0x38A SWAP2 SWAP1 PUSH2 0x1A59 JUMP JUMPDEST PUSH2 0x80F JUMP JUMPDEST STOP JUMPDEST PUSH2 0x3AB PUSH1 0x4 DUP1 CALLDATASIZE SUB DUP2 ADD SWAP1 PUSH2 0x3A6 SWAP2 SWAP1 PUSH2 0x1A2E JUMP JUMPDEST PUSH2 0x823 JUMP JUMPDEST STOP JUMPDEST PUSH2 0x3C7 PUSH1 0x4 DUP1 CALLDATASIZE SUB DUP2 ADD SWAP1 PUSH2 0x3C2 SWAP2 SWAP1 PUSH2 0x1A2E JUMP JUMPDEST PUSH2 0x883 JUMP JUMPDEST STOP JUMPDEST PUSH2 0x3D1 PUSH2 0x8E2 JUMP JUMPDEST PUSH1 0x40 MLOAD PUSH2 0x3DE SWAP2 SWAP1 PUSH2 0x1969 JUMP JUMPDEST PUSH1 0x40 MLOAD DUP1 SWAP2 SUB SWAP1 RETURN JUMPDEST PUSH2 0x401 PUSH1 0x4 DUP1 CALLDATASIZE SUB DUP2 ADD SWAP1 PUSH2 0x3FC SWAP2 SWAP1 PUSH2 0x1A2E JUMP JUMPDEST PUSH2 0x8F7 JUMP JUMPDEST STOP JUMPDEST PUSH2 0x41D PUSH1 0x4 DUP1 CALLDATASIZE SUB DUP2 ADD SWAP1 PUSH2 0x418 SWAP2 SWAP1 PUSH2 0x1ABF JUMP JUMPDEST PUSH2 0x957 JUMP JUMPDEST STOP JUMPDEST PUSH2 0x439 PUSH1 0x4 DUP1 CALLDATASIZE SUB DUP2 ADD SWAP1 PUSH2 0x434 SWAP2 SWAP1 PUSH2 0x1911 JUMP JUMPDEST PUSH2 0x9A2 JUMP JUMPDEST STOP JUMPDEST PUSH2 0x455 PUSH1 0x4 DUP1 CALLDATASIZE SUB DUP2 ADD SWAP1 PUSH2 0x450 SWAP2 SWAP1 PUSH2 0x1AEA JUMP JUMPDEST PUSH2 0x9B9 JUMP JUMPDEST STOP JUMPDEST PUSH2 0x471 PUSH1 0x4 DUP1 CALLDATASIZE SUB DUP2 ADD SWAP1 PUSH2 0x46C SWAP2 SWAP1 PUSH2 0x1A2E JUMP JUMPDEST PUSH2 0xA99 JUMP JUMPDEST PUSH1 0x40 MLOAD PUSH2 0x47E SWAP2 SWAP1 PUSH2 0x1991 JUMP JUMPDEST PUSH1 0x40 MLOAD DUP1 SWAP2 SUB SWAP1 RETURN JUMPDEST PUSH2 0x48F PUSH2 0xADE JUMP JUMPDEST STOP JUMPDEST PUSH2 0x499 PUSH2 0xAF1 JUMP JUMPDEST PUSH1 0x40 MLOAD PUSH2 0x4A6 SWAP2 SWAP1 PUSH2 0x1991 JUMP JUMPDEST PUSH1 0x40 MLOAD DUP1 SWAP2 SUB SWAP1 RETURN JUMPDEST PUSH2 0x4C9 PUSH1 0x4 DUP1 CALLDATASIZE SUB DUP2 ADD SWAP1 PUSH2 0x4C4 SWAP2 SWAP1 PUSH2 0x1911 JUMP JUMPDEST PUSH2 0xB01 JUMP JUMPDEST STOP JUMPDEST PUSH2 0x4D3 PUSH2 0xB21 JUMP JUMPDEST STOP JUMPDEST PUSH2 0x4EF PUSH1 0x4 DUP1 CALLDATASIZE SUB DUP2 ADD SWAP1 PUSH2 0x4EA SWAP2 SWAP1 PUSH2 0x1A2E JUMP JUMPDEST PUSH2 0xB33 JUMP JUMPDEST STOP JUMPDEST PUSH2 0x4F9 PUSH2 0xB92 JUMP JUMPDEST PUSH1 0x40 MLOAD PUSH2 0x506 SWAP2 SWAP1 PUSH2 0x1B37 JUMP JUMPDEST PUSH1 0x40 MLOAD DUP1 SWAP2 SUB SWAP1 RETURN JUMPDEST PUSH2 0x517 PUSH2 0xBBA JUMP JUMPDEST PUSH1 0x40 MLOAD PUSH2 0x524 SWAP2 SWAP1 PUSH2 0x1860 JUMP JUMPDEST PUSH1 0x40 MLOAD DUP1 SWAP2 SUB SWAP1 RETURN JUMPDEST PUSH2 0x547 PUSH1 0x4 DUP1 CALLDATASIZE SUB DUP2 ADD SWAP1 PUSH2 0x542 SWAP2 SWAP1 PUSH2 0x1911 JUMP JUMPDEST PUSH2 0xC4A JUMP JUMPDEST STOP JUMPDEST PUSH2 0x563 PUSH1 0x4 DUP1 CALLDATASIZE SUB DUP2 ADD SWAP1 PUSH2 0x55E SWAP2 SWAP1 PUSH2 0x1911 JUMP JUMPDEST PUSH2 0xC60 JUMP JUMPDEST PUSH1 0x40 MLOAD PUSH2 0x570 SWAP2 SWAP1 PUSH2 0x1969 JUMP JUMPDEST PUSH1 0x40 MLOAD DUP1 SWAP2 SUB SWAP1 RETURN JUMPDEST PUSH2 0x581 PUSH2 0xC82 JUMP JUMPDEST PUSH1 0x40 MLOAD PUSH2 0x58E SWAP2 SWAP1 PUSH2 0x1991 JUMP JUMPDEST PUSH1 0x40 MLOAD DUP1 SWAP2 SUB SWAP1 RETURN JUMPDEST PUSH2 0x59F PUSH2 0xC92 JUMP JUMPDEST PUSH1 0x40 MLOAD PUSH2 0x5AC SWAP2 SWAP1 PUSH2 0x1B5F JUMP JUMPDEST PUSH1 0x40 MLOAD DUP1 SWAP2 SUB SWAP1 RETURN JUMPDEST PUSH2 0x5CF PUSH1 0x4 DUP1 CALLDATASIZE SUB DUP2 ADD SWAP1 PUSH2 0x5CA SWAP2 SWAP1 PUSH2 0x1A2E JUMP JUMPDEST PUSH2 0xCB7 JUMP JUMPDEST PUSH1 0x40 MLOAD PUSH2 0x5DC SWAP2 SWAP1 PUSH2 0x1969 JUMP JUMPDEST PUSH1 0x40 MLOAD DUP1 SWAP2 SUB SWAP1 RETURN JUMPDEST PUSH2 0x5FF PUSH1 0x4 DUP1 CALLDATASIZE SUB DUP2 ADD SWAP1 PUSH2 0x5FA SWAP2 SWAP1 PUSH2 0x1B78 JUMP JUMPDEST PUSH2 0xCD4 JUMP JUMPDEST PUSH1 0x40 MLOAD PUSH2 0x60C SWAP2 SWAP1 PUSH2 0x1991 JUMP JUMPDEST PUSH1 0x40 MLOAD DUP1 SWAP2 SUB SWAP1 RETURN JUMPDEST PUSH2 0x62F PUSH1 0x4 DUP1 CALLDATASIZE SUB DUP2 ADD SWAP1 PUSH2 0x62A SWAP2 SWAP1 PUSH2 0x1A2E JUMP JUMPDEST PUSH2 0xD56 JUMP JUMPDEST STOP JUMPDEST PUSH2 0x64B PUSH1 0x4 DUP1 CALLDATASIZE SUB DUP2 ADD SWAP1 PUSH2 0x646 SWAP2 SWAP1 PUSH2 0x1A2E JUMP JUMPDEST PUSH2 0xDB5 JUMP JUMPDEST STOP JUMPDEST PUSH2 0x655 PUSH2 0xE15 JUMP JUMPDEST PUSH1 0x40 MLOAD PUSH2 0x663 SWAP3 SWAP2 SWAP1 PUSH2 0x1BB6 JUMP JUMPDEST PUSH1 0x40 MLOAD DUP1 SWAP2 SUB SWAP1 RETURN JUMPDEST PUSH2 0x686 PUSH1 0x4 DUP1 CALLDATASIZE SUB DUP2 ADD SWAP1 PUSH2 0x681 SWAP2 SWAP1 PUSH2 0x1A2E JUMP JUMPDEST PUSH2 0xE26 JUMP JUMPDEST STOP JUMPDEST PUSH2 0x6A2 PUSH1 0x4 DUP1 CALLDATASIZE SUB DUP2 ADD SWAP1 PUSH2 0x69D SWAP2 SWAP1 PUSH2 0x1A2E JUMP JUMPDEST PUSH2 0xEAA JUMP JUMPDEST PUSH1 0x40 MLOAD PUSH2 0x6AF SWAP2 SWAP1 PUSH2 0x1969 JUMP JUMPDEST PUSH1 0x40 MLOAD DUP1 SWAP2 SUB SWAP1 RETURN JUMPDEST PUSH1 0x60 PUSH1 0x3 DUP1 SLOAD PUSH2 0x6C7 SWAP1 PUSH2 0x1C0A JUMP JUMPDEST DUP1 PUSH1 0x1F ADD PUSH1 0x20 DUP1 SWAP2 DIV MUL PUSH1 0x20 ADD PUSH1 0x40 MLOAD SWAP1 DUP2 ADD PUSH1 0x40 MSTORE DUP1 SWAP3 SWAP2 SWAP1 DUP2 DUP2 MSTORE PUSH1 0x20 ADD DUP3 DUP1 SLOAD PUSH2 0x6F3 SWAP1 PUSH2 0x1C0A JUMP JUMPDEST DUP1 ISZERO PUSH2 0x73E JUMPI DUP1 PUSH1 0x1F LT PUSH2 0x715 JUMPI PUSH2 0x100 DUP1 DUP4 SLOAD DIV MUL DUP4 MSTORE SWAP2 PUSH1 0x20 ADD SWAP2 PUSH2 0x73E JUMP JUMPDEST DUP3 ADD SWAP2 SWAP1 PUSH0 MSTORE PUSH1 0x20 PUSH0 KECCAK256 SWAP1 JUMPDEST DUP2 SLOAD DUP2 MSTORE SWAP1 PUSH1 0x1 ADD SWAP1 PUSH1 0x20 ADD DUP1 DUP4 GT PUSH2 0x721 JUMPI DUP3 SWAP1 SUB PUSH1 0x1F AND DUP3 ADD SWAP2 JUMPDEST POP POP POP POP POP SWAP1 POP SWAP1 JUMP JUMPDEST PUSH0 DUP1 PUSH2 0x752 PUSH2 0xEC7 JUMP JUMPDEST SWAP1 POP PUSH2 0x75F DUP2 DUP6 DUP6 PUSH2 0xECE JUMP JUMPDEST PUSH1 0x1 SWAP2 POP POP SWAP3 SWAP2 POP POP JUMP JUMPDEST PUSH0 PUSH1 0x2 SLOAD SWAP1 POP SWAP1 JUMP JUMPDEST PUSH0 DUP1 PUSH2 0x77D PUSH2 0xEC7 JUMP JUMPDEST SWAP1 POP PUSH2 0x78A DUP6 DUP3 DUP6 PUSH2 0xEE0 JUMP JUMPDEST PUSH2 0x795 DUP6 DUP6 DUP6 PUSH2 0xF72 JUMP JUMPDEST PUSH1 0x1 SWAP2 POP POP SWAP4 SWAP3 POP POP POP JUMP JUMPDEST PUSH12 0x6BB4AFE4CA85CB07A8340000 DUP2 JUMP JUMPDEST PUSH0 PUSH1 0x12 SWAP1 POP SWAP1 JUMP JUMPDEST PUSH13 0x4350EDEF012DC126788340000 DUP2 JUMP JUMPDEST PUSH1 0x8 PUSH1 0x20 MSTORE DUP1 PUSH0 MSTORE PUSH1 0x40 PUSH0 KECCAK256 PUSH0 SWAP2 POP SLOAD SWAP1 PUSH2 0x100 EXP SWAP1 DIV PUSH1 0xFF AND DUP2 JUMP JUMPDEST PUSH2 0x7EF PUSH2 0x1062 JUMP JUMPDEST PUSH2 0x7F7 PUSH2 0x10E9 JUMP JUMPDEST JUMP JUMPDEST PUSH2 0x801 PUSH2 0x1062 JUMP JUMPDEST PUSH2 0x80B DUP3 DUP3 PUSH2 0x114A JUMP JUMPDEST POP POP JUMP JUMPDEST PUSH2 0x820 PUSH2 0x81A PUSH2 0xEC7 JUMP JUMPDEST DUP3 PUSH2 0x11C9 JUMP JUMPDEST POP JUMP JUMPDEST PUSH2 0x82B PUSH2 0x1062 JUMP JUMPDEST PUSH1 0x1 PUSH1 0x9 PUSH0 DUP4 PUSH20 0xFFFFFFFFFFFFFFFFFFFFFFFFFFFFFFFFFFFFFFFF AND PUSH20 0xFFFFFFFFFFFFFFFFFFFFFFFFFFFFFFFFFFFFFFFF AND DUP2 MSTORE PUSH1 0x20 ADD SWAP1 DUP2 MSTORE PUSH1 0x20 ADD PUSH0 KECCAK256 PUSH0 PUSH2 0x100 EXP DUP2 SLOAD DUP2 PUSH1 0xFF MUL NOT AND SWAP1 DUP4 ISZERO ISZERO MUL OR SWAP1 SSTORE POP POP JUMP JUMPDEST PUSH2 0x88B PUSH2 0x1062 JUMP JUMPDEST PUSH0 PUSH1 0x9 PUSH0 DUP4 PUSH20 0xFFFFFFFFFFFFFFFFFFFFFFFFFFFFFFFFFFFFFFFF AND PUSH20 0xFFFFFFFFFFFFFFFFFFFFFFFFFFFFFFFFFFFFFFFF AND DUP2 MSTORE PUSH1 0x20 ADD SWAP1 DUP2 MSTORE PUSH1 0x20 ADD PUSH0 KECCAK256 PUSH0 PUSH2 0x100 EXP DUP2 SLOAD DUP2 PUSH1 0xFF MUL NOT AND SWAP1 DUP4 ISZERO ISZERO MUL OR SWAP1 SSTORE POP POP JUMP JUMPDEST PUSH0 PUSH1 0x7 PUSH0 SWAP1 SLOAD SWAP1 PUSH2 0x100 EXP SWAP1 DIV PUSH1 0xFF AND SWAP1 POP SWAP1 JUMP JUMPDEST PUSH2 0x8FF PUSH2 0x1062 JUMP JUMPDEST PUSH1 0x1 PUSH1 0xA PUSH0 DUP4 PUSH20 0xFFFFFFFFFFFFFFFFFFFFFFFFFFFFFFFFFFFFFFFF AND PUSH20 0xFFFFFFFFFFFFFFFFFFFFFFFFFFFFFFFFFFFFFFFF AND DUP2 MSTORE PUSH1 0x20 ADD SWAP1 DUP2 MSTORE PUSH1 0x20 ADD PUSH0 KECCAK256 PUSH0 PUSH2 0x100 EXP DUP2 SLOAD DUP2 PUSH1 0xFF MUL NOT AND SWAP1 DUP4 ISZERO ISZERO MUL OR SWAP1 SSTORE POP POP JUMP JUMPDEST PUSH2 0x95F PUSH2 0x1062 JUMP JUMPDEST DUP1 PUSH1 0xD PUSH0 PUSH2 0x100 EXP DUP2 SLOAD DUP2 PUSH20 0xFFFFFFFFFFFFFFFFFFFFFFFFFFFFFFFFFFFFFFFF MUL NOT AND SWAP1 DUP4 PUSH20 0xFFFFFFFFFFFFFFFFFFFFFFFFFFFFFFFFFFFFFFFF AND MUL OR SWAP1 SSTORE POP POP JUMP JUMPDEST PUSH2 0x9AA PUSH2 0x1062 JUMP JUMPDEST PUSH2 0x9B5 ADDRESS DUP4 DUP4 PUSH2 0xECE JUMP JUMPDEST POP POP JUMP JUMPDEST PUSH2 0x9C1 PUSH2 0x1062 JUMP JUMPDEST PUSH1 0x64 DUP3 GT ISZERO PUSH2 0xA05 JUMPI PUSH1 0x40 MLOAD PUSH32 0x8C379A000000000000000000000000000000000000000000000000000000000 DUP2 MSTORE PUSH1 0x4 ADD PUSH2 0x9FC SWAP1 PUSH2 0x1C84 JUMP JUMPDEST PUSH1 0x40 MLOAD DUP1 SWAP2 SUB SWAP1 REVERT JUMPDEST PUSH1 0x64 DUP2 GT ISZERO PUSH2 0xA49 JUMPI PUSH1 0x40 MLOAD PUSH32 0x8C379A000000000000000000000000000000000000000000000000000000000 DUP2 MSTORE PUSH1 0x4 ADD PUSH2 0xA40 SWAP1 PUSH2 0x1CEC JUMP JUMPDEST PUSH1 0x40 MLOAD DUP1 SWAP2 SUB SWAP1 REVERT JUMPDEST DUP2 PUSH1 0xB PUSH0 ADD DUP2 SWAP1 SSTORE POP DUP1 PUSH1 0xB PUSH1 0x1 ADD DUP2 SWAP1 SSTORE POP PUSH32 0x5EEE0B95930EE59011F34615B0B7DC6CC58C01D1F07D04A01A3A1E70D2554CF0 DUP3 DUP3 PUSH1 0x40 MLOAD PUSH2 0xA8D SWAP3 SWAP2 SWAP1 PUSH2 0x1BB6 JUMP JUMPDEST PUSH1 0x40 MLOAD DUP1 SWAP2 SUB SWAP1 LOG1 POP POP JUMP JUMPDEST PUSH0 DUP1 PUSH0 DUP4 PUSH20 0xFFFFFFFFFFFFFFFFFFFFFFFFFFFFFFFFFFFFFFFF AND PUSH20 0xFFFFFFFFFFFFFFFFFFFFFFFFFFFFFFFFFFFFFFFF AND DUP2 MSTORE PUSH1 0x20 ADD SWAP1 DUP2 MSTORE PUSH1 0x20 ADD PUSH0 KECCAK256 SLOAD SWAP1 POP SWAP2 SWAP1 POP JUMP JUMPDEST PUSH2 0xAE6 PUSH2 0x1062 JUMP JUMPDEST PUSH2 0xAEF PUSH0 PUSH2 0x1248 JUMP JUMPDEST JUMP JUMPDEST PUSH12 0x59C13D3EA1D47881E3240000 DUP2 JUMP JUMPDEST PUSH2 0xB13 DUP3 PUSH2 0xB0D PUSH2 0xEC7 JUMP JUMPDEST DUP4 PUSH2 0xEE0 JUMP JUMPDEST PUSH2 0xB1D DUP3 DUP3 PUSH2 0x11C9 JUMP JUMPDEST POP POP JUMP JUMPDEST PUSH2 0xB29 PUSH2 0x1062 JUMP JUMPDEST PUSH2 0xB31 PUSH2 0x130B JUMP JUMPDEST JUMP JUMPDEST PUSH2 0xB3B PUSH2 0x1062 JUMP JUMPDEST PUSH0 PUSH1 0x8 PUSH0 DUP4 PUSH20 0xFFFFFFFFFFFFFFFFFFFFFFFFFFFFFFFFFFFFFFFF AND PUSH20 0xFFFFFFFFFFFFFFFFFFFFFFFFFFFFFFFFFFFFFFFF AND DUP2 MSTORE PUSH1 0x20 ADD SWAP1 DUP2 MSTORE PUSH1 0x20 ADD PUSH0 KECCAK256 PUSH0 PUSH2 0x100 EXP DUP2 SLOAD DUP2 PUSH1 0xFF MUL NOT AND SWAP1 DUP4 ISZERO ISZERO MUL OR SWAP1 SSTORE POP POP JUMP JUMPDEST PUSH0 PUSH1 0x5 PUSH0 SWAP1 SLOAD SWAP1 PUSH2 0x100 EXP SWAP1 DIV PUSH20 0xFFFFFFFFFFFFFFFFFFFFFFFFFFFFFFFFFFFFFFFF AND SWAP1 POP SWAP1 JUMP JUMPDEST PUSH1 0x60 PUSH1 0x4 DUP1 SLOAD PUSH2 0xBC9 SWAP1 PUSH2 0x1C0A JUMP JUMPDEST DUP1 PUSH1 0x1F ADD PUSH1 0x20 DUP1 SWAP2 DIV MUL PUSH1 0x20 ADD PUSH1 0x40 MLOAD SWAP1 DUP2 ADD PUSH1 0x40 MSTORE DUP1 SWAP3 SWAP2 SWAP1 DUP2 DUP2 MSTORE PUSH1 0x20 ADD DUP3 DUP1 SLOAD PUSH2 0xBF5 SWAP1 PUSH2 0x1C0A JUMP JUMPDEST DUP1 ISZERO PUSH2 0xC40 JUMPI DUP1 PUSH1 0x1F LT PUSH2 0xC17 JUMPI PUSH2 0x100 DUP1 DUP4 SLOAD DIV MUL DUP4 MSTORE SWAP2 PUSH1 0x20 ADD SWAP2 PUSH2 0xC40 JUMP JUMPDEST DUP3 ADD SWAP2 SWAP1 PUSH0 MSTORE PUSH1 0x20 PUSH0 KECCAK256 SWAP1 JUMPDEST DUP2 SLOAD DUP2 MSTORE SWAP1 PUSH1 0x1 ADD SWAP1 PUSH1 0x20 ADD DUP1 DUP4 GT PUSH2 0xC23 JUMPI DUP3 SWAP1 SUB PUSH1 0x1F AND DUP3 ADD SWAP2 JUMPDEST POP POP POP POP POP SWAP1 POP SWAP1 JUMP JUMPDEST PUSH2 0xC52 PUSH2 0x1062 JUMP JUMPDEST PUSH2 0xC5C DUP3 DUP3 PUSH2 0x11C9 JUMP JUMPDEST POP POP JUMP JUMPDEST PUSH0 DUP1 PUSH2 0xC6A PUSH2 0xEC7 JUMP JUMPDEST SWAP1 POP PUSH2 0xC77 DUP2 DUP6 DUP6 PUSH2 0xF72 JUMP JUMPDEST PUSH1 0x1 SWAP2 POP POP SWAP3 SWAP2 POP POP JUMP JUMPDEST PUSH12 0x11E110E90947DE0410340000 DUP2 JUMP JUMPDEST PUSH1 0xD PUSH0 SWAP1 SLOAD SWAP1 PUSH2 0x100 EXP SWAP1 DIV PUSH20 0xFFFFFFFFFFFFFFFFFFFFFFFFFFFFFFFFFFFFFFFF AND DUP2 JUMP JUMPDEST PUSH1 0xA PUSH1 0x20 MSTORE DUP1 PUSH0 MSTORE PUSH1 0x40 PUSH0 KECCAK256 PUSH0 SWAP2 POP SLOAD SWAP1 PUSH2 0x100 EXP SWAP1 DIV PUSH1 0xFF AND DUP2 JUMP JUMPDEST PUSH0 PUSH1 0x1 PUSH0 DUP5 PUSH20 0xFFFFFFFFFFFFFFFFFFFFFFFFFFFFFFFFFFFFFFFF AND PUSH20 0xFFFFFFFFFFFFFFFFFFFFFFFFFFFFFFFFFFFFFFFF AND DUP2 MSTORE PUSH1 0x20 ADD SWAP1 DUP2 MSTORE PUSH1 0x20 ADD PUSH0 KECCAK256 PUSH0 DUP4 PUSH20 0xFFFFFFFFFFFFFFFFFFFFFFFFFFFFFFFFFFFFFFFF AND PUSH20 0xFFFFFFFFFFFFFFFFFFFFFFFFFFFFFFFFFFFFFFFF AND DUP2 MSTORE PUSH1 0x20 ADD SWAP1 DUP2 MSTORE PUSH1 0x20 ADD PUSH0 KECCAK256 SLOAD SWAP1 POP SWAP3 SWAP2 POP POP JUMP JUMPDEST PUSH2 0xD5E PUSH2 0x1062 JUMP JUMPDEST PUSH0 PUSH1 0xA PUSH0 DUP4 PUSH20 0xFFFFFFFFFFFFFFFFFFFFFFFFFFFFFFFFFFFFFFFF AND PUSH20 0xFFFFFFFFFFFFFFFFFFFFFFFFFFFFFFFFFFFFFFFF AND DUP2 MSTORE PUSH1 0x20 ADD SWAP1 DUP2 MSTORE PUSH1 0x20 ADD PUSH0 KECCAK256 PUSH0 PUSH2 0x100 EXP DUP2 SLOAD DUP2 PUSH1 0xFF MUL NOT AND SWAP1 DUP4 ISZERO ISZERO MUL OR SWAP1 SSTORE POP POP JUMP JUMPDEST PUSH2 0xDBD PUSH2 0x1062 JUMP JUMPDEST PUSH1 0x1 PUSH1 0x8 PUSH0 DUP4 PUSH20 0xFFFFFFFFFFFFFFFFFFFFFFFFFFFFFFFFFFFFFFFF AND PUSH20 0xFFFFFFFFFFFFFFFFFFFFFFFFFFFFFFFFFFFFFFFF AND DUP2 MSTORE PUSH1 0x20 ADD SWAP1 DUP2 MSTORE PUSH1 0x20 ADD PUSH0 KECCAK256 PUSH0 PUSH2 0x100 EXP DUP2 SLOAD DUP2 PUSH1 0xFF MUL NOT AND SWAP1 DUP4 ISZERO ISZERO MUL OR SWAP1 SSTORE POP POP JUMP JUMPDEST PUSH1 0xB DUP1 PUSH0 ADD SLOAD SWAP1 DUP1 PUSH1 0x1 ADD SLOAD SWAP1 POP DUP3 JUMP JUMPDEST PUSH2 0xE2E PUSH2 0x1062 JUMP JUMPDEST PUSH0 PUSH20 0xFFFFFFFFFFFFFFFFFFFFFFFFFFFFFFFFFFFFFFFF AND DUP2 PUSH20 0xFFFFFFFFFFFFFFFFFFFFFFFFFFFFFFFFFFFFFFFF AND SUB PUSH2 0xE9E JUMPI PUSH0 PUSH1 0x40 MLOAD PUSH32 0x1E4FBDF700000000000000000000000000000000000000000000000000000000 DUP2 MSTORE PUSH1 0x4 ADD PUSH2 0xE95 SWAP2 SWAP1 PUSH2 0x1B37 JUMP JUMPDEST PUSH1 0x40 MLOAD DUP1 SWAP2 SUB SWAP1 REVERT JUMPDEST PUSH2 0xEA7 DUP2 PUSH2 0x1248 JUMP JUMPDEST POP JUMP JUMPDEST PUSH1 0x9 PUSH1 0x20 MSTORE DUP1 PUSH0 MSTORE PUSH1 0x40 PUSH0 KECCAK256 PUSH0 SWAP2 POP SLOAD SWAP1 PUSH2 0x100 EXP SWAP1 DIV PUSH1 0xFF AND DUP2 JUMP JUMPDEST PUSH0 CALLER SWAP1 POP SWAP1 JUMP JUMPDEST PUSH2 0xEDB DUP4 DUP4 DUP4 PUSH1 0x1 PUSH2 0x136D JUMP JUMPDEST POP POP POP JUMP JUMPDEST PUSH0 PUSH2 0xEEB DUP5 DUP5 PUSH2 0xCD4 JUMP JUMPDEST SWAP1 POP PUSH32 0xFFFFFFFFFFFFFFFFFFFFFFFFFFFFFFFFFFFFFFFFFFFFFFFFFFFFFFFFFFFFFFFF DUP2 EQ PUSH2 0xF6C JUMPI DUP2 DUP2 LT ISZERO PUSH2 0xF5D JUMPI DUP3 DUP2 DUP4 PUSH1 0x40 MLOAD PUSH32 0xFB8F41B200000000000000000000000000000000000000000000000000000000 DUP2 MSTORE PUSH1 0x4 ADD PUSH2 0xF54 SWAP4 SWAP3 SWAP2 SWAP1 PUSH2 0x1D0A JUMP JUMPDEST PUSH1 0x40 MLOAD DUP1 SWAP2 SUB SWAP1 REVERT JUMPDEST PUSH2 0xF6B DUP5 DUP5 DUP5 DUP5 SUB PUSH0 PUSH2 0x136D JUMP JUMPDEST JUMPDEST POP POP POP POP JUMP JUMPDEST PUSH0 PUSH20 0xFFFFFFFFFFFFFFFFFFFFFFFFFFFFFFFFFFFFFFFF AND DUP4 PUSH20 0xFFFFFFFFFFFFFFFFFFFFFFFFFFFFFFFFFFFFFFFF AND SUB PUSH2 0xFE2 JUMPI PUSH0 PUSH1 0x40 MLOAD PUSH32 0x96C6FD1E00000000000000000000000000000000000000000000000000000000 DUP2 MSTORE PUSH1 0x4 ADD PUSH2 0xFD9 SWAP2 SWAP1 PUSH2 0x1B37 JUMP JUMPDEST PUSH1 0x40 MLOAD DUP1 SWAP2 SUB SWAP1 REVERT JUMPDEST PUSH0 PUSH20 0xFFFFFFFFFFFFFFFFFFFFFFFFFFFFFFFFFFFFFFFF AND DUP3 PUSH20 0xFFFFFFFFFFFFFFFFFFFFFFFFFFFFFFFFFFFFFFFF AND SUB PUSH2 0x1052 JUMPI PUSH0 PUSH1 0x40 MLOAD PUSH32 0xEC442F0500000000000000000000000000000000000000000000000000000000 DUP2 MSTORE PUSH1 0x4 ADD PUSH2 0x1049 SWAP2 SWAP1 PUSH2 0x1B37 JUMP JUMPDEST PUSH1 0x40 MLOAD DUP1 SWAP2 SUB SWAP1 REVERT JUMPDEST PUSH2 0x105D DUP4 DUP4 DUP4 PUSH2 0x153C JUMP JUMPDEST POP POP POP JUMP JUMPDEST PUSH2 0x106A PUSH2 0xEC7 JUMP JUMPDEST PUSH20 0xFFFFFFFFFFFFFFFFFFFFFFFFFFFFFFFFFFFFFFFF AND PUSH2 0x1088 PUSH2 0xB92 JUMP JUMPDEST PUSH20 0xFFFFFFFFFFFFFFFFFFFFFFFFFFFFFFFFFFFFFFFF AND EQ PUSH2 0x10E7 JUMPI PUSH2 0x10AB PUSH2 0xEC7 JUMP JUMPDEST PUSH1 0x40 MLOAD PUSH32 0x118CDAA700000000000000000000000000000000000000000000000000000000 DUP2 MSTORE PUSH1 0x4 ADD PUSH2 0x10DE SWAP2 SWAP1 PUSH2 0x1B37 JUMP JUMPDEST PUSH1 0x40 MLOAD DUP1 SWAP2 SUB SWAP1 REVERT JUMPDEST JUMP JUMPDEST PUSH2 0x10F1 PUSH2 0x1755 JUMP JUMPDEST PUSH0 PUSH1 0x7 PUSH0 PUSH2 0x100 EXP DUP2 SLOAD DUP2 PUSH1 0xFF MUL NOT AND SWAP1 DUP4 ISZERO ISZERO MUL OR SWAP1 SSTORE POP PUSH32 0x5DB9EE0A495BF2E6FF9C91A7834C1BA4FDD244A5E8AA4E537BD38AEAE4B073AA PUSH2 0x1133 PUSH2 0xEC7 JUMP JUMPDEST PUSH1 0x40 MLOAD PUSH2 0x1140 SWAP2 SWAP1 PUSH2 0x1B37 JUMP JUMPDEST PUSH1 0x40 MLOAD DUP1 SWAP2 SUB SWAP1 LOG1 JUMP JUMPDEST PUSH0 PUSH20 0xFFFFFFFFFFFFFFFFFFFFFFFFFFFFFFFFFFFFFFFF AND DUP3 PUSH20 0xFFFFFFFFFFFFFFFFFFFFFFFFFFFFFFFFFFFFFFFF AND SUB PUSH2 0x11BA JUMPI PUSH0 PUSH1 0x40 MLOAD PUSH32 0xEC442F0500000000000000000000000000000000000000000000000000000000 DUP2 MSTORE PUSH1 0x4 ADD PUSH2 0x11B1 SWAP2 SWAP1 PUSH2 0x1B37 JUMP JUMPDEST PUSH1 0x40 MLOAD DUP1 SWAP2 SUB SWAP1 REVERT JUMPDEST PUSH2 0x11C5 PUSH0 DUP4 DUP4 PUSH2 0x153C JUMP JUMPDEST POP POP JUMP JUMPDEST PUSH0 PUSH20 0xFFFFFFFFFFFFFFFFFFFFFFFFFFFFFFFFFFFFFFFF AND DUP3 PUSH20 0xFFFFFFFFFFFFFFFFFFFFFFFFFFFFFFFFFFFFFFFF AND SUB PUSH2 0x1239 JUMPI PUSH0 PUSH1 0x40 MLOAD PUSH32 0x96C6FD1E00000000000000000000000000000000000000000000000000000000 DUP2 MSTORE PUSH1 0x4 ADD PUSH2 0x1230 SWAP2 SWAP1 PUSH2 0x1B37 JUMP JUMPDEST PUSH1 0x40 MLOAD DUP1 SWAP2 SUB SWAP1 REVERT JUMPDEST PUSH2 0x1244 DUP3 PUSH0 DUP4 PUSH2 0x153C JUMP JUMPDEST POP POP JUMP JUMPDEST PUSH0 PUSH1 0x5 PUSH0 SWAP1 SLOAD SWAP1 PUSH2 0x100 EXP SWAP1 DIV PUSH20 0xFFFFFFFFFFFFFFFFFFFFFFFFFFFFFFFFFFFFFFFF AND SWAP1 POP DUP2 PUSH1 0x5 PUSH0 PUSH2 0x100 EXP DUP2 SLOAD DUP2 PUSH20 0xFFFFFFFFFFFFFFFFFFFFFFFFFFFFFFFFFFFFFFFF MUL NOT AND SWAP1 DUP4 PUSH20 0xFFFFFFFFFFFFFFFFFFFFFFFFFFFFFFFFFFFFFFFF AND MUL OR SWAP1 SSTORE POP DUP2 PUSH20 0xFFFFFFFFFFFFFFFFFFFFFFFFFFFFFFFFFFFFFFFF AND DUP2 PUSH20 0xFFFFFFFFFFFFFFFFFFFFFFFFFFFFFFFFFFFFFFFF AND PUSH32 0x8BE0079C531659141344CD1FD0A4F28419497F9722A3DAAFE3B4186F6B6457E0 PUSH1 0x40 MLOAD PUSH1 0x40 MLOAD DUP1 SWAP2 SUB SWAP1 LOG3 POP POP JUMP JUMPDEST PUSH2 0x1313 PUSH2 0x1795 JUMP JUMPDEST PUSH1 0x1 PUSH1 0x7 PUSH0 PUSH2 0x100 EXP DUP2 SLOAD DUP2 PUSH1 0xFF MUL NOT AND SWAP1 DUP4 ISZERO ISZERO MUL OR SWAP1 SSTORE POP PUSH32 0x62E78CEA01BEE320CD4E420270B5EA74000D11B0C9F74754EBDBFC544B05A258 PUSH2 0x1356 PUSH2 0xEC7 JUMP JUMPDEST PUSH1 0x40 MLOAD PUSH2 0x1363 SWAP2 SWAP1 PUSH2 0x1B37 JUMP JUMPDEST PUSH1 0x40 MLOAD DUP1 SWAP2 SUB SWAP1 LOG1 JUMP JUMPDEST PUSH0 PUSH20 0xFFFFFFFFFFFFFFFFFFFFFFFFFFFFFFFFFFFFFFFF AND DUP5 PUSH20 0xFFFFFFFFFFFFFFFFFFFFFFFFFFFFFFFFFFFFFFFF AND SUB PUSH2 0x13DD JUMPI PUSH0 PUSH1 0x40 MLOAD PUSH32 0xE602DF0500000000000000000000000000000000000000000000000000000000 DUP2 MSTORE PUSH1 0x4 ADD PUSH2 0x13D4 SWAP2 SWAP1 PUSH2 0x1B37 JUMP JUMPDEST PUSH1 0x40 MLOAD DUP1 SWAP2 SUB SWAP1 REVERT JUMPDEST PUSH0 PUSH20 0xFFFFFFFFFFFFFFFFFFFFFFFFFFFFFFFFFFFFFFFF AND DUP4 PUSH20 0xFFFFFFFFFFFFFFFFFFFFFFFFFFFFFFFFFFFFFFFF AND SUB PUSH2 0x144D JUMPI PUSH0 PUSH1 0x40 MLOAD PUSH32 0x94280D6200000000000000000000000000000000000000000000000000000000 DUP2 MSTORE PUSH1 0x4 ADD PUSH2 0x1444 SWAP2 SWAP1 PUSH2 0x1B37 JUMP JUMPDEST PUSH1 0x40 MLOAD DUP1 SWAP2 SUB SWAP1 REVERT JUMPDEST DUP2 PUSH1 0x1 PUSH0 DUP7 PUSH20 0xFFFFFFFFFFFFFFFFFFFFFFFFFFFFFFFFFFFFFFFF AND PUSH20 0xFFFFFFFFFFFFFFFFFFFFFFFFFFFFFFFFFFFFFFFF AND DUP2 MSTORE PUSH1 0x20 ADD SWAP1 DUP2 MSTORE PUSH1 0x20 ADD PUSH0 KECCAK256 PUSH0 DUP6 PUSH20 0xFFFFFFFFFFFFFFFFFFFFFFFFFFFFFFFFFFFFFFFF AND PUSH20 0xFFFFFFFFFFFFFFFFFFFFFFFFFFFFFFFFFFFFFFFF AND DUP2 MSTORE PUSH1 0x20 ADD SWAP1 DUP2 MSTORE PUSH1 0x20 ADD PUSH0 KECCAK256 DUP2 SWAP1 SSTORE POP DUP1 ISZERO PUSH2 0x1536 JUMPI DUP3 PUSH20 0xFFFFFFFFFFFFFFFFFFFFFFFFFFFFFFFFFFFFFFFF AND DUP5 PUSH20 0xFFFFFFFFFFFFFFFFFFFFFFFFFFFFFFFFFFFFFFFF AND PUSH32 0x8C5BE1E5EBEC7D5BD14F71427D1E84F3DD0314C0F7B2291E5B200AC8C7C3B925 DUP5 PUSH1 0x40 MLOAD PUSH2 0x152D SWAP2 SWAP1 PUSH2 0x1991 JUMP JUMPDEST PUSH1 0x40 MLOAD DUP1 SWAP2 SUB SWAP1 LOG3 JUMPDEST POP POP POP POP JUMP JUMPDEST PUSH0 PUSH20 0xFFFFFFFFFFFFFFFFFFFFFFFFFFFFFFFFFFFFFFFF AND DUP4 PUSH20 0xFFFFFFFFFFFFFFFFFFFFFFFFFFFFFFFFFFFFFFFF AND SUB PUSH2 0x158C JUMPI DUP1 PUSH1 0x2 PUSH0 DUP3 DUP3 SLOAD PUSH2 0x1580 SWAP2 SWAP1 PUSH2 0x1D6C JUMP JUMPDEST SWAP3 POP POP DUP2 SWAP1 SSTORE POP PUSH2 0x165A JUMP JUMPDEST PUSH0 DUP1 PUSH0 DUP6 PUSH20 0xFFFFFFFFFFFFFFFFFFFFFFFFFFFFFFFFFFFFFFFF AND PUSH20 0xFFFFFFFFFFFFFFFFFFFFFFFFFFFFFFFFFFFFFFFF AND DUP2 MSTORE PUSH1 0x20 ADD SWAP1 DUP2 MSTORE PUSH1 0x20 ADD PUSH0 KECCAK256 SLOAD SWAP1 POP DUP2 DUP2 LT ISZERO PUSH2 0x1615 JUMPI DUP4 DUP2 DUP4 PUSH1 0x40 MLOAD PUSH32 0xE450D38C00000000000000000000000000000000000000000000000000000000 DUP2 MSTORE PUSH1 0x4 ADD PUSH2 0x160C SWAP4 SWAP3 SWAP2 SWAP1 PUSH2 0x1D0A JUMP JUMPDEST PUSH1 0x40 MLOAD DUP1 SWAP2 SUB SWAP1 REVERT JUMPDEST DUP2 DUP2 SUB PUSH0 DUP1 DUP7 PUSH20 0xFFFFFFFFFFFFFFFFFFFFFFFFFFFFFFFFFFFFFFFF AND PUSH20 0xFFFFFFFFFFFFFFFFFFFFFFFFFFFFFFFFFFFFFFFF AND DUP2 MSTORE PUSH1 0x20 ADD SWAP1 DUP2 MSTORE PUSH1 0x20 ADD PUSH0 KECCAK256 DUP2 SWAP1 SSTORE POP POP JUMPDEST PUSH0 PUSH20 0xFFFFFFFFFFFFFFFFFFFFFFFFFFFFFFFFFFFFFFFF AND DUP3 PUSH20 0xFFFFFFFFFFFFFFFFFFFFFFFFFFFFFFFFFFFFFFFF AND SUB PUSH2 0x16A1 JUMPI DUP1 PUSH1 0x2 PUSH0 DUP3 DUP3 SLOAD SUB SWAP3 POP POP DUP2 SWAP1 SSTORE POP PUSH2 0x16EB JUMP JUMPDEST DUP1 PUSH0 DUP1 DUP5 PUSH20 0xFFFFFFFFFFFFFFFFFFFFFFFFFFFFFFFFFFFFFFFF AND PUSH20 0xFFFFFFFFFFFFFFFFFFFFFFFFFFFFFFFFFFFFFFFF AND DUP2 MSTORE PUSH1 0x20 ADD SWAP1 DUP2 MSTORE PUSH1 0x20 ADD PUSH0 KECCAK256 PUSH0 DUP3 DUP3 SLOAD ADD SWAP3 POP POP DUP2 SWAP1 SSTORE POP JUMPDEST DUP2 PUSH20 0xFFFFFFFFFFFFFFFFFFFFFFFFFFFFFFFFFFFFFFFF AND DUP4 PUSH20 0xFFFFFFFFFFFFFFFFFFFFFFFFFFFFFFFFFFFFFFFF AND PUSH32 0xDDF252AD1BE2C89B69C2B068FC378DAA952BA7F163C4A11628F55A4DF523B3EF DUP4 PUSH1 0x40 MLOAD PUSH2 0x1748 SWAP2 SWAP1 PUSH2 0x1991 JUMP JUMPDEST PUSH1 0x40 MLOAD DUP1 SWAP2 SUB SWAP1 LOG3 POP POP POP JUMP JUMPDEST PUSH2 0x175D PUSH2 0x8E2 JUMP JUMPDEST PUSH2 0x1793 JUMPI PUSH1 0x40 MLOAD PUSH32 0x8DFC202B00000000000000000000000000000000000000000000000000000000 DUP2 MSTORE PUSH1 0x4 ADD PUSH1 0x40 MLOAD DUP1 SWAP2 SUB SWAP1 REVERT JUMPDEST JUMP JUMPDEST PUSH2 0x179D PUSH2 0x8E2 JUMP JUMPDEST ISZERO PUSH2 0x17D4 JUMPI PUSH1 0x40 MLOAD PUSH32 0xD93C066500000000000000000000000000000000000000000000000000000000 DUP2 MSTORE PUSH1 0x4 ADD PUSH1 0x40 MLOAD DUP1 SWAP2 SUB SWAP1 REVERT JUMPDEST JUMP JUMPDEST PUSH0 DUP2 MLOAD SWAP1 POP SWAP2 SWAP1 POP JUMP JUMPDEST PUSH0 DUP3 DUP3 MSTORE PUSH1 0x20 DUP3 ADD SWAP1 POP SWAP3 SWAP2 POP POP JUMP JUMPDEST PUSH0 JUMPDEST DUP4 DUP2 LT ISZERO PUSH2 0x180D JUMPI DUP1 DUP3 ADD MLOAD DUP2 DUP5 ADD MSTORE PUSH1 0x20 DUP2 ADD SWAP1 POP PUSH2 0x17F2 JUMP JUMPDEST PUSH0 DUP5 DUP5 ADD MSTORE POP POP POP POP JUMP JUMPDEST PUSH0 PUSH1 0x1F NOT PUSH1 0x1F DUP4 ADD AND SWAP1 POP SWAP2 SWAP1 POP JUMP JUMPDEST PUSH0 PUSH2 0x1832 DUP3 PUSH2 0x17D6 JUMP JUMPDEST PUSH2 0x183C DUP2 DUP6 PUSH2 0x17E0 JUMP JUMPDEST SWAP4 POP PUSH2 0x184C DUP2 DUP6 PUSH1 0x20 DUP7 ADD PUSH2 0x17F0 JUMP JUMPDEST PUSH2 0x1855 DUP2 PUSH2 0x1818 JUMP JUMPDEST DUP5 ADD SWAP2 POP POP SWAP3 SWAP2 POP POP JUMP JUMPDEST PUSH0 PUSH1 0x20 DUP3 ADD SWAP1 POP DUP2 DUP2 SUB PUSH0 DUP4 ADD MSTORE PUSH2 0x1878 DUP2 DUP5 PUSH2 0x1828 JUMP JUMPDEST SWAP1 POP SWAP3 SWAP2 POP POP JUMP JUMPDEST PUSH0 DUP1 REVERT JUMPDEST PUSH0 PUSH20 0xFFFFFFFFFFFFFFFFFFFFFFFFFFFFFFFFFFFFFFFF DUP3 AND SWAP1 POP SWAP2 SWAP1 POP JUMP JUMPDEST PUSH0 PUSH2 0x18AD DUP3 PUSH2 0x1884 JUMP JUMPDEST SWAP1 POP SWAP2 SWAP1 POP JUMP JUMPDEST PUSH2 0x18BD DUP2 PUSH2 0x18A3 JUMP JUMPDEST DUP2 EQ PUSH2 0x18C7 JUMPI PUSH0 DUP1 REVERT JUMPDEST POP JUMP JUMPDEST PUSH0 DUP2 CALLDATALOAD SWAP1 POP PUSH2 0x18D8 DUP2 PUSH2 0x18B4 JUMP JUMPDEST SWAP3 SWAP2 POP POP JUMP JUMPDEST PUSH0 DUP2 SWAP1 POP SWAP2 SWAP1 POP JUMP JUMPDEST PUSH2 0x18F0 DUP2 PUSH2 0x18DE JUMP JUMPDEST DUP2 EQ PUSH2 0x18FA JUMPI PUSH0 DUP1 REVERT JUMPDEST POP JUMP JUMPDEST PUSH0 DUP2 CALLDATALOAD SWAP1 POP PUSH2 0x190B DUP2 PUSH2 0x18E7 JUMP JUMPDEST SWAP3 SWAP2 POP POP JUMP JUMPDEST PUSH0 DUP1 PUSH1 0x40 DUP4 DUP6 SUB SLT ISZERO PUSH2 0x1927 JUMPI PUSH2 0x1926 PUSH2 0x1880 JUMP JUMPDEST JUMPDEST PUSH0 PUSH2 0x1934 DUP6 DUP3 DUP7 ADD PUSH2 0x18CA JUMP JUMPDEST SWAP3 POP POP PUSH1 0x20 PUSH2 0x1945 DUP6 DUP3 DUP7 ADD PUSH2 0x18FD JUMP JUMPDEST SWAP2 POP POP SWAP3 POP SWAP3 SWAP1 POP JUMP JUMPDEST PUSH0 DUP2 ISZERO ISZERO SWAP1 POP SWAP2 SWAP1 POP JUMP JUMPDEST PUSH2 0x1963 DUP2 PUSH2 0x194F JUMP JUMPDEST DUP3 MSTORE POP POP JUMP JUMPDEST PUSH0 PUSH1 0x20 DUP3 ADD SWAP1 POP PUSH2 0x197C PUSH0 DUP4 ADD DUP5 PUSH2 0x195A JUMP JUMPDEST SWAP3 SWAP2 POP POP JUMP JUMPDEST PUSH2 0x198B DUP2 PUSH2 0x18DE JUMP JUMPDEST DUP3 MSTORE POP POP JUMP JUMPDEST PUSH0 PUSH1 0x20 DUP3 ADD SWAP1 POP PUSH2 0x19A4 PUSH0 DUP4 ADD DUP5 PUSH2 0x1982 JUMP JUMPDEST SWAP3 SWAP2 POP POP JUMP JUMPDEST PUSH0 DUP1 PUSH0 PUSH1 0x60 DUP5 DUP7 SUB SLT ISZERO PUSH2 0x19C1 JUMPI PUSH2 0x19C0 PUSH2 0x1880 JUMP JUMPDEST JUMPDEST PUSH0 PUSH2 0x19CE DUP7 DUP3 DUP8 ADD PUSH2 0x18CA JUMP JUMPDEST SWAP4 POP POP PUSH1 0x20 PUSH2 0x19DF DUP7 DUP3 DUP8 ADD PUSH2 0x18CA JUMP JUMPDEST SWAP3 POP POP PUSH1 0x40 PUSH2 0x19F0 DUP7 DUP3 DUP8 ADD PUSH2 0x18FD JUMP JUMPDEST SWAP2 POP POP SWAP3 POP SWAP3 POP SWAP3 JUMP JUMPDEST PUSH0 PUSH1 0xFF DUP3 AND SWAP1 POP SWAP2 SWAP1 POP JUMP JUMPDEST PUSH2 0x1A0F DUP2 PUSH2 0x19FA JUMP JUMPDEST DUP3 MSTORE POP POP JUMP JUMPDEST PUSH0 PUSH1 0x20 DUP3 ADD SWAP1 POP PUSH2 0x1A28 PUSH0 DUP4 ADD DUP5 PUSH2 0x1A06 JUMP JUMPDEST SWAP3 SWAP2 POP POP JUMP JUMPDEST PUSH0 PUSH1 0x20 DUP3 DUP5 SUB SLT ISZERO PUSH2 0x1A43 JUMPI PUSH2 0x1A42 PUSH2 0x1880 JUMP JUMPDEST JUMPDEST PUSH0 PUSH2 0x1A50 DUP5 DUP3 DUP6 ADD PUSH2 0x18CA JUMP JUMPDEST SWAP2 POP POP SWAP3 SWAP2 POP POP JUMP JUMPDEST PUSH0 PUSH1 0x20 DUP3 DUP5 SUB SLT ISZERO PUSH2 0x1A6E JUMPI PUSH2 0x1A6D PUSH2 0x1880 JUMP JUMPDEST JUMPDEST PUSH0 PUSH2 0x1A7B DUP5 DUP3 DUP6 ADD PUSH2 0x18FD JUMP JUMPDEST SWAP2 POP POP SWAP3 SWAP2 POP POP JUMP JUMPDEST PUSH0 PUSH2 0x1A8E DUP3 PUSH2 0x1884 JUMP JUMPDEST SWAP1 POP SWAP2 SWAP1 POP JUMP JUMPDEST PUSH2 0x1A9E DUP2 PUSH2 0x1A84 JUMP JUMPDEST DUP2 EQ PUSH2 0x1AA8 JUMPI PUSH0 DUP1 REVERT JUMPDEST POP JUMP JUMPDEST PUSH0 DUP2 CALLDATALOAD SWAP1 POP PUSH2 0x1AB9 DUP2 PUSH2 0x1A95 JUMP JUMPDEST SWAP3 SWAP2 POP POP JUMP JUMPDEST PUSH0 PUSH1 0x20 DUP3 DUP5 SUB SLT ISZERO PUSH2 0x1AD4 JUMPI PUSH2 0x1AD3 PUSH2 0x1880 JUMP JUMPDEST JUMPDEST PUSH0 PUSH2 0x1AE1 DUP5 DUP3 DUP6 ADD PUSH2 0x1AAB JUMP JUMPDEST SWAP2 POP POP SWAP3 SWAP2 POP POP JUMP JUMPDEST PUSH0 DUP1 PUSH1 0x40 DUP4 DUP6 SUB SLT ISZERO PUSH2 0x1B00 JUMPI PUSH2 0x1AFF PUSH2 0x1880 JUMP JUMPDEST JUMPDEST PUSH0 PUSH2 0x1B0D DUP6 DUP3 DUP7 ADD PUSH2 0x18FD JUMP JUMPDEST SWAP3 POP POP PUSH1 0x20 PUSH2 0x1B1E DUP6 DUP3 DUP7 ADD PUSH2 0x18FD JUMP JUMPDEST SWAP2 POP POP SWAP3 POP SWAP3 SWAP1 POP JUMP JUMPDEST PUSH2 0x1B31 DUP2 PUSH2 0x18A3 JUMP JUMPDEST DUP3 MSTORE POP POP JUMP JUMPDEST PUSH0 PUSH1 0x20 DUP3 ADD SWAP1 POP PUSH2 0x1B4A PUSH0 DUP4 ADD DUP5 PUSH2 0x1B28 JUMP JUMPDEST SWAP3 SWAP2 POP POP JUMP JUMPDEST PUSH2 0x1B59 DUP2 PUSH2 0x1A84 JUMP JUMPDEST DUP3 MSTORE POP POP JUMP JUMPDEST PUSH0 PUSH1 0x20 DUP3 ADD SWAP1 POP PUSH2 0x1B72 PUSH0 DUP4 ADD DUP5 PUSH2 0x1B50 JUMP JUMPDEST SWAP3 SWAP2 POP POP JUMP JUMPDEST PUSH0 DUP1 PUSH1 0x40 DUP4 DUP6 SUB SLT ISZERO PUSH2 0x1B8E JUMPI PUSH2 0x1B8D PUSH2 0x1880 JUMP JUMPDEST JUMPDEST PUSH0 PUSH2 0x1B9B DUP6 DUP3 DUP7 ADD PUSH2 0x18CA JUMP JUMPDEST SWAP3 POP POP PUSH1 0x20 PUSH2 0x1BAC DUP6 DUP3 DUP7 ADD PUSH2 0x18CA JUMP JUMPDEST SWAP2 POP POP SWAP3 POP SWAP3 SWAP1 POP JUMP JUMPDEST PUSH0 PUSH1 0x40 DUP3 ADD SWAP1 POP PUSH2 0x1BC9 PUSH0 DUP4 ADD DUP6 PUSH2 0x1982 JUMP JUMPDEST PUSH2 0x1BD6 PUSH1 0x20 DUP4 ADD DUP5 PUSH2 0x1982 JUMP JUMPDEST SWAP4 SWAP3 POP POP POP JUMP JUMPDEST PUSH32 0x4E487B7100000000000000000000000000000000000000000000000000000000 PUSH0 MSTORE PUSH1 0x22 PUSH1 0x4 MSTORE PUSH1 0x24 PUSH0 REVERT JUMPDEST PUSH0 PUSH1 0x2 DUP3 DIV SWAP1 POP PUSH1 0x1 DUP3 AND DUP1 PUSH2 0x1C21 JUMPI PUSH1 0x7F DUP3 AND SWAP2 POP JUMPDEST PUSH1 0x20 DUP3 LT DUP2 SUB PUSH2 0x1C34 JUMPI PUSH2 0x1C33 PUSH2 0x1BDD JUMP JUMPDEST JUMPDEST POP SWAP2 SWAP1 POP JUMP JUMPDEST PUSH32 0x427579207461782063616E6E6F74206578636565642031303025000000000000 PUSH0 DUP3 ADD MSTORE POP JUMP JUMPDEST PUSH0 PUSH2 0x1C6E PUSH1 0x1A DUP4 PUSH2 0x17E0 JUMP JUMPDEST SWAP2 POP PUSH2 0x1C79 DUP3 PUSH2 0x1C3A JUMP JUMPDEST PUSH1 0x20 DUP3 ADD SWAP1 POP SWAP2 SWAP1 POP JUMP JUMPDEST PUSH0 PUSH1 0x20 DUP3 ADD SWAP1 POP DUP2 DUP2 SUB PUSH0 DUP4 ADD MSTORE PUSH2 0x1C9B DUP2 PUSH2 0x1C62 JUMP JUMPDEST SWAP1 POP SWAP2 SWAP1 POP JUMP JUMPDEST PUSH32 0x53656C6C207461782063616E6E6F742065786365656420313030250000000000 PUSH0 DUP3 ADD MSTORE POP JUMP JUMPDEST PUSH0 PUSH2 0x1CD6 PUSH1 0x1B DUP4 PUSH2 0x17E0 JUMP JUMPDEST SWAP2 POP PUSH2 0x1CE1 DUP3 PUSH2 0x1CA2 JUMP JUMPDEST PUSH1 0x20 DUP3 ADD SWAP1 POP SWAP2 SWAP1 POP JUMP JUMPDEST PUSH0 PUSH1 0x20 DUP3 ADD SWAP1 POP DUP2 DUP2 SUB PUSH0 DUP4 ADD MSTORE PUSH2 0x1D03 DUP2 PUSH2 0x1CCA JUMP JUMPDEST SWAP1 POP SWAP2 SWAP1 POP JUMP JUMPDEST PUSH0 PUSH1 0x60 DUP3 ADD SWAP1 POP PUSH2 0x1D1D PUSH0 DUP4 ADD DUP7 PUSH2 0x1B28 JUMP JUMPDEST PUSH2 0x1D2A PUSH1 0x20 DUP4 ADD DUP6 PUSH2 0x1982 JUMP JUMPDEST PUSH2 0x1D37 PUSH1 0x40 DUP4 ADD DUP5 PUSH2 0x1982 JUMP JUMPDEST SWAP5 SWAP4 POP POP POP POP JUMP JUMPDEST PUSH32 0x4E487B7100000000000000000000000000000000000000000000000000000000 PUSH0 MSTORE PUSH1 0x11 PUSH1 0x4 MSTORE PUSH1 0x24 PUSH0 REVERT JUMPDEST PUSH0 PUSH2 0x1D76 DUP3 PUSH2 0x18DE JUMP JUMPDEST SWAP2 POP PUSH2 0x1D81 DUP4 PUSH2 0x18DE JUMP JUMPDEST SWAP3 POP DUP3 DUP3 ADD SWAP1 POP DUP1 DUP3 GT ISZERO PUSH2 0x1D99 JUMPI PUSH2 0x1D98 PUSH2 0x1D3F JUMP JUMPDEST JUMPDEST SWAP3 SWAP2 POP POP JUMP INVALID LOG2 PUSH5 0x6970667358 0x22 SLT KECCAK256 ISZERO ADDRESS LOG0 0xBC SWAP1 0xFC 0xC7 DUP16 SGT COINBASE DUP5 0xEA 0xC3 CHAINID 0xC4 SLOAD 0xE2 0x4E 0xDC SELFDESTRUCT DUP14 SIGNEXTEND DUP2 PUSH19 0xE19F25714DA28BFB64736F6C63430008170033 "
				},
				"gasEstimates": {
					"creation": {
						"codeDepositCost": "1527400",
						"executionCost": "infinite",
						"totalCost": "infinite"
					},
					"external": {
						"AIRDROP_WALLET_AMOUNT()": "415",
						"INITIAL_SUPPLY()": "371",
						"MARKETING_WALLET_AMOUNT()": "392",
						"MAX_SUPPLY()": "415",
						"addToBlacklist(address)": "infinite",
						"addToWhitelist(address)": "infinite",
						"adjustTaxes(uint256,uint256)": "infinite",
						"allowance(address,address)": "infinite",
						"approve(address,uint256)": "infinite",
						"approveForDEX(address,uint256)": "infinite",
						"balanceOf(address)": "2875",
						"burn(address,uint256)": "infinite",
						"burn(uint256)": "infinite",
						"burnFrom(address,uint256)": "infinite",
						"currentTaxes()": "infinite",
						"decimals()": "406",
						"excludeFromTax(address)": "infinite",
						"includeInTax(address)": "infinite",
						"isBlacklisted(address)": "2965",
						"isExcludedFromTax(address)": "2944",
						"isWhitelisted(address)": "2945",
						"mint(address,uint256)": "infinite",
						"name()": "infinite",
						"owner()": "2604",
						"pause()": "infinite",
						"paused()": "2518",
						"removeFromBlacklist(address)": "infinite",
						"removeFromWhitelist(address)": "infinite",
						"renounceOwnership()": "infinite",
						"setTreasuryAddress(address)": "infinite",
						"symbol()": "infinite",
						"totalSupply()": "2523",
						"transfer(address,uint256)": "infinite",
						"transferFrom(address,address,uint256)": "infinite",
						"transferOwnership(address)": "infinite",
						"treasuryAddress()": "2597",
						"unpause()": "infinite"
					},
					"internal": {
						"_afterTokenTransfer(address,address,uint256)": "infinite"
					}
				},
				"methodIdentifiers": {
					"AIRDROP_WALLET_AMOUNT()": "72a8a933",
					"INITIAL_SUPPLY()": "2ff2e9dc",
					"MARKETING_WALLET_AMOUNT()": "b3a88c1b",
					"MAX_SUPPLY()": "32cb6b0c",
					"addToBlacklist(address)": "44337ea1",
					"addToWhitelist(address)": "e43252d7",
					"adjustTaxes(uint256,uint256)": "6f0b00ac",
					"allowance(address,address)": "dd62ed3e",
					"approve(address,uint256)": "095ea7b3",
					"approveForDEX(address,uint256)": "6c95702b",
					"balanceOf(address)": "70a08231",
					"burn(address,uint256)": "9dc29fac",
					"burn(uint256)": "42966c68",
					"burnFrom(address,uint256)": "79cc6790",
					"currentTaxes()": "eb1e7387",
					"decimals()": "313ce567",
					"excludeFromTax(address)": "60d1259e",
					"includeInTax(address)": "e17c4c74",
					"isBlacklisted(address)": "fe575a87",
					"isExcludedFromTax(address)": "cb4ca631",
					"isWhitelisted(address)": "3af32abf",
					"mint(address,uint256)": "40c10f19",
					"name()": "06fdde03",
					"owner()": "8da5cb5b",
					"pause()": "8456cb59",
					"paused()": "5c975abb",
					"removeFromBlacklist(address)": "537df3b6",
					"removeFromWhitelist(address)": "8ab1d681",
					"renounceOwnership()": "715018a6",
					"setTreasuryAddress(address)": "6605bfda",
					"symbol()": "95d89b41",
					"totalSupply()": "18160ddd",
					"transfer(address,uint256)": "a9059cbb",
					"transferFrom(address,address,uint256)": "23b872dd",
					"transferOwnership(address)": "f2fde38b",
					"treasuryAddress()": "c5f956af",
					"unpause()": "3f4ba83a"
				}
			},
			"storageLayout": {
				"storage": [
					{
						"astId": 772,
						"contract": ".deps/token.sol:LivingTheDream",
						"label": "_balances",
						"offset": 0,
						"slot": "0",
						"type": "t_mapping(t_address,t_uint256)"
					},
					{
						"astId": 778,
						"contract": ".deps/token.sol:LivingTheDream",
						"label": "_allowances",
						"offset": 0,
						"slot": "1",
						"type": "t_mapping(t_address,t_mapping(t_address,t_uint256))"
					},
					{
						"astId": 780,
						"contract": ".deps/token.sol:LivingTheDream",
						"label": "_totalSupply",
						"offset": 0,
						"slot": "2",
						"type": "t_uint256"
					},
					{
						"astId": 782,
						"contract": ".deps/token.sol:LivingTheDream",
						"label": "_name",
						"offset": 0,
						"slot": "3",
						"type": "t_string_storage"
					},
					{
						"astId": 784,
						"contract": ".deps/token.sol:LivingTheDream",
						"label": "_symbol",
						"offset": 0,
						"slot": "4",
						"type": "t_string_storage"
					},
					{
						"astId": 408,
						"contract": ".deps/token.sol:LivingTheDream",
						"label": "_owner",
						"offset": 0,
						"slot": "5",
						"type": "t_address"
					},
					{
						"astId": 695,
						"contract": ".deps/token.sol:LivingTheDream",
						"label": "_status",
						"offset": 0,
						"slot": "6",
						"type": "t_uint256"
					},
					{
						"astId": 1453,
						"contract": ".deps/token.sol:LivingTheDream",
						"label": "_paused",
						"offset": 0,
						"slot": "7",
						"type": "t_bool"
					},
					{
						"astId": 48,
						"contract": ".deps/token.sol:LivingTheDream",
						"label": "isWhitelisted",
						"offset": 0,
						"slot": "8",
						"type": "t_mapping(t_address,t_bool)"
					},
					{
						"astId": 52,
						"contract": ".deps/token.sol:LivingTheDream",
						"label": "isBlacklisted",
						"offset": 0,
						"slot": "9",
						"type": "t_mapping(t_address,t_bool)"
					},
					{
						"astId": 56,
						"contract": ".deps/token.sol:LivingTheDream",
						"label": "isExcludedFromTax",
						"offset": 0,
						"slot": "10",
						"type": "t_mapping(t_address,t_bool)"
					},
					{
						"astId": 64,
						"contract": ".deps/token.sol:LivingTheDream",
						"label": "currentTaxes",
						"offset": 0,
						"slot": "11",
						"type": "t_struct(Taxes)61_storage"
					},
					{
						"astId": 72,
						"contract": ".deps/token.sol:LivingTheDream",
						"label": "treasuryAddress",
						"offset": 0,
						"slot": "13",
						"type": "t_address_payable"
					}
				],
				"types": {
					"t_address": {
						"encoding": "inplace",
						"label": "address",
						"numberOfBytes": "20"
					},
					"t_address_payable": {
						"encoding": "inplace",
						"label": "address payable",
						"numberOfBytes": "20"
					},
					"t_bool": {
						"encoding": "inplace",
						"label": "bool",
						"numberOfBytes": "1"
					},
					"t_mapping(t_address,t_bool)": {
						"encoding": "mapping",
						"key": "t_address",
						"label": "mapping(address => bool)",
						"numberOfBytes": "32",
						"value": "t_bool"
					},
					"t_mapping(t_address,t_mapping(t_address,t_uint256))": {
						"encoding": "mapping",
						"key": "t_address",
						"label": "mapping(address => mapping(address => uint256))",
						"numberOfBytes": "32",
						"value": "t_mapping(t_address,t_uint256)"
					},
					"t_mapping(t_address,t_uint256)": {
						"encoding": "mapping",
						"key": "t_address",
						"label": "mapping(address => uint256)",
						"numberOfBytes": "32",
						"value": "t_uint256"
					},
					"t_string_storage": {
						"encoding": "bytes",
						"label": "string",
						"numberOfBytes": "32"
					},
					"t_struct(Taxes)61_storage": {
						"encoding": "inplace",
						"label": "struct LivingTheDream.Taxes",
						"members": [
							{
								"astId": 58,
								"contract": ".deps/token.sol:LivingTheDream",
								"label": "buyTax",
								"offset": 0,
								"slot": "0",
								"type": "t_uint256"
							},
							{
								"astId": 60,
								"contract": ".deps/token.sol:LivingTheDream",
								"label": "sellTax",
								"offset": 0,
								"slot": "1",
								"type": "t_uint256"
							}
						],
						"numberOfBytes": "64"
					},
					"t_uint256": {
						"encoding": "inplace",
						"label": "uint256",
						"numberOfBytes": "32"
					}
				}
			},
			"userdoc": {
				"kind": "user",
				"methods": {},
				"version": 1
			}
		}
	}
}